:020000040800F2
:100000000080002009760008D50B0008D70B0008F7
:1000100000000000000000000000000000000000E0
:100020000000000000000000000000000543000880
:10003000000000000000000071430008B543000804
:100040005976000859760008597600085976000854
:1000500059760008350D00086D0D0008710D000877
:1000600059760008D90B0008E90B0008210C00089C
:10007000597600080D0D00081D0D0008F90D000847
:10008000250D00085D0C0008090E000859760008CF
:100090005976000859760008597600085976000804
:1000A00059760008597600085976000859760008F4
:0C00B000890C00086D0C0008597600084F
:1000C00010B5064C2378002B07D1054B002B02D02E
:1000D000044800E000BF0123237010BD7800002019
:1000E00000000000E4800008044B10B5002B03D092
:1000F0000349044800E000BF10BDC04600000000F6
:100100007C000020E480000802B4714649084900E0
:10011000095649008E4402BC7047C04602B471467D
:1001200049084900095C49008E4402BC7047C0463A
:1001300003B47146490840004900095A49008E44F9
:1001400003BC7047002243088B4274D303098B42DF
:100150005FD3030A8B4244D3030B8B4228D3030C97
:100160008B420DD3FF22090212BA030C8B4202D339
:100170001212090265D0030B8B4219D300E0090A61
:10018000C30B8B4201D3CB03C01A5241830B8B426A
:1001900001D38B03C01A5241430B8B4201D34B0353
:1001A000C01A5241030B8B4201D30B03C01A5241B8
:1001B000C30A8B4201D3CB02C01A5241830A8B423D
:1001C00001D38B02C01A5241430A8B4201D34B0226
:1001D000C01A5241030A8B4201D30B02C01A52418A
:1001E000CDD2C3098B4201D3CB01C01A524183093E
:1001F0008B4201D38B01C01A524143098B4201D378
:100200004B01C01A524103098B4201D30B01C01AA2
:100210005241C3088B4201D3CB00C01A524183081C
:100220008B4201D38B00C01A524143088B4201D349
:100230004B00C01A5241411A00D2014652411046A9
:100240007047FFE701B5002000F0F0F802BDC0469E
:100250000029F7D076E7704703460B437FD400228E
:1002600043088B4274D303098B425FD3030A8B424A
:1002700044D3030B8B4228D3030C8B420DD3FF22B4
:10028000090212BA030C8B4202D31212090265D082
:10029000030B8B4219D300E0090AC30B8B4201D335
:1002A000CB03C01A5241830B8B4201D38B03C01A7C
:1002B0005241430B8B4201D34B03C01A5241030BF3
:1002C0008B4201D30B03C01A5241C30A8B4201D3A4
:1002D000CB02C01A5241830A8B4201D38B02C01A4F
:1002E0005241430A8B4201D34B02C01A5241030AC6
:1002F0008B4201D30B02C01A5241CDD2C3098B42AB
:1003000001D3CB01C01A524183098B4201D38B0127
:10031000C01A524143098B4201D34B01C01A5241CA
:1003200003098B4201D30B01C01A5241C3088B420F
:1003300001D3CB00C01A524183088B4201D38B00FA
:10034000C01A524143088B4201D34B00C01A52419C
:10035000411A00D201465241104670475DE0CA0F73
:1003600000D04942031000D34042534000229C4633
:1003700003098B422DD3030A8B4212D3FC2289013D
:1003800012BA030A8B420CD3890192118B4208D313
:10039000890192118B4204D389013AD0921100E075
:1003A0008909C3098B4201D3CB01C01A5241830989
:1003B0008B4201D38B01C01A524143098B4201D3B6
:1003C0004B01C01A524103098B4201D30B01C01AE1
:1003D0005241C3088B4201D3CB00C01A524183085B
:1003E0008B4201D38B00C01A5241D9D243088B42B1
:1003F00001D34B00C01A5241411A00D20146634654
:1004000052415B10104601D34042002B00D54942B7
:10041000704763465B1000D3404201B5002000F0F6
:1004200005F802BD0029F8D016E770477047C046AE
:10043000002B11D1002A0FD1002900D1002802D0B1
:100440000021C943081C07B4024802A140180290C9
:1004500003BDC046D9FFFFFF03B4684601B502984B
:1004600000F030F8019B9E4602B00CBC7047C046BD
:10047000F0B5CE46474615042D0C2E0080B5070476
:10048000140C3F0C9946030C7E435D436743634362
:100490007F19340CE4199C46A54203D980235B02E2
:1004A0009846C4444B4643435143250C36046544A7
:1004B000360C2404A4195B19591820000CBC904672
:1004C0009946F0BDF0B557464E464546DE46E0B586
:1004D000040083B00D00924699468B4230D82DD04F
:1004E0004946504600F0C0F829000600200000F000
:1004F000BBF8331A9846203B9B4633D45A465346A2
:10050000934042461F00534693401E00AF423AD8E4
:10051000AF4200D17BE05B46A41BBD41002B00DA5B
:1005200078E0002200230092019301235A46934071
:100530000193012342469340009328E08242CFD9A1
:1005400000220023009201930C9B002B01D01C6021
:100550005D600098019903B03CBC90469946A24664
:10056000AB46F0BD424620239B1A5246DA40414634
:1005700013004A468A40170042461F4353469340A1
:100580001E00AF42C4D900220023009201934346CB
:10059000002BD9D0FB079C46614672080A437B08B2
:1005A00046460EE0AB4201D1A2420CD8A41A9D41AE
:1005B000012024196D410021013E24184D41002ED7
:1005C00006D0AB42EED9013E24196D41002EF8D180
:1005D000009801995B4600196941002B25DB2B002F
:1005E0005A464446D3402A00E2401C005B461500B0
:1005F000002B2BDB26005F46BE403300260047461B
:10060000BE403200801A9941009001919CE7A342BC
:10061000B9D880E74246202300219B1A002200918E
:1006200001920122DA40019283E7424620239B1A7D
:100630002A0046469A402300F340444613432A00CA
:10064000E2401C005B461500002BD3DA2023424613
:1006500026009B1ADE402F00B4464646B740664649
:100660003B003343CAE7C04610B5002903D100F070
:1006700007F8203002E0081C00F002F810BDC04668
:100680001C2101231B04984201D3000C10391B0AC2
:10069000984201D3000A08391B09984201D3000986
:1006A000043902A2105C40187047C04604030202DD
:1006B00001010101000000000000000013B5012449
:1006C00064420023104822001900006803F0C8F8B3
:1006D0000128F6D10D4B18680028F2D000230F2214
:1006E000694603F0BDF80028EBD06B4699880029D5
:1006F000E7D0009804F040FB6B4600989A880021F0
:1007000006F0DFFFDDE7C046E4130020D814002028
:1007100070B580248025E4012D0205F059FF06F014
:1007200059FC134B1A69002816D0290091430CD0AC
:1007300006F07EFC90228023D20551695B014B407C
:100740005361012003F090FDE7E722001B699A4303
:10075000F0D006F059FCEDE72242EBD01B692B42AA
:10076000E8D006F049FC0028E4D005F095FFE1E769
:1007700000040048F0B587B01022002102A806F05E
:10078000A0FFC0230227184D1B0201A928000193D6
:10079000039702F087FA8023012400265B0001A959
:1007A000280001930294039602F07CFA042301A925
:1007B0000E4801930294039702F074FA802301A972
:1007C0009B01280001930294039402F06BFA8023AA
:1007D00090205B0101A9C00501930294039602F0E9
:1007E00061FA07B0F0BDC04600040048000C0048A4
:1007F000054B89001B6841181A68884201D11868A6
:10080000704704C81A60F8E720120020F8B50024E9
:100810000127260004F042FB0500002003F06EFCD7
:100820001D4B1860FA20800003F01EFD33003C339E
:10083000AB4205D2280006F063FC002800D12E0050
:1008400006F0BCFE002803D006F016FD06F0BCFE44
:10085000002C1AD18021114BC9001A6893683B43C0
:100860009360802320031B05C018FFF7C1FF0C4BCA
:1008700001341860082CCDD90A4B0B4A1B68136051
:10088000984200D0FEE70024C4E7210008394B1E3F
:100890009941064BC918E4E7D0140020201200202B
:1008A000D0120020FC8F0008D4140020FF030000A9
:1008B00030B599B02C2200210DA806F002FF1022BD
:1008C0000021684606F0FDFE1C22002104A806F067
:1008D000F8FE80235B0215938023012402255B032D
:1008E0000BA80B940C941495169301F0D3FD0028DB
:1008F00000D0FEE707230290039021006846009392
:10090000019502F03BF8002800D0FEE72223079073
:10091000099004A8049302F00DF9002800D0FEE726
:1009200019B030BDF0B59BB002F0A6F9FFF7C0FFDB
:1009300080218F4CC903626902270A43626163699F
:1009400009200B4080210693069B626909030A4334
:10095000626163690B4080210793079B626989028A
:100960000A43626163690B4080210893089B6269B6
:10097000C9020A43626163690B4080210993099BA4
:10098000626949030A436261012263690B400A9369
:100990000A9B6369032113436361636913400493F2
:1009A000049B636900223B43636163693B40059399
:1009B000059B02F0C9FB092002F0F0FB0022032195
:1009C0000A2002F0C1FB0A2002F0E8FB002203210A
:1009D0000B2002F0B9FB0B2002F0E0FB6548664BF0
:1009E0000C22036096239B014360002342618360D5
:1009F000C36003618361C3610362436201F0BCFBB6
:100A0000061E00D0FEE75D4D5D4B2B6096239B01DB
:100A100018006B6006F0CEFA0C236B6113331A00DA
:100A200031002800AE60EE602E61AE61EE612E6294
:100A30006E6201F0E7FC280001F09EFB002800D068
:100A4000FEE7504D504BA8602B60504B28616B6007
:100A500001236861A861E86128622800EB6000F06A
:100A6000DDFC011E00D0FEE7280000F0A7FE011EFD
:100A700000D0FEE7280000F0C7FE002800D0FEE707
:100A800040216269424D0A436261636928000B405C
:100A90000393039B3F4B2B6003232B6202F0D8FB95
:100AA000041E00D0FEE780213B4A0905280002F021
:100AB000F9FB3A4B3A4A18603A4B1B68136098426C
:100AC00000D0FEE7012102A8029403F0D5FB364BCB
:100AD000082118602200062002F07AFD334D344BC5
:100AE0002A0018600BAB9C4643CA43C303CA03C326
:100AF0002100604603F09FFB2E4B186010AB9C4614
:100B00002B006246143343CB43C203CB03C260467F
:100B1000210003F090FB284B2835186015A802002F
:100B20004ACD4AC20ACD0AC2210003F084FB8522C5
:100B3000224B234C1860234B5200210038000093B5
:100B4000214B06F0F3FB06F0F3FC04F08BF903F005
:100B50001DFEFFF70FFE06F0B5FB14221B4BFF3204
:100B60002100380006F0E2FB03F060FBFEE7C04620
:100B7000001002405C14002000440040E8130020F4
:100B8000004C0040D4110020005400400E09002009
:100B90002012002000300240FF230000D01200206D
:100BA000D4140020FC8F0008E4130020FC8000080F
:100BB000D814002044120020DC130020D0110020A3
:100BC0006B8100087B81000858810008848100083F
:100BD000FEE7FEE77047FEE710B5024802F06BFA49
:100BE00010BDC046D412002010B50B4802F063FAC5
:100BF000E0220A4B1968114203D05968D03A0A43DF
:100C00005A60E02219681201114204D0802259680A
:100C100052000A435A6010BD4812002000000240F2
:100C200010B50C4802F047FAE0220B4B120119688C
:100C3000114204D08022596852000A435A60E022CF
:100C400019681202114204D08022596852010A43E5
:100C50005A6010BD181300200004024010B502486D
:100C600000F003FE10BDC0465C13002010B5044C1C
:100C7000200001F035FB0349200003F0A1FC10BD6A
:100C8000E8130020D412002010B5044C200001F01D
:100C900027FB0349200003F025FD10BD5C14002054
:100CA0008C1100200368074A10B5934203D08022BC
:100CB000D205934204D1037F042B01D105F0B2FE8B
:100CC00010BDC046002C014003680B4A10B504005B
:100CD000934206D08022D205934202D0074A934223
:100CE00002D1200005F0F4FE054B22689A4201D1A2
:100CF00001F0CAFF10BDC046002C014000040040B6
:100D00000010004010B505F0C1FD10BD10B502483F
:100D100000F0ABFD10BDC0469C13002010B5FFF7DE
:100D2000F5FF10BD10B5024800F09FFD10BDC04694
:100D30009012002070B501260A4B0B4C5D6A636966
:100D4000ADB2334204D02900002005F009FE6661EF
:100D500002266369334204D02900012005F000FE19
:100D6000666170BD0014004000040140704700003F
:100D700070B540261E4B1F4C5D6A6369ADB23342AD
:100D800004D02900032005F0EBFD6661802663692D
:100D9000334204D02900022005F0E2FD666180267E
:100DA00063697600334204D02900042005F0D8FDA1
:100DB000666180266369B600334204D029000520AD
:100DC00005F0CEFD666180266369F600334204D0EB
:100DD0002900062005F0C4FD66618026636936019E
:100DE000334204D02900072005F0BAFD666170BDCA
:100DF000001400400004014010B5024800F035FD29
:100E000010BDC046EC1800200121044A10B513693A
:100E10008B43136105F0A2FE10BDC04600140040D4
:100E200007B501200B4B99690143996180219A69AB
:100E3000490502400092009ADA6900180A43DA6113
:100E4000DB6900220B40019303214042019B02F029
:100E50007BF907BD0010024010B5040088B01422D1
:100E6000002103A806F02DFC124B22689A421FD1E4
:100E70008021114CC902626910480A4362616369AA
:100E800003220B400193019BC0230393AE3B0493C9
:100E900003A9113B05930692079301F003FF8021FC
:100EA000E26989030A43E261E3690B400293029B12
:100EB00008B010BD0054004000100240000400487B
:100EC00070B505008AB01422002105A806F0F9FBD0
:100ED0002B68644A934265D18022634B9202D969A0
:100EE00090201143D961D969C00511400191019940
:100EF0005969114359615B6905A91A400292029B25
:100F00000C2305930A3B069301330893023B099394
:100F100001F0C8FE554C564B802223600023200070
:100F20006360A360E26023616361A361E36102F037
:100F30001BF8002801D0FFF74BFE4E4E4E4A336897
:100F400013403360902332681B01134333604B4BD3
:100F50006C6665624A4C8022236010236360002324
:100F60002000A360E26023616361A361E36101F09B
:100F7000FBFF002801D0FFF72BFE3368414A1C20FD
:100F800013403360902332681B0213433360002206
:100F90002C660321656202F0D7F81C2002F0FEF8EF
:100FA0000AB070BD384A9342FAD180222E4B120308
:100FB000D96936481143D961D96911400391039920
:100FC0005969114359615B6905A91A400492049B50
:100FD000C0231B0105930223069301F063FE2C4CF2
:100FE0002C4B80222360002320006360A360E2601A
:100FF00023616361A361E36101F0B6FF002801D0C2
:10100000FFF7E6FD0F26244B1A68B2431A600B2245
:1010100019680A431A60214B6C666562204C802275
:1010200023601023636000232000A360E26023613B
:101030006361A361E36101F097FF002801D0FFF72E
:10104000C7FD0C4B1D201A68B2431A600B221968A9
:101050000A431A6003212C660022656202F074F8CC
:101060001D209BE700440040001002408C1100202E
:1010700030040240A8040240FFF0FFFF4404024095
:1010800018130020FF0FFFFF004C0040000800482D
:10109000D412002008000240A800024008040240C8
:1010A000481200200368164A10B50400934210D17C
:1010B0009020144A1449D369C0050B40D3610C2118
:1010C00001F0ACFE606E01F07BFF206E01F078FF56
:1010D00010BD0E4A9342FBD10A4A0D49D3690D480F
:1010E0000B40C021D361090101F098FE606E01F050
:1010F00067FF206E01F064FF1D2002F059F8E7E75A
:101100000044004000100240FFFFFDFF004C004083
:10111000FFFFF7FF0008004810B5010086B000226D
:10112000112002F011F8112002F038F81020134AB3
:10113000D1690143D161D36969460340019302A893
:10114000019B01F0DBFC01F0C9FC0D4C0D4B0E497D
:1011500023600E4BE360FEF7F5FF0023013860606B
:1011600020002361A36000F075FC03000120002B28
:1011700002D1200000F06DFB06B010BD001002404F
:101180005C1300200010004040420F00E703000005
:1011900003689A69920701D500229A62012299692F
:1011A000114202D199690A439A617047006830B5CB
:1011B0004568064C12042C40039D89052B431A43B5
:1011C000890D0A432243426030BDC046009800FCAE
:1011D000F8B504000E0017001D0022689369334023
:1011E0009B1B59424B41BB4201D000200EE06B1CBF
:1011F000F4D0002D0BD12300202241331A7022009D
:10120000002303204232403413702370F8BD01F0F4
:1012100043FD069BC01AA842DFD9ECE7F8B5036886
:101220000400986910230D0016001840202700289C
:1012300015D1F8BD6A1C13D0002D04D001F02CFD8F
:10124000801B85420BD22300202241331A702200DA
:10125000002342324034137003202370E9E72368EF
:101260009A693A42E6D010222000DA61DF61FFF786
:101270008FFF22680849536801200B405360042304
:1012800063642300220041331F7000234232403444
:1012900013702370CDE7C04600E800FEF8B50400E7
:1012A0000D001600022723689B693B4201D00020F5
:1012B00018E0320029002000FFF7B0FF002818D105
:1012C0006B1CF0D0002D0ED12022636C0320134341
:1012D0006364230041331A702200002342324034F9
:1012E00013702370F8BD01F0D7FC801BA842DAD937
:1012F000EAE70120F6E773B515001E00DAB2802395
:101300009B010093802304005B04FFF74FFF079AC3
:1013100006992000FFF7C2FF002805D0636C01206A
:10132000042B00D0032076BD2368012E0CD1EDB232
:101330009D62079B002200938021069B2000FFF7FF
:1013400047FF0028EFD0EDE72A0A9A620699079A2C
:101350002000FFF7A3FF0028E0D12368E7E773B57B
:1013600015001E00DAB2802304009B0100930023C5
:10137000FFF71CFF079A06992000FFF78FFF002850
:1013800005D0636C0120042B00D0032076BD2368B8
:10139000012E0CD1EDB29D62079B002200934021EB
:1013A000069B2000FFF714FF0028EFD0EDE72A0A84
:1013B0009A620699079A2000FFF770FF0028E0D193
:1013C0002368E7E7F8B504000D001600202723681E
:1013D0009B693B4201D0002016E03200290020002A
:1013E000FFF71CFF002816D1002D0ED12022636CC0
:1013F000032013436364230041331A702200002347
:101400004232403413702370F8BD01F045FC801B5C
:10141000A842DCD9EAE70120F6E7000070B5040035
:101420000120002C3FD0250041352B78DBB2002B6A
:1014300005D12200403213702000FFF70DFD242358
:1014400001212B702368E0681A68A6688A431A6035
:1014500061681A4A0A401A619968194A11409960EC
:10146000012821D18021090231439960586815492A
:1014700001435960D96800200A40DA606169226935
:101480000A43A16909020A43DA60216AE2690A4350
:101490001A60012219680A431A60202360642B70C5
:1014A00020634234207070BD842109023143996069
:1014B0000228DBD1802109015960D7E7FFFFFFF047
:1014C000FF7FFFFF00800002F0B589B007930EABED
:1014D000069204CB04001B8803920493030041335B
:1014E00005931B780D000220202B02D1002A02D187
:1014F000012009B0F0BD049B002BF9D02700403734
:101500003B780220012BF4D001233B7001F0C4FB97
:101510008021029000901923012209022000FFF788
:1015200057FE061E1ED12123059A290013702300A1
:10153000423305934023059A1370039B60646362F2
:10154000049B60636385029B069A0193109B2000B5
:101550000093079BFFF7CFFE002805D0636C3E7019
:10156000042BC5D00320C4E7638DFF2B14D9FF22C1
:10157000802322855B040090290020008026FFF74D
:1015800015FEFF27B604029A10992000FFF786FE89
:10159000002809D0636CE3E78023628D9B0492B23C
:1015A0002285D2B20090E7E7636A5A1C62621B7818
:1015B00022689362638D228D013B013A9BB292B205
:1015C00063852285002A17D1638D002B14D0029BDE
:1015D000802100932000109BFFF7FAFD0028C1D165
:1015E000638DFF2B21D98023FF2227855B04009088
:1015F00029002000FFF7DAFD638D002BC3D1029A8A
:1016000010992000FFF7DEFE0028C3D120212368B7
:10161000094DD9615A682A405A6023004133197034
:10162000059B40341870207063E7628D330092B2DE
:101630002285D2B20090DBE700E800FEF0B589B069
:1016400007930EAB069204CB04001B88039204930D
:101650000300413305931B780D000220202B02D19B
:10166000002A02D1012009B0F0BD049B002BF9D063
:10167000270040373B780220012BF4D001233B7038
:1016800001F00AFB80210290009019230122090237
:101690002000FFF79DFD061E1ED12223059A29007A
:1016A00013702300423305934023059A1370039B64
:1016B00060646362049B60636385029B069A019386
:1016C000109B20000093079BFFF749FE002805D0E0
:1016D000636C3E70042BC5D00320C4E79023628D59
:1016E0009B01FF2A49D9FF222285009380235B04B6
:1016F000290020008026FFF759FDFF27B604029B32
:10170000002200930421109B2000FFF761FD0028B8
:10171000E2D123685A6A636A591C61621A70228D89
:10172000638D013A013B92B29BB222856385002A08
:1017300017D1638D002B14D0029B802100932000D1
:10174000109BFFF745FD0028C6D1638DFF2B1CD9E8
:101750008023FF2227855B04009029002000FFF7EB
:1017600025FD638D002BCAD1029A10992000FFF746
:1017700029FE002810D0636CACE7628D92B22285FE
:1017800000938023D2B29B04B2E7628D330092B201
:101790002285D2B20090E0E720212368064DD9616E
:1017A0005A682A405A60230041331970059B40341F
:1017B0001870207057E7C04600E800FEF0B504003E
:1017C000413422780300D2B20220202A18D11E0010
:1017D00040363578012D13D01B68223020701D68EB
:1017E000233885431D601F68064D2F401F601D680C
:1017F0000D431D6019680843186000202270307086
:10180000F0BDC046FFEFFFFFF0B5050041352A7877
:101810000300D2B20220202A17D11C0040342678BF
:10182000012E12D01B68223028701E682338864390
:101830001E601E68054F09023E4031431960196859
:101840000843186000202A702070F0BDFFF0FFFFF1
:10185000704701220368D96800201143D9601968D4
:101860000A431A607047704770470222036810B538
:101870001969040011420ED0D96811420BD0053A03
:101880001A619B69043202779B0700D179E0FFF768
:1018900039FA00232377042223681969114210D0F2
:1018A000D96811420DD0093A1A61073222779A6934
:1018B000C0239B0020001A4269D0FFF723FA0023BF
:1018C000237708222368196911420ED0D968114282
:1018D0000BD0043A22770D3A1A61DB6920009B078E
:1018E0005BD0FFF70FFA00232377102223681969D2
:1018F000114210D0D96811420DD0213A1A61193223
:101900002277DA69C0239B0020001A424BD0FFF7F0
:10191000F9F900232377012223681969114207D0BE
:10192000D968114204D0033A1A612000FFF7CCF9BC
:10193000802223681969114208D0D968114205D064
:10194000023AFF3A1A61200000F0A0F84022236812
:101950001969114207D0D968114204D0813A1A613D
:101960002000FFF781FF202223681969114207D068
:10197000D968114204D0413A1A61200000F085F87C
:1019800010BDFFF78FF92000FFF76DFF81E7FFF72C
:1019900089F92000FFF767FF91E7FFF783F920003F
:1019A000FFF761FF9FE7FFF77DF92000FFF75BFF7F
:1019B000AFE70000204A10B50368904206D08024AB
:1019C000E405A04202D01D4CA0420CD17024A343D8
:1019D0004C682343904212D08024E405A0420ED0EC
:1019E000164CA0420BD0164CA04208D0154CA04279
:1019F00005D0154CA04202D0144CA04203D1144C87
:101A00002340CC6823438024A3434C6923430360D1
:101A10008B68C3620B688362904208D0094B98427E
:101A200005D0094B984202D0084B984201D10B696E
:101A300003630123436110BD002C014000040040FA
:101A400000200040004001400044014000480140A7
:101A5000FFFCFFFF70B504000120002C14D025000E
:101A60003D352B78DBB2002B05D122003C321370C0
:101A70002000FFF7EDFE022320682B70211DFFF7E9
:101A800099FF012300202B7070BD70477047000044
:101A9000036806491A686A300A401A609A68233156
:101AA000FF318A439A60202303707047DFFEFFFFF7
:101AB00070B505000120002D16D02E00242300242F
:101AC000693633702B681A6882431A6028001C60DC
:101AD0005C609C60FFF7E6FA2B002000EC666A333E
:101AE000683534701C702C7070BD0000130002004B
:101AF00070B56932147805000220202C36D10138E7
:101B0000002933D0002B31D08020AC6840018442C2
:101B100006D12869002803D101242000214225D1C3
:101B20002E00683634780220012C1FD00138307026
:101B300028005030E9640024038043802120EC66B3
:101B40001070286E0A4A446382620A4AC2620A4AD4
:101B500002632A68283201F050FA402220002B68E4
:101B60001A62996892180A4334709A6070BDC04630
:101B70001F1C0008511C0008AF1C0008F8B513001A
:101B800002006A32147805000220202C3ED1013870
:101B900000293BD0002B39D08020AC684001844222
:101BA00006D12869002803D10124200021422DD12B
:101BB0002E00683634780220012C27D02800012717
:101BC000583037700024696503802220EC6610705D
:101BD000686E0F4A446382620E4AC2620E4A026312
:101BE0002A68243294460A00614601F006FA8022EF
:101BF0002B685200196834700A431A609A682000F2
:101C0000174340229F6099680A439A60F8BDC04616
:101C10005D1C0008A31C0008AF1C000870472021B1
:101C2000036810B51B68426A0B400CD11100523199
:101C30000B80802113689A688A439A604022196851
:101C40000A431A6010BD1000FFF7E8FFFAE770477B
:101C500010B5406AFFF7FBFF10BD70470368426A8A
:101C600020201B6810B5034013D111005A310B809E
:101C700013680A4C19682140196099680334FF34CD
:101C8000A143996099683F34A143996013006A3376
:101C900018701000FFF7E1FF10BDC046FFFEFFFF08
:101CA000704710B5406AFFF7FBFF10BD704710B5D5
:101CB000446A210069310B78212B0DD123689A6881
:101CC000120609D522000020523210801A68C03056
:101CD00082431A6020230B7023006A331B78222B67
:101CE0000AD123689B685B0606D5230000225A337D
:101CF0001A802000FFF7CCFE1023E26E2000134371
:101D0000E366FFF7D3FF10BD406A0023020010B561
:101D10005A321380083A1380FFF7C8FF10BD000045
:101D200070B504000568C3698268006929680243C8
:101D30006069024360481A4301400A432A606A68A6
:101D40005E49206A0A40E1680A436A60A269A9689C
:101D500002435B4801400A43AA605A4A954213D1A4
:101D60000321594A126B0A405849885C80221202AA
:101D7000934200D069E0082864D8FEF7CFF95D638C
:101D80002763906363639700514A954231D1C02124
:101D900080204D4A8902126B40020A40824200D1E3
:101DA00079E008D800208242E0D0802212029342DB
:101DB00048D001201CE080208002824200D171E0E6
:101DC0008A42F2D180221202934253D163685808AA
:101DD000404BC0186168FEF7B5F983B200200F22AE
:101DE000190091430A001B0721685B0F1343CB6066
:101DF00070BD394A95420CD1C0218020324A090376
:101E0000126BC0020A40824245D0CBD98020000329
:101E1000D3E7324A95420BD0314A954208D0314A35
:101E2000954205D0304A954202D0304A9542BCD105
:101E300080221202934211D100F050FE63684000EC
:101E40005B08C6E701200023C9E70828B1D8FEF7E0
:101E50005BF905B011B01AB0B0B01D0000F03EFE45
:101E6000616824684B081818FEF76CF980B2E060CE
:101E70000020BDE761681E4B4808C018FEF762F9F4
:101E800080B2E860F4E700F037FDE9E7802361689D
:101E90001B024808F1E7802212029342F3D100F0BE
:101EA0002BFDCBE7802212029342EFD163685808E2
:101EB00080235B028DE7C046F369FFEFFFCFFFFF92
:101EC000FFF4FFFF0038014000100240AD81000820
:101ED000004400400024F40000480040004C004052
:101EE000005000400014014000180140001C014057
:101EF00000127A00436A30B5DA0706D50168284C2B
:101F00004A682240846A22434A609A0706D50168DB
:101F1000244C4A682240C46A22434A605A0706D5C4
:101F20000168214C4A682240046B22434A601A0728
:101F300006D501681D4C4A682240446B22434A6022
:101F4000DA0606D501681A4C8A682240846B22435F
:101F50008A609A0606D50168164C8A682240C46BCE
:101F600022438A605A0610D50168134D4A68046CF2
:101F70002A4022434A6080225203944205D14A6893
:101F80000E4C2240446C22434A601B0606D5026870
:101F90000B4953680B40816C0B43536030BDC04606
:101FA000FFFFFDFFFFFFFEFFFFFFFBFFFF7FFFFFC8
:101FB000FFEFFFFFFFDFFFFFFFFFEFFFFFFF9FFFD1
:101FC000FFFFF7FFF8B504000E0015001F002268A0
:101FD000D36933409B1B59424B41AB4201D0002097
:101FE00018E0069B0133F3D0069B002B13D1236826
:101FF0000C491A6803200A401A609A68A331FF311D
:102000008A439A60220020236932137053700023A0
:1020100068342370F8BD00F03FFE069BC01B984259
:10202000D5D9E4E75FFEFFFFF0B5070085B0039365
:1020300069373B7804000D0016000220202B46D1A2
:102040000138002943D0002A41D08023A2685B01D7
:102050009A4204D12369002B01D1014237D12300D8
:1020600068331A780220012A31D001221A70002325
:10207000E36621333B7000F00FFE230050331E80D7
:102080005E80802602907601210052310A8892B249
:10209000002A0DD1039B402100932000029BFFF7F3
:1020A00091FF002812D1202368343B7020700EE08D
:1020B0000B880022013B9BB20B80039B8021009385
:1020C0002000029BFFF77EFF002802D0032005B00E
:1020D000F0BDA3682268B34208D12369002B05D163
:1020E0002B880235DB05DB0D1385CDE72B78013519
:1020F0001385C9E7002337B50400C36600F0CCFDA3
:102100002368194A050093420ED0184A93420BD017
:10211000174A934208D022002023002069326834F5
:102120001370537020703EBD1B681B070FD42368CB
:102130001B685B07EFD580210E4B00220093C9037B
:102140002B002000FFF73EFF0028E4D00AE08021AA
:10215000084B0022009389032B002000FFF732FF79
:102160000028E4D00320DEE70038014000440040AE
:1021700000480040FFFFFF0170B5041E01D101209F
:1021800070BD050069352B78DBB2002B04D102004D
:1021900068321370FEF794FE2423012122682B700D
:1021A000136820008B431360FFF7BAFD0128E6D0C7
:1021B000636A002B02D02000FFF79CFE23680849C9
:1021C0005A6820000A402A215A609A688A439A6015
:1021D000012219680A431A60FFF78CFFD0E7C04656
:1021E000FFB7FFFF030030B569331B780200022000
:1021F000212B0FD114005234238811689BB2002B7D
:1022000009D10A687E3082430A604022086802438E
:102210000A60002030BD80209568D36C4001854263
:102220000DD1106900280AD118880233C005C00DED
:102230000885D3642388013B9BB22380E9E7581CBF
:10224000D0641B780B85F5E74021026810B5136850
:102250008B4313600300202269331A70FFF7DEFC02
:10226000002010BD020070B56A321178036822297F
:102270002DD1010080245C310D88998C64012940A6
:102280008568436DA5421ED10469002C1BD11980BD
:1022900002334365010000245A310B88013B9BB295
:1022A0000B80A3420DD103680C4D196829401960B9
:1022B00099682335FF35A943996020231370FFF7F0
:1022C000CCFC200070BD5C1C44651970E2E708225C
:1022D000996902240A439A61F3E7C046DFFEFFFFD3
:1022E0000268F8B504000F20D3691168184008D1BE
:1022F00020252B4205D0294203D02000FFF7B2FF52
:10230000F8BD9768002856D0902501203E006D004A
:1023100006400D4035434ED0034205D0CD0503D5D0
:102320001062E56E2843E0660220034206D0002ECC
:1023300004D01062E56E00182843E06604200342D2
:1023400006D0002E04D010620222E06E0243E26644
:10235000E26E002AD4D02022134204D0114202D0CF
:102360002000FFF77FFFE36E20001B0704D42368E3
:102370009D6840231D401AD0FFF78AFB4021236847
:102380009A680A420FD09A68606E8A439A60002861
:1023900009D01B4B436300F06BFE0028B0D0606E89
:1023A000436B9847ACE72000FFF780FCA8E7FFF7F6
:1023B0007DFCE566A4E78020400303420BD07D024C
:1023C00009D5106222002023693213702000537057
:1023D00000F05EF894E78022134205D0114203D04A
:1023E0002000FFF7FFFE8BE74022134200D187E772
:1023F000114200D184E72000FFF726FF80E7C046A6
:10240000091D0008F7B504000F0001921D00002807
:1024100001D10120FEBD060069363378DBB2002B06
:1024200004D1020068321370FEF74AFD2423012113
:1024300022683370136820008B431360FFF770FC31
:102440000128E6D0636A002B02D02000FFF752FD7E
:1024500080222368D20199682D040A439A609A6801
:10246000094920000A401743019A9F6051050D4316
:102470001A6806490A40154301221D6019680A437B
:102480001A60FFF737FEC5E7FF7FFFFFFFFF00FC85
:1024900070470000F0B5036885B00500DB0733D452
:1024A0002B689B0700D58AE02B681B0700D5CAE084
:1024B0002B685B0700D5EDE02B68DB061AD56A694F
:1024C000BC4C0423012A00D059E1616B02260B4366
:1024D0006363636B1A43626300F0DEFB0700636BA8
:1024E000334200D144E1F821626BAB698A43DB00DF
:1024F000134363632B689B0600D567E1696A002973
:1025000000D0A4E1002018E00C21AA4C62680A4027
:10251000042A0BD063680B40082B10D1C0226368DB
:102520005202134080225202934208D123689B0337
:10253000B6D56B68002BB3D1012005B0F0BD6B6838
:10254000012B13D1802322685B021343236000F028
:10255000A3FB80260700B60223683342A0D100F017
:102560009BFBC01B6428F7D90320E6E7002B16D19C
:102570002368914A80261340236023688F4AB6025D
:102580001340236000F088FB07002368334200D12A
:1025900086E700F081FBC01B6428F6D9E4E7052B31
:1025A00005D180232268DB0213432360CAE7236836
:1025B000814A134023602368804A1340C6E70C22F7
:1025C0007C4C636813420BD063681340082B15D111
:1025D000C0226368520213408022120293420DD13E
:1025E00023689B0702D5EB68012BA5D1F82122684F
:1025F0002B698A43DB001343236055E7EA68012314
:10260000002A0FD0226802261343236000F044FB07
:10261000070023683342E9D100F03EFBC01B0228CB
:10262000F7D9A1E7226802269A43226000F034FB22
:1026300007002368334200D136E700F02DFBC01BB2
:102640000228F6D990E7EA6901235A4C002A10D0F3
:10265000626A02261343636200F01EFB0700636A8E
:10266000334200D024E700F017FBC01B0228F6D944
:102670007AE7626A02269A43626200F00DFB070065
:10268000636A334200D113E700F006FBC01B022847
:10269000F6D969E780220021464C5205E369009192
:1026A000134208D1E3691343E361E36913400393E1
:1026B000039B012300938027414E7F0033683B42F8
:1026C00006D0AB68012B13D1226A1343236230E09A
:1026D00033683B43336000F0DFFA019033683B42DC
:1026E000EFD100F0D9FA019BC01A6428F6D93BE774
:1026F0000122002B14D1236A022793432362236A09
:1027000003329343236200F0C7FA0600236A3B4278
:1027100025D000F0C1FA2B4B801B9842F6D923E755
:10272000052B0BD1216A013B0B432362236A1A4319
:10273000226200F0B1FA022706000DE0236A9343FB
:1027400004222362236A9343C0E700F0A5FA1D4BDD
:10275000801B984200D907E7236A3B42F5D0009BD3
:10276000012B00D0A8E6E369174A1340E361A3E612
:1027700000F092FAC01B022800D8B0E6F4E6053259
:1027800003D1626B9A436263ADE6626B0226134328
:1027900001226363636B9343636300F07DFA070078
:1027A000636B334200D1A5E600F076FAC01B022825
:1027B000F6D9D9E600100240FFFFFEFFFFFFFBFF46
:1027C0000070004088130000FFFFFFEF0C21464C13
:1027D00062680A408A4209D063680B40082B0ED118
:1027E000C022636852021340934208D1636BDB033B
:1027F00000D483E62B6A012B00D09DE67EE62B6A8F
:10280000002B11D08026636B76023343636300F0A4
:1028100043FA0700636B334200D06FE600F03CFAE6
:10282000C01B0228F6D99FE6636B304A802613400E
:10283000636300F031FA07007602636B334200D124
:102840005CE600F029FAC01B0228F6D98CE60C22BF
:10285000254C63681340082B00D16DE62368244A99
:102860001340236002292FD100F016FA80260700BA
:10287000B6042368334221D10F22E36A93432A6BC3
:102880001343E362A96AEB6A62680B431949802526
:102890000A4013436360802322685B041343236070
:1028A00000F0FAF90600AD0423682B4200D029E6B7
:1028B00000F0F2F9801B0228F6D955E600F0ECF999
:1028C000C01B0228D5D94FE600F0E6F980250600A6
:1028D000AD0423682B4200D114E600F0DDF9801B23
:1028E0000228F6D940E6C04600100240FFFFFEFF76
:1028F000FFFFFFFEFF7FC2FF30B51B4C89B01022E7
:102900002100684604F0D4FE210004AD10221031ED
:10291000280004F0CDFE0C20144A53681840082803
:1029200009D00C3843425841114B40421840114BDA
:10293000C01809B030BD0F206C46D26A990C014016
:102940000240645CA95CC022802052021340400215
:10295000834201D1074802E09342FBD10648FDF7CC
:10296000F1FB6043E5E7C0463881000800100240F3
:10297000005A620200127A00006CDC02F7B50122F4
:10298000504C06002368019113408B421FD33268DC
:10299000930728D4D3072ED40123226801991A4023
:1029A0008A4200D97EE03368474C5B0700D581E05E
:1029B000FFF7A2FF6368454A1B061B0FD35CD84094
:1029C000434B18600620FEF7A7FB00200AE02368AF
:1029D000019993430B43236023681340019A934268
:1029E000D5D00120FEBDF02037494B688343B06845
:1029F00003434B60CEE77268334D012A1AD12B682E
:102A00009B03EED503216B688B4313436B6000F08F
:102A100043F973680700012B1CD10C226B6813402B
:102A2000042BB9D000F038F92A4BC01B9842F4D9D6
:102A30000320D7E7022A03D12B689B01E2D4D0E719
:102A4000032A03D16B6BDB03DCD4CAE72B689B073B
:102A5000D8D4C6E7022B0BD10C226B681340082B8D
:102A60009AD000F019F91B4BC01B9842F4D9DFE74C
:102A7000032B11D00C226B68134200D18CE700F0BD
:102A80000BF9144BC01B9842F4D9D1E700F004F9BC
:102A9000104BC01B9842CBD80C226B68134093425A
:102AA000F4D179E722689A43226022681A4200D161
:102AB00079E796E76368084A1340F2681343636056
:102AC00076E7C0460020024000100240B1810008B5
:102AD0000000002088130000FFF8FFFF044B054AA8
:102AE0005B685B055B0FD35C034A1068D840704796
:102AF00000100240C181000800000020072310B52B
:102B000003240360094B5A68224042605A68ED343E
:102B100022408260E0225B68D20013400122C36041
:102B2000034B1B6813400B6010BDC04600100240F1
:102B300000200240F0B5036885B00500DB0328D50E
:102B400080220021444C5205E3690091134208D1D0
:102B5000E3691343E361E36913400393039B012398
:102B6000009380273D4E7F0033683B4241D0C02216
:102B7000236A920013403A4E4DD1236A1E406B687F
:102B80001E43009B2662012B03D1E369354A1340A3
:102B9000E3612B68DA0706D503202F490A6B8243CD
:102BA000A86802430A639A0706D52B492E480A6B88
:102BB0000240E86802430A635A0306D526492B48B7
:102BC0000A6B0240286902430A639A0606D5102060
:102BD00021490A6B8243686902430A6300205B054E
:102BE00017D540211C4A136B8B43A9690B43136310
:102BF0000FE033683B43336000F04EF801903368D8
:102C00003B42B4D100F048F8019BC01A6428F6D9C1
:102C1000032005B0F0BD69680A409A42ADD0802318
:102C2000226A206A11005B0203432362236A104870
:102C30003140034023622162D3079ED500F02CF877
:102C400007000222236A134297D100F025F8094BAE
:102C5000C01B9842F5D9DBE700100240007000402D
:102C6000FFFCFFFFFFFFFFEFFFFFFCFFFFFFF3FF96
:102C7000FFFFFEFF8813000010B50620FEF74CFA98
:102C8000FEF7CEF8002010BD024A1368013313602E
:102C90007047C046DC140020014B18687047C046DE
:102CA000DC140020F0B5564A0B688218541EA2416D
:102CB00089B00393002304320592039ADA4001D1CC
:102CC00009B0F0BD01229A4094466446039A22401E
:102CD000029200D192E04A6801921022019E96432E
:102CE000022E0DD107240F271C40A400A740DA08AC
:102CF00092008218156ABD430F69A7403D431562D3
:102D0000032214005D00AC40E4430768013E274005
:102D10000497019F3A40AA40049F3A430260012E63
:102D20000ED8CA688668AA4026403243826062464E
:102D300046689643019AD206D20F9A4032434260C7
:102D4000C26814408A68AA401443019AC460D20041
:102D500054D501262B4A1D0094693443946192692D
:102D60009C0832400792079A274AA400A418A26838
:102D7000944603221540AD000C32AA4067469743A3
:102D80009022D2059446002260450DD01F4A9446F9
:102D90003200604508D01E4E9218B04204D01D4E3D
:102DA0000132B04200D0059AAA403A43A2601A4AC2
:102DB000029C1668029D019FE4433543FF0301D442
:102DC0003500254015605668029D019F3543BF03BD
:102DD00001D43500254055609668029D019F35431A
:102DE000FF0201D4350025409560D568029E019F01
:102DF0002E43BF0201D425402E00D66001335CE78C
:102E000000F0FFB70010024000000140000400483D
:102E100000080048000C004800040140F0B5374AA3
:102E200085B082180191511E8A4100230432039219
:102E3000019ADA4001D105B0F0BD01229A409446D2
:102E40006146019A0A40009256D003263400590088
:102E50008C40E4430268072522400260DA089200B1
:102E60008218116A1D4002910F210F00AD00AF4082
:102E70003D00029FAF436546176282682240826030
:102E80004268AA434260C2681440C4609A081C4C5D
:102E9000920012191C003440A400A14095680F0054
:102EA0000D409021C9058C46002160450FD0154981
:102EB0008C46012160450AD013498C4602216045A9
:102EC00005D012498C463100604500D00399A140DD
:102ED000A94211D19168B943916000990C4AC94344
:102EE00014680C40146054680C40546094680C40A2
:102EF0009460D4682140D160013399E700F0FFB7B6
:102F0000000001400004004800080048000C004890
:102F100000040140002A01D0816170478162FCE712
:102F200010B50C4B04000068984209D80A4B1421D4
:102F3000C018FDF707F9094B80002064E36310BD5A
:102F4000074B1421C018FDF7FDF880002064054BE5
:102F5000F4E7C04607040240F8FFFDBF000002404E
:102F6000F8FBFDBF0004024070B504000120002CF6
:102F700022D002232268A51CEB7711680F4BA068B2
:102F8000194063680343E0680343206903436069B1
:102F90000343A0690343E06903430B43200013602C
:102FA000FFF7BEFF00200123A062E06220636063A0
:102FB000A063E418EB77E07770BDC0460FC0FFFF59
:102FC00070B5012605003000002D15D000242B68B7
:102FD00028001A68B2431A601C605C609C60DC6068
:102FE000FFF79EFF2A6C20009640EB6B5E60AC639F
:102FF000AB1C0135DC77EC7770BDF0B5441CE67F87
:1030000005000220012E26D00138E077A81CC67FDB
:103010008446F6B202200027012E27D16446E077CD
:103020002C68AF6320682F6CB043BE402060E86B13
:10303000466063606B68102B0ED1A260E160EB6AA2
:103040002268002B0BD00E231343236001230020A2
:10305000226813432360F0BDA160E260EFE70A231A
:1030600013430422236023689343EEE7E777F2E7F4
:1030700070B5841CE37F022B04D004238363033BDD
:10308000180070BD0E210368056C1A688A431A6027
:1030900001221968914319601100A940C36B59605E
:1030A000E27700248318426BDC771300A242E7D05A
:1030B00090472300E4E7F8B504273E00016CC26B9B
:1030C0008E40156803681C6835420DD03C420BD019
:1030D0001968890602D41968B9431960C36A566031
:1030E000002B19D0984717E002273E008E4035424A
:1030F00013D03C4211D01968890606D40A241968F5
:10310000A14319600121C319D97756600022431CDD
:10311000DA77836A9342E5D1F8BD082637008F40FD
:103120003D42F9D03442F7D00E251C68AC431C60F8
:1031300001231C008C405460821C8363D3770022DF
:10314000C318DA77036BE5E730B5FF2503242A00BF
:10315000C3B21C40E400A24089012940D243A140EF
:1031600000280BDA0F200340083B0A489B089B000D
:103170001B18D86902401143D96130BD064B800845
:103180008000C018C0239B00C45822401143C15086
:10319000F3E7C04600ED00E000E100E01F23184027
:1031A0001E3B8340014A13607047C04600E100E0C7
:1031B0001F2318401E3B8340014AD3677047C04617
:1031C00004E100E0F7B50E009508AD004B1901933E
:1031D0000368019CA64207D10324224019D0012A8A
:1031E0000FD14A5D1A7014E03478777824063F04D2
:1031F0003C43F7783C43B77804363F023C431C60BD
:10320000E7E74C19495D0902022A05D162780A43B1
:103210001A8003681868FEBD62780A431A80A27893
:10322000E0E7F0B50D00002600685408B44206D16E
:10323000D30702D5A400635A03800068F0BD2B8831
:103240006F881B043B43036001360435EEE770478B
:1032500010B5041E01D1012010BD437FDBB2002B4D
:1032600002D10377FFF7F3FF02232000637700F01A
:1032700071F80028EFD162792368002A10D1013A51
:1032800060211A619A688A4361690A4380219A60C1
:103290009A688A43A1690A439A6001236377DBE74E
:1032A0002269EDE770B50225037F04002800012B99
:1032B0001BD0012320686577856823772B438360C3
:1032C000236A022B15D0032B06D00020012B08D136
:1032D0002000FFF777FF04E092008A18914205D1A1
:1032E0000068012363770023237770BD08C903605A
:1032F000F4E72000FFF795FFF3E730B501231F2423
:103300001D00A540294209D1013CF9D20123102A10
:1033100011D0182A0FD0082A12D10CE0102A0CD094
:10332000182A05D0082A0BD101230F2C08D902E056
:103330000123062C04D9180030BD0123072CFAD82C
:1033400000684161182183688B431A43826000231F
:10335000F1E7000010B50379002B08D102681820AE
:1033600007495161916881439160180010BDC2689E
:103370008168FFF7C2FF431E9841C3B2F5E7C0461C
:10338000B71DC1040121114B11481A680A431A6084
:103390005A6802405A601A680E4802401A601A6859
:1033A0000D4802401A605A680C4802400F205A60CB
:1033B000DA6A8243DA621A6B094802401A635A6B6E
:1033C0008A435A6300229A607047C0460010024048
:1033D0000CB8FF08FFFFF6FEFFFFFBFFFFFFC0FF7B
:1033E000ACFEF0FF0300012208334360C3600361B9
:1033F00000235242826003607047002303617047DC
:1034000043689A684B608A609A6851609960036863
:10341000086101330360704703000A6830B5083360
:10342000541C0BD103695A684A6091608B605960E3
:10343000036808610133036030BD23005C682568C0
:103440009542FAD9EFE70369416882688A60516062
:103450005968814200D15A60002202611A68501EE8
:1034600018607047F8B51500026C0400866B002ADE
:103470000CD107681500002F04D1406800F094FEBD
:103480000500676001362800A663F8BD002D0CD149
:10349000806804F00DF9A368226C9B186268A36031
:1034A0009342EFD32368A360ECE7C06804F000F90F
:1034B000236CE2685B422168D218E2608A4202D241
:1034C0006268D318E360022D05D133005A1E934180
:1034D0000025F61AD6E70025D4E703001A6C10B5CC
:1034E0000800002A0AD0D9685C688918D960A1420E
:1034F00001D31968D960D96804F0DAF810BD70B545
:1035000005002E00453600F00BFF347864B2002C25
:1035100010DCFF2333702E00443600F00DFF00F066
:10352000FFFE347864B2002C11DCFF23337000F00E
:1035300003FF70BD6B6A002BEBD02800243000F035
:103540005BFD002801D000F0D3FD013CDEE72B69D4
:10355000002BEAD02800103000F04EFD002801D0EA
:1035600000F0C6FD013CDDE770B504000D00002849
:1035700001D172B6FEE700F0D3FE216CE36B226846
:103580004B43D0185B1AD318E36023006060A2603D
:103590000020FF224433A0631A705A7085420ED176
:1035A0002369834207D02000103000F025FD002859
:1035B00001D000F0A9FE00F0BFFE012070BD200088
:1035C0001030FFF70FFF20002430FFF70BFFF2E76A
:1035D00070B506000D00002801D172B6FEE70800A4
:1035E0007043483000F04AFF041E0AD00300002D4B
:1035F00000D048332360E663256401212000FFF7F3
:10360000B3FF200070BDF0B585B004000F0001923B
:103610001D00002801D172B6FEE7002904D1036C19
:10362000002B01D072B6FEE7022D04D1E36B012B13
:1036300001D072B6FEE700F071FD061E04D1019BB9
:10364000002B4DD072B6FEE7002649E0019B0093A7
:10365000002B03D100F070FE00205CE0002E02D1B0
:1036600002A800F005FD00F067FE00F035FB00F059
:1036700057FE2200443213785BB2013301D100239C
:1036800013702200453213785BB2013301D100235D
:10369000137000F051FE01A902A800F0F9FC002807
:1036A0003BD100F03DFEA36BE26B934210D100F0E2
:1036B00043FE20000199103000F08CFC2000FFF741
:1036C0001EFF00F08FFB002809D100F01DFE06E070
:1036D00000F032FE2000FFF712FF00F083FB01260E
:1036E00000F01EFEA36BE26B934201D3022DADD11D
:1036F0002A0039002000FFF7B5FE636A002B03D0D3
:103700002000243000F078FC002801D000F0FCFDFF
:1037100000F012FE012005B0F0BD2000FFF7EFFE23
:1037200000F060FB98E770B5482000F0A7FE041E8B
:103730000FD0002501212060C1630564FFF714FF4D
:1037400065602560E5602B002A0029002000FFF756
:103750005AFF200070BDF0B585B00400019117003C
:103760001E00002801D172B6FEE7019B002B04D198
:10377000036C002B01D072B6FEE7022E04D1E36B7E
:10378000012B01D072B6FEE700F0E4FDA36BE26B03
:103790000390934202D30025022E1AD12300453311
:1037A00002931D7832006DB201992000FFF75AFE96
:1037B0006B1C14D1636A002B01D1012509E02000A4
:1037C000243000F019FC0028F7D0002FF5D0012597
:1037D0003D60039800F0C3FD280005B0F0BD013541
:1037E000029B6DB21D70E8E7F8B504000D000028DB
:1037F00001D172B6FEE7036C002B01D072B6FEE772
:103800000368002B04D14368002B01D072B6FEE799
:1038100000F0A0FDA26BE36B06000027934216D9CF
:10382000210045310B7801325BB2A2635A1C13D1DF
:10383000636ABB4201D1012709E02000243000F077
:10384000DBFB0028F7D0002DF5D001272F603000DA
:1038500000F085FD3800F8BD01335BB20B70EAE77C
:10386000F0B585B004000F0001920093002801D14B
:1038700072B6FEE7002904D1036C002B01D072B6AA
:10388000FEE700F04BFC051E04D1019B002B5CD031
:1038900072B6FEE7002558E0636AE560002B74D03D
:1038A000200024306BE0019B002B03D100F044FD8D
:1038B00000206DE0002D02D102A800F0D9FB00F03D
:1038C0003BFD00F009FA00F02BFD22004432137892
:1038D0005BB2013301D1002313702200453213780B
:1038E0005BB2013301D10023137000F025FD01A963
:1038F00002A800F0CDFB00284CD100F011FDA36B15
:10390000002B1AD100F018FD2368002B06D100F01F
:1039100007FD606800F012FC00F00EFD2000019928
:10392000243000F057FB2000FFF7E9FD00F05AFAC1
:10393000002809D100F0E8FC06E000F0FDFC2000C2
:10394000FFF7DDFD00F04EFA012500F0E9FCA66B63
:10395000002EA8D039002000E568FFF7BEFD009BCF
:10396000002B99D12368013EA663002B02D100F001
:1039700051FC60602369002B07D02000103000F05C
:103980003BFB002801D000F0BFFC00F0D5FC01207B
:1039900005B0F0BD2000FFF7B2FD00F023FA00F003
:1039A000BFFCA36B002B00D180E700F0C5FCCBE788
:1039B000F0B585B0040002911600002801D172B65E
:1039C000FEE7029B002B04D1036C002B01D072B6E2
:1039D000FEE700F0BFFC0025A36B03900193AB4210
:1039E0001BD027000299443720003D78FFF775FD72
:1039F000019B6DB2013BA3636B1C14D12369002BA7
:103A000001D1012509E02000103000F0F5FA00286E
:103A1000F7D0002EF5D001253560039800F09FFC0B
:103A2000280005B0F0BD01356DB23D70E9E700003A
:103A3000074A13681968074B002903D10122524233
:103A40001A6070471268D268D2685268F8E7C046B8
:103A50009C00002074010020F8B50400144B154DA3
:103A60001E6828680F000430FFF7EDFC631C07D1C7
:103A7000002F05D0296810480431FFF7C1FCF8BDBC
:103A80002B6834195C60A64206D90C4B186829686B
:103A90000431FFF7C1FCF2E7094B186829680431CB
:103AA000FFF7BAFC074B1A68A242E8D91C60E6E7A8
:103AB000BC0100209800002094010020A0000020FC
:103AC0009C00002074010020F0B5970085B00190A3
:103AD00038000D00029300F0D1FC041E00D19EE0DE
:103AE000542000F0CBFC061E00D195E00463A52114
:103AF0003A00200003F0E5FD336B31000093002312
:103B00003431EA5CCA54002A02D00133102BF8D1B8
:103B1000330000250A9C43331D70062C00D906246F
:103B2000331D1800F4627464B5640393FFF765FCF9
:103B300030001830FFF761FC072332001C1B5032A5
:103B40003661B4617662F5641570009A381F1018FA
:103B50009843029A019900F0C5FB0B9B3060002B43
:103B600000D01E6000F0DCFB334B344C1A68344D3F
:103B700001321A602268002A54D126601B68012B8A
:103B800029D13048FFF72EFC2F48FFF72BFC2F4898
:103B9000FFF728FC2E48FFF725FC2E48FFF722FCF4
:103BA0002D48FFF71FFC2D48FFF71CFC2C4F380059
:103BB000FFF718FC2B48FFF715FC2B48FFF712FC0A
:103BC0002A48FFF70FFC2A48FFF70CFC294B254A2F
:103BD0001F60294B1A60294A136801331360284A71
:103BE000F36A11688B4200D9136014205843154BB7
:103BF000311D1818FFF704FC00F09EFB2B6801250F
:103C0000002B06D02368DA6AF36A9A4201D200F0E8
:103C10007BFB280005B0F0BD200000F0ADFC0125C5
:103C20006D42F6E72B68002BD5D12368F26ADB6A78
:103C30009342D0D82660CEE73001002098000020C3
:103C400090010020A4000020B8000020CC0000203B
:103C5000E0000020F4000020080100201C010020EA
:103C6000480100205C0100207C010020A801002008
:103C7000940100209C000020A000002040010020B2
:103C80004401002013B500240D4B009401938022C1
:103C900023000C490C48FFF717FF01280BD172B61F
:103CA00001220A4B52421A60094B1860094B1C60F2
:103CB00000F0A6FB13BD431CFCD172B6FEE7C04664
:103CC00070010020C9810008E93E0008740100204D
:103CD00090010020BC010020024A136801331360E8
:103CE0007047C0463C010020334BF7B51B68002BE2
:103CF0005CD1324B1D6801351D60002D11D1304B58
:103D00001A681268002A01D072B6FEE72D4A1968B7
:103D10001068186011602C4A136801331360FFF7B4
:103D200087FE2A4F00243B68AB4236D9284B1B68DC
:103D3000DA6A14235343274AD358012B00D90124AC
:103D4000254B1B68002B00D001242000FEBD1B6802
:103D5000DB68DE6873689D4226D3331D180001932B
:103D6000FFF771FBB36A002B03D030001830FFF768
:103D70006AFB1A4BF06A1A68904200D91860142343
:103D80005843144B311D1818FFF73AFB104BF26AD9
:103D90001B68DB6A9A4200D30124094B1A68126837
:103DA000002AD4D101235B423B60BFE70C4A0024C8
:103DB000136801331360C3E73C010020BC010020FD
:103DC0009C000020A0000020780100207401002049
:103DD00098000020A4000020C00100204401002021
:103DE00038010020F8B52B4C2368002B01D172B6A6
:103DF000FEE700F095FA2368013B23602468002C5D
:103E000004D0002400F098FA2000F8BD224B1B6873
:103E1000002BF6D0142601271DE0DB68DC682000AB
:103E2000251D1830FFF70FFB2800FFF70CFB1B4B7D
:103E3000E06A1A68904200D918607043184B290054
:103E4000C018FFF7DDFA174BE26A1B68DB6A9A427B
:103E500001D3154B1F60154B1A68002ADDD1002CC9
:103E600001D0FFF7E5FD124D2C68002C0AD0012689
:103E7000FFF73AFF002801D00B4B1E60013C002CDD
:103E8000F6D12C60084B1B68002BBAD000F03CFA2E
:103E90000124B7E73C01002030010020440100204C
:103EA000A400002098000020C00100207C01002018
:103EB0003801002070B5041E02D100F025FA70BD53
:103EC000084B1D68002D01D072B6FEE7FFF704FF16
:103ED00029002000FFF7C0FDFFF784FF0028ECD089
:103EE000EDE7C0463C01002070B5154C2368002B5F
:103EF00006D1144B1B68012BF7D900F005FAF4E743
:103F0000FFF7EAFE104D2E68FFF76CFF002EECD095
:103F100000F006FAEB68DD68281DFFF794FA0B4AFB
:103F20001368013B13602368013B236000F004FA2F
:103F3000286B00F021FB280000F01EFBD5E7C046EF
:103F400034010020A4000020A8010020300100203E
:103F5000F8B51B4B1A681B4B002A02D001221A60CD
:103F6000F8BD194C1A602268236812681B6B9A42CC
:103F700004D8206821683431FCF72BFE1426134D39
:103F800013492B6832005A4350180768002F10D08D
:103F900046680832766852184660964201D17268C7
:103FA000426014225A4389184A68D26822602B6002
:103FB000D6E7002B01D172B6FEE7013BE2E7C0462F
:103FC0003C010020C0010020980000204401002096
:103FD000A400002010B50C00002801D172B6FEE745
:103FE000044B19681831FFF717FA01212000FFF779
:103FF00033FD10BD98000020C36870B5DC68002C4C
:1040000001D172B6FEE7250018352800FFF71BFA2C
:10401000114B1B68002B1BD1251D2800FFF713FA3D
:104020000E4AE36A11688B4200D9136014202900FC
:1040300058430B4BC018FFF7E3F90A4BE26A1B68C1
:104040000020DB6A9A4202D9074B0130186070BD2C
:1040500029000648EFE7C0463C010020440100204B
:10406000A400002098000020C00100207C01002056
:10407000002801D172B6FEE7034B1B680360034BB7
:104080001B6843607047C04678010020BC010020D7
:1040900070B504000D00002801D172B6FEE70029BA
:1040A00001D172B6FEE700F03BF90F4B002619680C
:1040B0002B685A1C13D00D4A266810686268864225
:1040C00002D0012691420AD2881A0126834206D9DB
:1040D0005B1A9B182B602000FFF7CAFF002600F038
:1040E0002BF9300070BDC046BC01002078010020D3
:1040F0000122014B1A607047C0010020002801D145
:10410000054B1868026B0020135CA52B02D08008B9
:1041100080B270470130F7E798000020054B01207E
:104120001B68002B04D0044B1868434258414000E0
:104130007047C046900100203C010020F8B5041EE5
:1041400029D0164EC16A3368DB6A994223D283694B
:10415000002B04DB07223368DB6AD21A8261142346
:104160004B430F4D62695B199A4211D1271D3800EC
:10417000FFF769F93368D86A0A4BE0621A6890421F
:104180000AD81423584339002818FFF739F902E0F8
:104190003368DB6AE362F8BD1860F2E7980000203C
:1041A000A40000204401002070B5002801D10020A7
:1041B00070BD154B1C68844201D072B6FEE7A36C3B
:1041C000002B01D172B6FEE7E26A616C013BA36489
:1041D0008A42ECD0002BEAD1251D2800FFF733F9E5
:1041E0000722636CD21AA261084AE36211688B420B
:1041F00000D9136014205843054B2900C018FFF75D
:10420000FFF80120D4E7C0469800002044010020B8
:10421000A4000020044B1A68002A03D019688A6C95
:1042200001328A64186870479800002010B5FFF7C3
:1042300029FD002010BD7FB502690B0046680168AA
:104240000825455F92B20024842D00D0EC1C03A801
:10425000019000943000FFF737FC0023012800D1C3
:10426000039B180004B070BD10B5002800D10130C8
:10427000FFF720FE002010BD10B508000024012922
:104280000AD121000322FFF7A3F9041E04D0002362
:104290001A001900FFF7B7F9200010BD034B1B6887
:1042A000013301D072B6FEE772B6FEE704000020CB
:1042B0000B4A13681868203080F30988022080F3C5
:1042C0001488BFF36F8F3FBCAE4608BC04BC62B617
:1042D0001847C046C046C046C046C046C046C04655
:1042E0009800002010B58024031F64041C60043B68
:1042F00019600349043B1960143B40381A6010BD33
:104300009D420008704700008022044B52051A604D
:10431000BFF34F8FBFF36F8F7047C04604ED00E0CF
:1043200072B6044A136801331360BFF34F8FBFF3B3
:104330006F8F704704000020054A1368002B01D1DD
:1043400072B6FEE7013B1360002B00D162B67047E6
:1043500004000020EFF3108072B67047002080F355
:1043600010887047000000000000000000000000FE
:10437000EFF309800E4B1A6820381060F0C04446F5
:104380004D4656465F46F0C008B572B6FFF7E0FDF1
:1043900062B60CBC116808681030F0C8A046A94687
:1043A000B246BB4680F309882038F0C81847C0469B
:1043B0009800002010B5FFF7CDFF0400FFF794FC34
:1043C000002803D08022034B52051A602000FFF71B
:1043D000C6FF10BD04ED00E0FA21064B10B51868C9
:1043E0008900FBF7AFFE0722034B01381860034B2F
:1043F0001A6010BD0000002014E000E010E000E0B2
:10440000FF220A4B1204196810B50A431A60FF22F2
:10441000196812060A431A60FFF7DEFF0022044BF8
:104420001A60FFF745FFFFF739FFC04620ED00E0B7
:104430000400002010B50F4B1A68824218D35C6844
:104440001919884203D14168180009195960416857
:104450004418A24207D1084C2468A24203D05468F1
:104460001268611841600260984200D0186010BD67
:104470001300E1E774110020C4010020F8B5040026
:10448000FFF72AFC354A364D1368002B1BD1072055
:10449000344B1900034201D0191881430020324ED9
:1044A00070603160314E9B190726B3431860586025
:1044B0001360581A0B602E4B486018602D4B186023
:1044C00080231B062B602E68344242D1002C40D042
:1044D0002300072108330B4201D08B430833002B04
:1044E00037D024490D689D4233D31F490C6860685A
:1044F000984203D22768BC46002F0ED11268A24210
:1045000027D00A68170022680A60C21A102A0BD93D
:10451000E018410704D072B6FEE721006446E6E7E2
:1045200042606360FFF786FF6368124AED1A156008
:104530000F4A11688D4200D215601E433D000023D2
:10454000083566602360FFF74DFC6B0703D072B639
:10455000FEE70025F7E72800F8BDC046C4010020AB
:1045600068110020C801002074110020980F00007D
:10457000701100206C11002010B500281BD00E4ACD
:1045800008384368126804001A4201D172B6FEE787
:104590000168002901D072B6FEE793434360FFF73C
:1045A0009BFB064A6368116820005B181360FFF7E5
:1045B00041FFFFF717FC10BD681100206C110020AF
:1045C0001023F0B502680F00D16987B0019019423D
:1045D00023D0116A0B431362FF223B685C68141BF3
:1045E0001BD03B4A3B4E1578002D44D000250121BD
:1045F00015701A6830008A431A60210000F020FC10
:1046000022002900300003F05CF8FF2201213B6802
:10461000DE605A601A680A431A600822019B1B6810
:10462000D969114225D00124196AFF250A431A626B
:104630009A8C1A68274EA2431A604122996830006A
:104640000A439A601A68002122431A602A0003F084
:1046500038F83B6803201A68A2431A600A22DE6019
:104660005D6019680A431A601A6814431C6002F0FE
:1046700037FF07B0F0BD01211A6817488A431A6056
:104680002900220003F01DF822003100124803F037
:104690000FF822002900300003F013F80E4B012020
:1046A0000493FF233A6804A9D6608C805360136892
:1046B00003430A48136000682B0003AA0395FFF721
:1046C0004AF8074B03A918680395FFF78DF8A4E78C
:1046D00094000020DE160020DF150020D8140020F2
:1046E000E41300201023F7B502680C00D16906001E
:1046F00019421CD0FF27116A0B43136223685A68C2
:10470000BA1A019213D001211A681F4D8A431A6008
:10471000280002F091FE012123682800DD605F601F
:104720001A680A431A600021019A02F0CAFF08229F
:104730003368D969114225D00125196AFF260A4339
:104740001A629A8C1A68104FAA431A60412299681B
:1047500038000A439A601A6800212A431A6032001E
:1047600002F0AFFF236803201A68AA431A600A22E6
:10477000DF605E6019680A431A601A6815431D609D
:1047800002F0AEFEF7BDC046E014002080201A4AB9
:1047900010B55169800201435161536986B00340ED
:1047A00000930822002103A8009B02F08AFF022345
:1047B0000293802390201B020193042301A9C005CA
:1047C0000593FEF76FFA002210240C4B0C481A7068
:1047D00002680C49136823431360FF22FDF7CEF9EA
:1047E00009480A4903681A6814431C60FF22FDF750
:1047F000C5F906B010BDC04600100240940000206C
:10480000E8130020DE1600205C140020E0140020D5
:1048100070B51024FF2600210A4A0B4D136A2800A8
:1048200023431362094B3200197002F04AFF084813
:10483000290003681A6814431C603200FDF79EF9D2
:1048400070BDC046004C0040DE16002094000020E1
:10485000E813002070B50D00060002F0B3FB0B4C0E
:104860000321207080204042304360702000A570FA
:1048700002F040FD0122064BE070000A20711A7020
:10488000210004320348FDF731F970BDE017002024
:1048900094000020E8130020F0B5437987B0C47974
:1048A00001938379240206211C430700C678057909
:1048B00002F020FD844204D001F054FC01F05AFCC7
:1048C00049E002F07FFB0222019B2D022B43019362
:1048D000013BDB10274C0133DBB2207062701D1CE2
:1048E000934200D9151CEDB201232A00029600263E
:1048F0009A430392B54221D8019BE9008B420ADA20
:104900001800FBF78FFD0823FF22591A0A41AE1C3D
:10491000A35D1340A355AEB2F11C2000A57002F0B8
:10492000E9FC01226519144BE870000A28711A701D
:104930002100721D1148FDF7D9F8BFE7029B9819B5
:1049400004ABC0B2991D00F0CDFA002805DAC1B25F
:104950007878FFF77FFF07B0F0BD04ABDB88054A2E
:104960000399D3708E42C7D01B0A02361371F6B278
:10497000C0E7C046E017002094000020E8130020A4
:10498000F0B5837887B00193C378C77902938379B0
:104990003F0206211F4305000479467902F0AAFC74
:1049A000874204D001F0DEFB01F0E4FB67E002F097
:1049B00009FB0323334F7B703B00FC33387058688E
:1049C0000028F1D000230A221900FEF749FF012830
:1049D00046D12402344303940024019B029A1B0213
:1049E0001A430192A3B20293039BA2B2934223D82B
:1049F0000026244F00233800FC301A0019004068BC
:104A0000FEF701FE002C34D0029B64005D00ADB2C5
:104A1000E91C89B23800BC7002F06CFC01223C1920
:104A2000194BE0700535000A20711A703900AAB2DE
:104A30001648FDF75BF8B7E7019BA2B2981804ABE4
:104A400080B2991D00F08AFA061ED2D104ABDA8832
:104A50006300FB18110A0134D9701A71E4B2C1E77E
:104A6000042002F03DFD0423094A51690B435361C0
:104A70009AE7F1B2002997D06878FFF7EBFE07B00C
:104A8000F0BDC046E017002094000020E81300208D
:104A9000000C0048F0B5837887B00093C378C479E0
:104AA00001930379240202934379062103938379C6
:104AB00007001C4302F01EFC844204D001F052FBAC
:104AC00001F058FB2FE002F07DFA304E0425330050
:104AD000FC33307098687570002855D000230A2286
:104AE0001900FEF7BDFE012832D100252C00029BE3
:104AF000039A1B021A43009B0292019A1B021A435B
:104B00000092029BA0B283420FD830000023FC30F9
:104B10001A0019008068FEF776FD002D20DAE9B250
:104B20007878FFF797FE07B0F0BD009B181804AB2C
:104B300080B2991D00F060FB051EE6DB04ABDA884D
:104B40006300F318110A0134D9701A71E4B2D8E77E
:104B50000024052002F0C4FC0D4B5A6915435D6129
:104B60006400A5B2E91C3000B47002F0C3FB01225E
:104B70003419084BE070000A20711A7031006A1D68
:104B80000548FCF7B3FF9BE70400E9E7E0170020C6
:104B9000000C004894000020E8130020F0B5837852
:104BA00085B00193C378C579029343792D020393AD
:104BB000837906211D430400067902F09BFB8542A0
:104BC00004D001F0CFFA01F0D5FA47E0244D2F00D0
:104BD000FC37786800283BD000230A221900FEF732
:104BE0003FFE009001282BD1039B31021943019B0A
:104BF0001802029B184301F023F9002306001A0053
:104C000019007868FEF7FFFC002E23D102F0DAF9D4
:104C1000062328706B70A378009AAB70E3782900A4
:104C2000EB7023790F482B7163796B71A379AB71AA
:104C3000E379EB710C4B1A700822FCF757FFC2E7BF
:104C4000042002F04DFC0423084A51690B435361D0
:104C500001267642F1B26078FFF7FCFD05B0F0BDA9
:104C6000E0170020E813002094000020000C00480A
:104C7000F0B5C37885B0039101938179037906007B
:104C8000029343181C7ADB79240207311C4387788E
:104C9000457902F02FFB844204D001F063FA01F061
:104CA00069FA32E002F08EF910232F4C6370230072
:104CB000FC3320705868002823D000230A221900F2
:104CC000FEF7CEFD012831D1029B3F021B022B4390
:104CD00000250293019B1F43029BA8B2834206D981
:104CE0006B00039A0733DBB2023A93420FDB2000DA
:104CF0000023FC301A0019004068FEF784FC002DE8
:104D00001DD170780321FFF7A5FD05B0F0BDF25C61
:104D1000F3185978400012023818114380B201F09C
:104D20008FF80028E3D10135EDB2D5E7042002F079
:104D3000D7FB04230D4A51690B435361E1E7B37874
:104D40000621A370F3782000E370002365712371BE
:104D500002F0D0FA0122064BE0801A7021000732DF
:104D60000448FCF7C3FE9AE7E0170020000C004857
:104D700094000020E8130020F8B504000D00072976
:104D80001AD9067802F038F9002811D0012E13D173
:104D900001F0F8F96378981E0E2846D8FBF7BEF9A3
:104DA0000D11154519451D454545454545454000ED
:104DB00002F008F9B042EBD0F8BD2000FFF76CFD1F
:104DC000FAE72000FFF7DCFDF6E72000FFF762FEC0
:104DD000F2E72000FFF7E2FEEEE7E679A37936027C
:104DE0001E43082702F0EEF80023124D062128701A
:104DF0006F706B80237928002B7163796B7102F0DF
:104E000079FA864202D001F0ADF9D5E701220A4BCA
:104E1000EE801A7029003A000848FCF767FECBE7DD
:104E2000E9B22000FFF724FFC6E701211800FFF7D1
:104E300011FDC1E7E017002094000020E8130020D6
:104E4000002370B5064A8B4205D2C55CD45CA542EE
:104E500002D001F09FF970BD0133DBB2F3E7C04629
:104E6000E017002070B50A4C2500FC35AB68002B1C
:104E700003D10120FEF757FCA860FC346368002BC7
:104E800003D10120FEF74FFC606001F01BFC70BDF8
:104E9000E0170020004870472955000010B5FDF7C5
:104EA000FBFEFA218900FBF74DF9094A936883421A
:104EB00002D9138A01331382118A064B90604B4347
:104EC000D1685B18181800239061D36110BDC046EB
:104ED0003019002037894100014B98697047C0465E
:104EE000301900200223192804D1034B0433DB8F2F
:104EF0000B8000231800704730190020902210B555
:104F000008240C49D20510690B690969DB082340A4
:104F10004909043C21400B43032112690140120A54
:104F20000B43A240FF210A401343034A1219D387BF
:104F300010BDC046000800483019002010B5FFF72A
:104F4000DDFF054B1A1DD18F9A8F02330A40998FCE
:104F50000A43DA8710BDC0463019002010B50C0096
:104F60006D2800D93FE1FBF7E3F86E007100710096
:104F7000710073007600710078007C007F0088006B
:104F80008B008E009100940097009A009D00A00075
:104F9000A300A600A900AC00AF00B200B500BB00A2
:104FA000BE00C000C500C800CB00CE00D100D400B8
:104FB000D800DB00DE00E100E400E800EC00EF00D8
:104FC000F200F500F800FC000001040108010D01E9
:104FD0001101150119011C012101250129012C01D3
:104FE0002F0134013E013E013E013E013E013E01E2
:104FF0003E013E013E013E013E013E013E013E01B9
:105000003E013E013E013E013E013E013E013E01A8
:105010003E013E013E013E013E013E013E013E0198
:105020003E013E013E013E013E013E013E013E0188
:105030003E013E013E013E013E013E013E013E0178
:105040003E013E013901694B238014E00123FBE757
:105050000020088010BDA423F6E7654B9B691B0C5C
:10506000F2E7634B9B69EFE7FDF716FEFA21890033
:10507000FBF7EEF821800020ECE75D4B1B8CE3E7AB
:105080005B4B5B8CE0E75A4B5B6AE8E7584B5B6A2B
:10509000DAE7574B9B6AE2E7554B9B6AD4E7544BE0
:1050A000DB6ADCE7524BDB6ACEE7514B1B6BD6E782
:1050B0004F4B1B6BC8E74E4B5B6BD0E74C4B5B6BAE
:1050C000C2E74B4B1B78BFE7494B5B68C7E7484BD0
:1050D0005B68B9E7FFF712FF454B0433DB8FB3E79B
:1050E000434B9B8FB0E7424BF8E7FFF727FF404B5E
:1050F0000233F3E73E4B4433E4E73D4B0833EDE73F
:105100003B4B9B6CABE73A4B9B6C9DE7384B743346
:10511000D8E7374B76331B8896E7354B9B6F9EE776
:10512000334B9B6F90E7324BA433CBE7304BA63326
:10513000F1E72F4BA8331B6891E72D4BA8331B6871
:1051400082E72B4BD433BDE7294BD633E3E7284B1B
:10515000D833F0E7264BD833F1E7254BFF335B79A3
:1051600072E7234BFE331B896EE7214BFC33DB6870
:1051700075E71F4BFC33DB6866E79A231C4A5B002C
:10518000D35C61E71A4BFE331B8F5DE7184BFC3392
:10519000DB6B64E7164BFC33DB6B55E7144AB22339
:1051A000EDE7B323124A5B00D35A4DE7104BFC33B3
:1051B000DB6E54E70E4BFC33DB6E45E70C4ACA232B
:1051C000DDE70B4ACB23EEE7CC23094A5B00D3583B
:1051D00045E7CC23064A5B00D35835E7054B5B69AE
:1051E0009B04DB0F30E7022034E7C046295500005E
:1051F00030190020000400483D3800B502232F2854
:105200001ED84C4BFAF78AFF181E20232527292B7E
:105210002D30333537393B3E41434547494B4D4FA0
:105220005154575A5D6063666A6D707376787A7D03
:10523000808386888A8E92944C331B880B8000234F
:10524000180000BD4E33F8E71B6D1B0CF6E71B6D15
:10525000F4E75B6DF9E75B6DF0E77C33EDE77E33F8
:10526000EBE70433DB6FF0E70433DB6FE6E708338B
:10527000F8E70833F9E7AC33DFE7AE33DDE7B03307
:105280001B68E2E7B0331B68D8E7B433F8E7B43300
:10529000F9E7DC33D1E7DE33CFE7E033F0E7E033A3
:1052A000F1E7E433ECE7E433EDE7FE33DB89C5E710
:1052B000FE331B8AC2E7FC335B69C6E7FC335B69DC
:1052C000BCE7FC339B69C0E7FC339B69B6E7FE3360
:1052D000DB8FB3E79F2252009B5AAFE7FC335B6C36
:1052E000B3E7FC335B6CA9E7FC339B6CADE7FC33A5
:1052F0009B6CA3E7B622EEE7B722ECE7FC335B6FCB
:10530000A3E7FC335B6F99E7FC339B6F9DE7FC33AE
:105310009B6F93E7CE22DEE7CF22DCE7D02252005C
:105320009B5892E7D02252009B5887E7D222F6E79B
:10533000D222F8E7301900203022504310B5034B39
:105340004430C018002102F0BCF910BD3019002013
:1053500010B586B004001422002101A802F0B1F9B2
:10536000302262431B4B9B1801220833DB8F134012
:105370005A42534101330393072C1BD82000FAF7FC
:10538000CDFE040E101B1D20232601219020C005F8
:105390000191FDF743FD902001A9C00508E002211D
:1053A000F4E780210C480191FDF738FD0A4801A976
:1053B000FDF778FC06B010BD4021F3E780214900DD
:1053C000E4E780218900E1E78021C900DEE7802150
:1053D0000901DBE73019002000080048302343436F
:1053E0000448C018020001230830C18F4E328B439D
:1053F0001380704730190020302319004143074AB9
:1054000030B551180C0002250834E48F2C4000D12F
:105410008C644343D3189A6C1A6530BD3019002050
:1054200013B5144C23003D331B78012B21D00022EF
:1054300004211220FDF788FE1220FDF7AFFE202088
:105440000D4AD1690143D161D36903400193019BA6
:105450000A4B200023600A4BE360032363600023B0
:105460002361A360FCF7F6FA002802D12000FCF7C4
:10547000F0F913BDF81A002000100240001400409B
:10548000FFFF000070B58AB004001422002105A8B7
:1054900002F017F9354B0122069330236343344E53
:1054A000344DF3180833DB8F134059424B419B189E
:1054B0000793314B944223D88020596980020143DD
:1054C00059615B69A24003409020019305A9C00582
:1054D000019B0592FDF7E6FB2023C1222B60920081
:1054E000AB5826490B40AB50FFF79AFF30235C4383
:1054F00036193200002358321380F3650AB070BDAC
:10550000022C16D180215A6909030A435A615B694A
:105510000B400293029B80231948059305A9FDF7D0
:10552000C1FB8023C1222B609200AB581B021B0AD7
:10553000D9E7032C0AD180215A6909030A435A6129
:105540005B690B400393039B4023E5E78020596987
:105550008002014359615B6905A903400493049BE0
:10556000231D9A4090200592C005D8E70000111035
:105570003019002000E100E000100240FF00FFFFB2
:1055800000080048F0B505008DB0A34C012800D9F3
:10559000B3E0802054220021C00502F092F880215F
:1055A0009E4E8902726901270A43726173699020D5
:1055B0000B400193019B00230A93123308931E337F
:1055C0006B43E3180833DB8F39003B405A425341A9
:1055D000DB19A94009930223C0050B930791FDF73E
:1055E0001DFC902007A9C005FDF75CFBF3693B4358
:1055F000F361F3698A4E1F400297029B894B802713
:10560000F360032373600023FF05300037603361CC
:10561000B360FCF71FFA002803D0012040420DB010
:10562000F0BDFB68804A13407722FB60BB68934360
:10563000BB603B6A7D4A13403B62230044331B78C6
:10564000052B01D0002D1AD18023DB059A697849FA
:1056500001200A409A61312299690A439A611A6AC3
:10566000022102431A6222000832D28F02423DD048
:105670001A6A0A431A620222D9680A43DA602300CE
:1056800074331B78052B01D0012D1BD18023DB0542
:105690009A6967490A409A61C422996992010A434A
:1056A0009A611022196A0A431A622200763211881E
:1056B0002022C9071DD5196A0A431A620422D96833
:1056C0000A43DA603000FCF7C4F80F2000220421FE
:1056D000FDF73AFD0F20FDF761FD30235D436419AE
:1056E0002300002058331880E06598E71A6A8A433F
:1056F000C0E7196A91431962E0E7831E012B00D9C4
:105700009EE08021454E090372690AA80A4372612E
:10571000736908220B4003930021039B01F0D1FF22
:105720008021022D00D040391223012208931E331C
:105730006B43E3180833DB8F3E4813405A42534112
:10574000013309930791FDF769FB07A93948FDF774
:10575000A9FA0221F269384F0A43F261F369374E20
:105760000B400493049B2F4B3000F36003237360C2
:10577000002337603361B360FCF76CF9002800D078
:105780004BE72200D4321278052A01D0032D14D120
:105790003122B9690A430121BA613A6A0A433A627D
:1057A0002200A6321088022208422DD0396A0A430C
:1057B0003A620222F9680A43FA602200A43212789F
:1057C000052A01D0022D15D1C422B96992010A43DC
:1057D000BA611022396A0A433A622200A63211885D
:1057E0002022CB0714D5396A0A433A620422F968A9
:1057F0000A43FA603000FCF72CF810200022042144
:10580000FDF7A2FC102066E7396A91433962D0E7C0
:10581000396A91433962E9E73019002000100240EB
:10582000EC180020FFFF0000F0F9FFFFFFFEFFFF74
:105830000CFCFFFF0008004800040040901200200C
:10584000031F032B00D948E754220021754801F0BB
:1058500038FF8021744E8902726930200A437261D8
:105860000122736994460B40110068430593201888
:10587000059B08302B1D9940C38F6046034058425A
:1058800043419020002792186344C0050892099371
:105890000B9207910A97FDF7C1FA902007A9C0055E
:1058A000FDF700FA8021B26909010A43B261B369C8
:1058B0005E4E0B400693069B5A4B300033605C4BA8
:1058C0003761F3600323B7607360FCF7C3F8554B8F
:1058D000B84200D0A1E6DA68564957480A40772115
:1058E000DA609A688A439A60996901409961DA6935
:1058F0000240DA612200FF325279052A01D0042DDC
:1059000014D1312299690A4301219A611A6A0A4322
:105910001A622200FE3210890222084272D0196AED
:105920000A431A620222D9680A43DA609A225200B4
:10593000A25C052A01D0052D15D1C42299699201D6
:105940000A439A611022196A0A431A622200FE323F
:10595000118F2022C90759D5196A0A431A620422F5
:10596000D9680A43DA60B2225200A25C052A01D04B
:10597000062D16D13122D9690A43DA618022196ACB
:1059800052000A431A62B3225200A25AD20741D5EA
:105990008022196A92000A431A620822D9680A43CF
:1059A000DA60CA225200A25C052A01D0072D17D165
:1059B000C422D96992010A43DA618022196A52012C
:1059C0000A431A62CB225200A25AD20726D580225D
:1059D000196A92010A431A621022D9680A43DA60EE
:1059E0003000FBF736FF002204210D20FDF7ACFB51
:1059F0000D20FDF7D3FB0E2000220421FDF7A4FBB0
:105A00000E2068E6196A914319628BE7196A91437F
:105A10001962A4E71A6A09490A40BDE71A6A0849E7
:105A20000A40D8E7002C0140001002409C130020DF
:105A3000FFFF0000E0F9FFFFFCFCFFFFFFFDFFFFA1
:105A4000FFDFFFFF3023F0B5012443439A4A8DB0B6
:105A5000D3180833DE8F0093031F05002640A342AE
:105A600000D996E08020954B00019969944C014340
:105A7000996180219A69890202400392039A5A69C6
:105A800020000A435A615B6954220B4004930021B1
:105A9000049B01F016FE03238A488B4F43600023CA
:105AA0000460C76003618360FBF7D4FF00970028A0
:105AB00000D0FEE08021042D41D089003023012751
:105AC0006B437D480222C3180833DB8F08923B40AA
:105AD000584243419020DB19C00509930B9207916E
:105AE0000A97FDF79BF9902007A9C005FDF7DAF8A2
:105AF00077222368BB432360A3689343A360A36911
:105B0000724A13407322A361E3699343E361236AFA
:105B10006F4A13402362E3684432FF329343E360E9
:105B2000A269042D0DD16B4B1343A3615423A268CA
:105B30001343A360226A002E0ED013230DE0490008
:105B4000BCE781235B001343A3616423A268134372
:105B5000A360226A002EF0D031230E251343236266
:105B6000E36828002B43E360009B0421E363802368
:105B7000226A5B00134323620123226813432360DC
:105B80000022FDF7E1FA2800FDF708FB00200DB028
:105B9000F0BD012800D98CE080218027474B890285
:105BA000DA69FF052243DA61DA693800224005929A
:105BB000059A5A690A435A615B6954220B4006935D
:105BC0000021069B01F07DFD43483F4B0760C36009
:105BD00003234360002303618360FBF73BFF3A4BE1
:105BE0000193002865D129004B1E9941009B022298
:105BF000DB8F013123405842434190200133C005DF
:105C0000089209930B9207910A94FDF707F99020E7
:105C100007A9C005FDF746F83B682C4AA3433B6043
:105C2000BB6913407322BB61FB699343FB61BB6893
:105C300004329343BB603B6A254A13403B62FB68D6
:105C40004432FF329343FB60BA69002D0BD1214BE4
:105C50001343BB615423BA681343BB603A6A002EF6
:105C60000CD013230BE081235B001343BB6164233F
:105C7000BA681343BB603A6A002EF2D03123134353
:105C80003B6280230E22DB05D9680F200A43DA60CD
:105C90000D4ADA638022196A52000A431A6201220D
:105CA00019680A431A6004210022FDF74DFA0F20FB
:105CB0006AE7012040426AE73019002000100240E4
:105CC000002C01409C130020FFFF0000FCFCFFFFA4
:105CD000CCFEFFFF01020000EC18002000B50529F2
:105CE00027D107284DD8FAF719FA070F040412171D
:105CF0001B1B0023180000BD234B74331B78063B8D
:105D0000584243415B42F5E71F4B4433F6E79A2381
:105D10001D4A5B009B5CF2E71B4BFF335B79EEE7B0
:105D2000194B1A00FF325279062A2AD09A225200C1
:105D3000F0E700230629DDD1052822D8FAF7EEF98D
:105D4000030A21210D1C104B74331878042383425D
:105D50009B41CFE70C4B4433F7E79A220A4B5200A2
:105D60009A5C042A0DD8B22252009A5C042A08D800
:105D7000CA225200985CE9E7034B1A00FF325279BD
:105D8000EFE70123BEE7C04630190020302343432C
:105D900070B52A4D0400EB1844331E784B1C00D01C
:105DA000CEB20320062E3AD83000FAF7B7F9041520
:105DB0001C262A2E3D002000FFF7BEFA2000FFF728
:105DC000C7FA30235C432D192B0044331E70FF2388
:105DD00045352B70002022E02000FFF7B9FA2000A3
:105DE000FFF7FCFAEDE72000FFF7B2FA2000FFF71B
:105DF000F5FA2000FFF700FBE3E72000FFF7A8FA21
:105E0000F7E72000FFF73EFBDBE7C9B22000FFF712
:105E100065FF002804D007206B6B01336B6370BDF6
:105E20002000FFF7AFFBCCE7C9B22000FFF756FF19
:105E30000028F0D12000FFF705FEC2E7301900204E
:105E4000163870B5572800D97FE1FAF771F93E018D
:105E5000460152017E0158005F007E0162006B0026
:105E60006F00730079008000840088008E00950028
:105E700099009E00A500AC00B000B500BC00C300B6
:105E8000C700CC00D300DC00E100E600ED00F70025
:105E9000FD0003010A01100116011D017E017E01B2
:105EA0007E017E017E017E017E017E017E017E01FA
:105EB0007E017E017E017E017E017E017E017E01EA
:105EC0007E017E017E017E017E017E017E017E01DA
:105ED0007E017E017E017E017E017E017E017E01CA
:105EE0007E017E017E017E017E017E017E017E01BA
:105EF0007E017E017E017E017E017E012501944BA3
:105F0000998780235B000022012101E1904BD98712
:105F1000F7E7062901D9032070BD8D4B4533197071
:105F20000123F0E78A4B0833D987F9E7884B090446
:105F30009964F5E7864B9A6C100C00040143F7E76F
:105F40000629E8D8824B753319700223DBE7804BB2
:105F500076331980F9E77E4B09049967F5E77C4BA6
:105F60009A6F100C00040143F7E70629D3D8784B49
:105F7000A53319700423C6E7754BA6331980F9E7DA
:105F8000734B0904A8331960F4E7714BA8331A68FE
:105F9000100C00040143F6E70629BCD86C4BD5333E
:105FA00019700823AFE76A4BD6331980F9E7684BBD
:105FB0000904D8331960F4E7654BD8331A68100C1C
:105FC00000040143F6E70629A5D8614BFF33997118
:105FD000102398E75E4BFE331981F9E75C4B090407
:105FE000FC33D960F4E75A4BFC33DA68100C000438
:105FF0000143F6E7062900D98DE73623544AFF33DB
:10600000D154163B18E0524BFE33198720237AE710
:106010004F4B0904FC33D963F8E74D4BFC33DA6B83
:10602000100C00040143F6E7062900D973E7662344
:10603000474AFF33D154263BFF3B64E7B323444A2E
:106040005B00D152273BF7E7414B0904FC33D9668B
:10605000402358E73E4BFC33DA6E100C000401433A
:10606000F5E7062900D956E7394A9623C7E7CB2337
:10607000374A5B00D152173BDEE7CC23344A090490
:106080005B00D150193BD7E7CC23314A5B00D05895
:10609000000C00040143F4E72E4D002911D0E22347
:1060A00000242B4A5B00D4540122230010002A490B
:1060B00001F090FA80236A699B0113436B61002011
:1060C0002AE76B69254A1340F8E7E222204B520089
:1060D0009A5C002AF3D0197013E7E2231C4A5B0094
:1060E000D35C002BEBD0536809049BB20B43536085
:1060F000E5E7E222164B52009A5C002ADFD05A688C
:10610000100C000401435960FBE60132082A0FD04D
:106110001C001441D0B20C42F7D030234521534328
:106120000B4AD2185156FFF731FE002800D0F2E694
:1061300000F092FF0028C2D0022001F0D1F9042023
:10614000074A536903435361E6E60220E4E6C0468A
:10615000301900200004004899660008FFDFFFFFA7
:10616000000C0048024A136B013313637047C046AA
:1061700030190020024AD36A0133D3627047C04607
:1061800030190020024A936A013393627047C04677
:1061900030190020024A936B013393637047C04665
:1061A00030190020F7B530244443224E012534191C
:1061B000230007004E331B8858342B400193FEF711
:1061C000BDFEB31CDB8F019A3B411D40AA4207D1A3
:1061D0002388002B01D10020FEBD013B2380FAE77C
:1061E00022883E2A01D80132228030225743F619F4
:1061F000310032000120583108320C8803403F251D
:10620000D28F002B0AD0520A2A40A242E3D24E3645
:1062100033880343338000230B80DDE7D2082A4014
:10622000A242D8D24E3632880B808243012032807F
:106230004042D1E73019002030234343064A012170
:10624000D3180432D28F4C3302410A405A601A8864
:1062500052181A807047C04630190020302343433B
:106260000548C01803004E331B884C304360038838
:10627000013303807047C046301900203023434368
:10628000F0B5164C0121E3181D001A004E352E887A
:1062900008323700D28F0F4091438F4208D1996C5A
:1062A000013199641965002902D10D4931432980D2
:1062B00030235843201801004C310B8801330B80E8
:1062C00002210A4208D004004E34238808305B04BF
:1062D0005B0C8A432380C287F0BDC0463019002082
:1062E0000080FFFFF8B51B4C0600A569FEF726FEEF
:1062F00030231A007243A218D16D002900D1D56550
:106300007343E3181A000832D18FA21CD28F324196
:106310004A40D2070DD49A6CDF6D186DAA18D21BB3
:106320009A641A65824204D24E3318880A4A02439C
:106330001A80302302225E43A419E565114208D079
:1063400020004E30038808345B045B0C91430380CB
:10635000E187F8BD301900200080FFFF30230022C4
:106360005843044B1B181A655A65034BC0188260CA
:106370007047C046301900208019002030B501391F
:1063800000290DD00300002207E01C685D6801327F
:10639000AC4201DD1D605C6004338A42F5D3EEE758
:1063A00030BD000030B530254543134985B010227B
:1063B0006918684601F07CF904216846FFF7DEFFA2
:1063C000019C029AA418012C0DDD0C496422086876
:1063D00049680023FAF74CF862109200D317FAF7D5
:1063E00027F805B030BD0123054840194E3002881A
:1063F000134303800020F4E79019002008000020D8
:106400003019002010B50400FFF7CCFF30235C43A7
:10641000014B1B19186510BD301900203022424372
:106420006149F0B58A184432137887B0062B5CD1E5
:1064300001285FD8C133FF33CB5A00935B0554D595
:10644000002854D1594D5A4F30234343CB181A00DA
:1064500058335A3212881B8811041E042C68891A7A
:10646000F61A7618341904943C68091905912968BC
:10647000002901D11A4330D08023DB059C6A3023E8
:106480004343494E4B49F618086849680193642212
:106490000023F9F7EDFF02900391601C0024049A99
:1064A00023002100F9F7E4FF02000B000298039992
:1064B000F9F7BEFFFA22306592000023059821000B
:1064C000F9F7D6FF2300049AF9F7B2FF019B706534
:1064D00039482C6018183C608460384B009A324967
:1064E0001A401300E32252008B5207B0F0BD304D2A
:1064F0002E4FA9E7031F012BF7D8E3235B00CB5AEC
:1065000000939B05F1D504284BD12D4D2D4F302301
:106510004343CB181A0058335A3212881B8811048F
:106520001E042C68891AF61A7618341904943C68EB
:10653000091905912968002901D11A432FD0224B4E
:10654000194E9C6A302343431A49F6180868496873
:10655000019364220023F9F78BFF02900391601CE2
:106560000024049A23002100F9F782FF02000B00A7
:1065700002980399F9F75CFFFA2230659200002334
:1065800005982100F9F774FF2300049AF9F750FFEA
:10659000019B706508482C6018183C6084600B4BA8
:1065A0009CE7084D064FB2E7301900203400004048
:1065B000380000400800002080190020FFEBFFFF9A
:1065C000342C0140382C0140002C0140FFF5FFFF26
:1065D00070B50024194D287806280AD8F9F79EFDD1
:1065E000040F182109252900FEF7A8FC2000FFF759
:1065F00023FE0134E4B23035082CECD170BD20000C
:10660000FFF7D0FD0028F4D02000FFF727FEF0E7C9
:106610002000FFF7C7FD0028EBD02000FFF72EFE7B
:10662000E7E72000FFF75EFEE3E72000FFF7EAFE62
:10663000DFE72000FFF7F2FEDBE7C0467419002019
:1066400070B5051E02D10120404270BD1D20FCF72F
:10665000AFFD104C2000FBF72BFA0C2300216361E7
:1066600013331A002000A160E1602161A161E161A2
:10667000216261626560FBF7C5FE2000FBF77CFDCF
:10668000041EE0D1FEF7C4F81D20FCF787FD2000B2
:10669000DBE7C046E8130020E2230021064A5B0046
:1066A00010B5D154054906484B6903404B61506809
:1066B000FFF7C6FF10BDC046301900200004004897
:1066C000FFFEFFFF70B5FEF719FC012300241C4DEF
:1066D0005B42AB87C633FF33EC541A4B5B686B608D
:1066E00000F052FDA04227D00426012000F0F8FE61
:1066F000154A21005369200033435361FFF746FBDD
:1067000021000120FFF742FB21000220FFF73EFBA2
:1067100021000320FFF73AFB21003000FFF736FB92
:1067200021000520FFF732FB21000620FFF72EFB9A
:1067300021000720FFF72AFB6868FFF781FF70BD83
:1067400030190020E8130020000C00483023434398
:10675000094830B5C018856C0120002D0AD0541AA4
:10676000914200D98C1A002318009C4202DBA542FA
:106770005B41D8B230BDC04630190020802203688A
:1067800010B5D20593421AD11F4B1A004432147827
:10679000027F012A07D1C632FF32985A8021062C87
:1067A00009D1C90008E0022A08D1C532FF32985A3F
:1067B0008021062CF5D149010143995210BD134A9D
:1067C0009342FBD1104A1300FF335B79063B591EFD
:1067D0008B41017F0433012909D1C631FF31505A61
:1067E000042B0BD1FD33FF3303435352E6E7022959
:1067F000E4D1C531FF31505A042B02D180231B0153
:10680000F2E780239B00EFE730190020002C0140C5
:10681000F0B50C681A4923005218343392009A18C4
:10682000184B15889C463023434363441A00583262
:106830001188154AADB291421BD81E000322703652
:10684000E76A34787943144009324243DF6D121904
:1068500016329200C91B62444919013491603470A8
:10686000302343430748C0180023C56558300380D0
:10687000F0BD01224E3319880A431A80F0E7C04662
:10688000FFFFFF3F30190020FF050000010000223C
:1068900070B5037F002B1CD10B682E48834229D191
:1068A0002D4C2300FF335B79062B04D09A235B0029
:1068B000E35C062B11D10800FFF760FF2300FF33D4
:1068C0005B79063B5A1E93411A1D30235343E4184B
:1068D0000BE001325B08D2B2DCE7D51CEDB2280038
:1068E000FFF796FF30235D4364194C34238801334E
:1068F000238070BD8020C005834217D1164C230031
:1069000044331B78062B04D0230074331B78062BEA
:106910000AD10800FFF732FF230044331B78063BFF
:106920001A00531E9A41D0E7551ED7E70B48834201
:10693000DFD1541E6042444102342000FFF768FF5B
:1069400030204443044800194C300388013303804D
:10695000CFE7C046002C0140301900200004004061
:10696000F7B5302242432C4B0D009B181A00DC6D0A
:10697000583206001188A54249D8002947D1802203
:106980005202AA18141B01224E3319880A431A8096
:10699000224B23499F6A6422086849680023F9F75B
:1069A00067FD7A1C624330240023F9F741FD7443EC
:1069B000194B07001C190191206D6421F9F7C2FBE6
:1069C00000230090642238000199F9F731FD4E341C
:1069D0000100009A3000FFF7B9FE238801211A0058
:1069E0008A43002801D10A001A4330235E430A4B30
:1069F0009E1933004E331A80320037654C321388AB
:106A0000583601331380002375603380F7BD0904C5
:106A100049190C1BBCE7C046301900200014004087
:106A20000800002003681C4A10B593421BD11B4A82
:106A30001B491300FF3358790638431E9841E3235E
:106A40005B00D45A973B0430FF3B4343D3182405E3
:106A50001FD558331A88013292B21A808A4201D95E
:106A6000FFF77CFC10BD8022D2059342FAD10B4A7D
:106A70000B491300443318780638431E9841E3232A
:106A80005B00D45A973BC0B2FF3B4343D318E404A6
:106A9000DFD45A33DEE7C046002C01403019002015
:106AA000FF0500003023434307480849C01802008F
:106AB000583213888B4202D8013313807047002369
:106AC00003654365F9E7C04630190020FF05000063
:106AD0001E4B026870B505009A420CD104241C4E6E
:106AE0003378042B02D92000FFF7DCFF0134E4B235
:106AF0003036082CF4D180232A68DB059A420FD166
:106B0000144C230044331B78042B02D90020FFF7D8
:106B1000C9FF74342378042B02D90120FFF7C2FF88
:106B20000D4B2A689A420FD10A4C2300A4331B78DC
:106B3000042B02D90220FFF7B5FFD4342378042BAD
:106B400002D90320FFF7AEFF70BDC046002C014004
:106B5000341A0020301900200004004070B50024D1
:106B6000064D2B78042B02D12000FFF79BFF013448
:106B7000E4B23035082CF4D170BDC0467419002041
:106B800030234B430B49C9180B0044331B78037067
:106B90000B0046331B7843700B0048310A784733AB
:106BA0001B78C2704A78837002718A784271CA7801
:106BB000827170473019002070B504000D00002864
:106BC00008D1062000F08CFC0423134A51690B43C2
:106BD000536170BD002141562800FFF7D7F8002807
:106BE000EFD1302169430D4B227859180B00443303
:106BF0001A700A00A37860781B0208320343D38717
:106C00002279E37812021A4363791B041A43A379A9
:106C10001B0613438B64DCE7000C0048301900208E
:106C2000484BF0B51A78FF210270002242702932D9
:106C300082702C32C2709A691F001600150C140A5B
:106C40000E400C40120E2940067144718171C271D0
:106C50005D1CED7F28373F7805729D1CED7F8773A3
:106C60001F0029373F784572C7731F002A373F78C6
:106C7000050007741F002B373F781E3547741F002F
:106C80002C373F7887741F002D373F78C7741F005B
:106C90002E373F7807751F002F373F7847751F0045
:106CA00030373F7887751F0031373F78C7751F0031
:106CB00032373F7807761F0033373F7847761F001B
:106CC00034373F7887761F0035373F78C7761F0007
:106CD00036373F7807771F0037373F7847771F00F1
:106CE00038373F7887771F0039373F78C7771F00DD
:106CF0003A373F78AF701F003B373F78EF701D0089
:106D00003C352F78C51CEF771D003D352F78051DCC
:106D1000EF771D003E352F78451DEF771D003F357D
:106D20002F78851DEF77867242731A79C4720173CA
:106D30002A3002705A7942709A79DB798270C37076
:106D4000F0BDC0463019002010B5154C1548E1685B
:106D500000F03EFB218C144800F03AFBA16A134876
:106D600000F036FBE16A124800F032FB216B11485B
:106D700000F02EFB616B104800F02AFBA16B0F485E
:106D800000F026FBA18F0E4800F022FBE18F0D489A
:106D900000F01EFB616A0C4800F01AFB10BDC046F3
:106DA000301900203D8300085083000863830008E9
:106DB00074830008878300089A830008AF83000863
:106DC000C0830008D2830008E383000870B52E4812
:106DD00000F0FEFA2D4B2E48596800F0F9FA2D4CC0
:106DE0002D4823000833DA8F230044331978A36C2D
:106DF00000F0EEFA230076331A88230074331978F2
:106E00002648A36F00F0E4FA230022002100A833F3
:106E1000A632A431128809781B68214800F0D8FAFC
:106E2000230022002100D833D632D43112880978C9
:106E30001B681C4800F0CCFA250026002300FC3516
:106E4000FE36FF33328959791748EB6800F0C0FAF3
:106E50009A235B00328FE15C1448EB6B00F0B8FAC8
:106E6000B3235B00E25A023BE15C1148EB6E00F099
:106E7000AFFACB235B00E25A023BE15C0433E358F8
:106E80000C4800F0A5FA70BDCE810008E813002080
:106E9000FB810008301900200D82000833820008B1
:106EA000598200087F820008A5820008CB82000872
:106EB000F1820008178300084278037812021A430F
:106EC0003B4B00D01A704179027909021143827953
:106ED00012041143C27912060A43DA60427A017A37
:106EE00012020A431A84C17B827B09021143027C8D
:106EF00012041143427C12060A439A62C17C827CCE
:106F000009021143027D12041143427D12060A4315
:106F1000DA62C17D827D09021143027E12041143AF
:106F2000427E12060A431A63C17E827E0902114321
:106F3000027F12041143427F12060A435A63C17F43
:106F4000827F09021143421CD27F12041143821C2A
:106F5000D27F12060A439A63C21CD17F021DD27FE0
:106F600012020A439A87421DD17F821DD27F1202EC
:106F70000A43DA87C17A827A09021143027B12043A
:106F80001143427B12060A4301005A6202002B3170
:106F900009782A3212780902114302002C32127841
:106FA0002D3012041143027812060A435A607047CA
:106FB0003019002010B5024B5860FFF741FB10BD9F
:106FC00030190020024B1878002800D1013070479A
:106FD00030190020E2230020054A5B00D35C834285
:106FE00004D1044B01305B695B0B98437047C0468A
:106FF0003019002000040048E223024A5B00D05C04
:107000007047C04630190020E22301219620064A2D
:107010005B0010B5D154054AC43B516940010B4394
:107020005361FFF70DFB10BD30190020000400482C
:10703000E22301219620064A5B0010B5D154054A8F
:10704000C43B516900020B435361FFF7F9FA10BDCD
:107050003019002000040048F0B50024244D87B00A
:10706000210001342800E4B2FFF78AFD0735082C1F
:10707000F6D1204C16272000FFF7D2FD6621200014
:1070800000F038F980216F443880002249011A4805
:10709000FBF740FF6626C823184D02930094019623
:1070A000C63B0022A0212800FAF70EFA041E08D0E1
:1070B0008021114801224901FBF72CFF60B207B083
:1070C000F0BDC8230293C63B01933200A0212800E3
:1070D0000097FAF7F9F980210500012206484901D5
:1070E000FBF718FF2000002DE9D068B2E7E7C046A3
:1070F000661B0020381B002000080048D411002027
:1071000070B580260E4D86B07601059031002800BE
:107110000022FBF7FFFEC8230293C43B019305AB9B
:10712000009368220223A0210648FAF7CDF9012234
:10713000040031002800FBF7EDFE60B206B070BD20
:1071400000080048D41100207FB580200C4A0003BD
:1071500051690143516153690021034000930822A2
:1071600004A8009B00F0ADFA01230293039380234F
:1071700001A95B0103480193FBF794FD07B000BD33
:107180000010024000080048F0B5A3B0FFF7DCFF94
:107190008021C8256827012249013348FBF7BAFE40
:1071A000324E08AC02950197009402230022A021E0
:1071B0003000FAF743FA002802D040B223B0F0BD05
:1071C0007E2302AA9B181B78300004937F239B1810
:1071D0001B7802950593042307AD01930095023BAC
:1071E0003A00A021FAF72AFA061E01D040B2E5E7DC
:1071F0006621200000F07EF8059B049A1B021343D1
:1072000083422BD11A4F66222100380000F050FA39
:107210002B7802AA3B7115239B181B787B711623D0
:107220009B181B78BB7117239B181B78FB71FDF70C
:1072300031FEFB78BA781B021343984211D1380013
:10724000FFF73AFE0B4C310001362000F6B2FFF793
:10725000B3FC0734082EF6D10020AFE706204042E9
:10726000ACE70720FBE7C04600080048D411002027
:10727000381B0020661B00207FB580260F4D76014D
:10728000310000222800FBF745FE00F089F90400D8
:1072900000F08AF9C823019002930094C63B6C2247
:1072A000A0210748FAF710F9012204003100280054
:1072B000FBF730FE60B204B070BDC0460008004865
:1072C000D41100201FB500F06BF9040000F06CF938
:1072D000C823023080B2029301900094C63B002282
:1072E000A0210348FAF7AAF940B204B010BDC04685
:1072F000D41100200200FF200300F0B5084D094E14
:10730000094F013989B2A94202D11B021843F0BDCD
:10731000147801324440305D58403B5DF1E7C0468F
:10732000FFFF0000F6830008F684000808B4F0B5FB
:10733000214C88B0236805900E001700002B03D164
:107340000120FCF7F0F92060206800282FD00023EE
:107350000A221900FCF784FA012828D1FDF7BCFDA8
:10736000059A164992005258154D03000196009255
:10737000FF21144A0297280000F0ACF9FF21124ABD
:107380000600084001300EAB80180D9A079300F0FC
:107390009FFAF2B2121892B2C82329000B48FAF7EA
:1073A00043FE002320681A001900FCF72CF908B0EE
:1073B000F0BC08BC01B018477C110020F88500081B
:1073C0009F1B0020108600089E1B00205C140020DC
:1073D0000FB437B5154C2368002B03D10120FCF7FF
:1073E000A2F92060206800281CD000216A46009184
:1073F000FCF7DEFA012815D1FCF792FF0C4D07AB24
:10740000069AFF212800019300F062FAC82382B295
:1074100029000848FAF708FE69462068FCF7E4F9F5
:10742000FCF78AFF37BC08BC04B018477C11002069
:107430009F1B00205C14002010B51B49040000F0C5
:107440007BF9002804D0194B1868FFF7C1FF10BD65
:107450001749200000F070F9002802D0FFF774FCF3
:10746000F5E71449200000F067F9002802D0FFF783
:10747000ADFCECE71049200000F05EF9002809D0CF
:10748000043000F0EAF80D4B421E9A42EFD8FFF7A5
:1074900091FDECE70A49200000F04EF90028D6D013
:1074A00000F05AF8D3E7C0460B8700081000002010
:1074B00010870008178700081E870008FF070700CD
:1074C00023870008044B002803DD0138034B8000AC
:1074D000C35818007047C046628300082C87000814
:1074E000124A70B5002315005168DEB281420BD1FB
:1074F0000C245C432C19238901332381FDF7ECFC18
:10750000E06001232B7070BD00290AD10C245C437C
:107510002C196060FDF7E0FCC2235B00E060EE52D6
:10752000EFE701330C32202BDED1EAE7A01C00206C
:10753000C02210B552000021054800F0C2F8C22256
:107540000021044B52009952843AFF3A1A7010BD40
:10755000A41C0020A01C0020C223F7B50D4C5B002A
:10756000E75A0D483900FFF733FF0025ABB29F42C1
:1075700000D8F7BDFF2366680C341E403000FFF7CB
:10758000A1FF00902268290033000448FFF720FF84
:107590000135EBE7A01C0020488700087987000828
:1075A00000487047A41C0020C2230C20024A5B0044
:1075B000D35A584380B27047A01C0020014B187862
:1075C0007047C046A01C00200022014B1A70704773
:1075D000A01C002070B50B4D1B01EC18667B002E23
:1075E00005D05E59864202D1247B002C08D0EC18CD
:1075F000E850531E9A4101236060A16022736373B7
:1076000070BDC046281E00200D488546002103E0BD
:107610000C4B5B58435004310B480C4B42189A42B8
:10762000F6D30B4A02E0002313600432094B9A425E
:10763000F9D3FBF7A7FE00F017F8F9F773F9FEE7A7
:1076400000800020FC890008000000207800002055
:1076500078000020481E0020FEE710B50A22002115
:1076600000F0FEF810BD000070B500260C4D0D4C6A
:10767000641BA410A64209D1002600F033FD0A4D78
:107680000A4C641BA410A64205D170BDB300EB5890
:1076900098470136EEE7B300EB5898470136F2E71A
:1076A000F4890008F4890008F4890008F8890008C2
:1076B000002310B59A4200D110BDCC5CC4540133F4
:1076C000F8E703001218934200D170471970013394
:1076D000F9E700000CB430B5164B9DB00C1E1D68C8
:1076E00008DA8B2301202B6040421DB030BC08BC5F
:1076F00002B01847822302A99B008B8100230290CD
:1077000008619C4200D0631E8B604B6101235B4289
:10771000CB81209A21AB2800019300F047F9431C4C
:1077200001DA8B232B60002CDFD00023029A137028
:10773000DBE7C046140000200A7830B5002A0CD1DF
:1077400030BD9A4208D10123CC5C002CF8D0C55C36
:10775000A54201D10133F7E701300378002BF0D1C6
:107760001800EDE7F0B587B0019102921F000A0002
:1077700008210590384813001C78551C065D2A0026
:107780000E40F8D12D2C34D12C7801369D1C002FC1
:107790005ED0102F09D1302C07D120222B789343B3
:1077A000582B50D110276C7802352C4B3900F31828
:1077B00018000393F8F74CFD04910121002349427E
:1077C00002008C46180021003039092916D80C0017
:1077D000A7421FDD591C09D06346824206D302D15D
:1077E0000499A14202DB0123784320182C7801354B
:1077F000E9E72B2CCBD12C789D1CC8E7210041391F
:10780000192901D8373CE3E721006139192901D84A
:10781000573CDDE75A1C08D1059A23331360029BBD
:107820000398002B09D107B0F0BD002E00D04042D4
:10783000029A002AF7D0002B01D06B1E0193029B05
:10784000019A1A60EFE73024002FAED10837ACE779
:10785000302CA2D00A27A8E7B8880008FFFFFF7FD6
:1078600010B513000A00010002480068FFF77AFF14
:1078700010BDC0461400002030B514009BB00500B8
:107880001A00002C05DA8B230360012040421BB054
:1078900030BD822368469B008381002300910491C0
:1078A0009C4200D0631E02930593012369465B420C
:1078B000CB8128001E9B00F079F8431C01DA8B2352
:1078C0002B60002CE3D00023009A1370DFE7000048
:1078D00007B5009313000A00010002480068FFF793
:1078E000CBFF0EBD14000020F0B58E6885B00700F8
:1078F0000C00039201939E423CD890238A89DB00BE
:107900001A4234D00325096923685B1A029363691C
:1079100002985D43EB0F5D19019B6D1001331B183D
:10792000AB4200D91D00530532D52900380000F0C4
:107930001BFB061E09D10C233B6040230120A289BA
:1079400040421343A38105B0F0BD029A2169FFF7BD
:10795000AFFEA389144A1A4080231343A381029BDC
:107960002661F61826606561019EED1AA560019BEF
:107970009E4200D9019E32000399206800F097FAD8
:10798000A36800209B1BA36023689E192660DAE78A
:107990002A00380000F046FB061EE0D121693800BD
:1079A00000F098FAC7E7C0467FFBFFFFF0B5A1B033
:1079B00003901D008B890F0016001B0611D50B6963
:1079C000002B0ED1402100F0CFFA3860386100283A
:1079D00005D10C23039A0138136021B0F0BD402378
:1079E0007B61002308AC6361203363761033A37698
:1079F000079535002B78002B01D0252B46D1AB1BEA
:107A000005930CD0320039000398FFF76DFF431C3B
:107A100000D1AEE06269059B9446634463612B78B4
:107A2000002B00D1A5E0012200235242626004A98C
:107A3000543252186E1C2360E360A3601370A36578
:107A400031780522534800F027FA751C00281FD111
:107A50002268D30604D5532304A95B18202119708A
:107A6000130704D5532304A95B182B21197033780D
:107A70002A2B16D0350000210A20E3682A786E1CD4
:107A8000303A092A4ED9002911D117E00135B1E762
:107A9000404B2268C01A01238340134323602E0009
:107AA000CEE7079B191D1B680791002B01DB0B9389
:107AB00004E05B42E3600223134323602B782E2B08
:107AC0000AD16B782A2B35D1079B02351A1D1B680A
:107AD0000792002B2BDB09932F4E297803223000CD
:107AE00000F0DAF9002806D04023801B834022688A
:107AF0000135134323602978062228486E1C21761D
:107B000000F0CAF900283CD0254B002B25D10722D4
:107B1000079B07339343083307936369049A9B18C1
:107B2000636166E7434301219B183500A6E7012303
:107B30005B42D0E700230A201A00013563602978F0
:107B40006E1C3039092903D9002BC5D00992C3E72F
:107B50004243012352183500F1E707AB00933A0086
:107B6000104B2100039800E000BF0490049B0133F8
:107B7000D3D1BB890D985B0600D42EE7012040428B
:107B80002BE707AB00933A00064B2100039800F067
:107B900079F8EAE7B8890008BE890008C2890008B8
:107BA00000000000E9780008F7B5150001938A6825
:107BB0000B6900900C00934200DA130022002B6046
:107BC00043321278002A01D001332B6023689B06D0
:107BD00002D52B6802332B60062723681F4027D06D
:107BE000230043331B785A1E93412268920630D4F7
:107BF0002200019943320098089EB047431C25D0CB
:107C0000062320682A68E16803400025042B03D17D
:107C10008D1AEB43DB171D40A3682269934201DDF7
:107C20009B1AED180027BD4220D1002010E001373B
:107C3000E3682A689B1ABB42D2DD22000123193275
:107C400001990098089EB047431CF0D101204042A2
:107C5000FEBD3020E1184331087021005A1C453127
:107C60000978A218433202331170C1E722000123C0
:107C70001A3201990098089EB047431CE6D001379C
:107C8000D1E70000F0B58BB006920A0043320793AB
:107C9000059004920A7E0C00109B6E2A00D1AFE082
:107CA00020D8632A35D008D8002A00D1B5E0582A58
:107CB00051D026004236327032E0642A01D0692A5F
:107CC000F7D1196820680A1D05062BD50D681A60C2
:107CD000002D03DA2D23049A6D4213706C4B0A2792
:107CE000039352E0732A00D19BE008D86F2A1FD07B
:107CF000702ADED1202209680A43226003E0752A37
:107D000016D0782AD5D12200782145321170614AE7
:107D100024E026001A684236111D1960136833707A
:107D200001238CE00D681A604106D1D52DB2CFE752
:107D300019682568081D18602E0601D50D6803E036
:107D40006D06FBD50D68ADB2514B0A2703936F2A20
:107D500017D1082715E045310A704D4A03921A6879
:107D6000216820CA1A60080644D5CB0702D5202313
:107D7000194321601027002D03D1202322689A4344
:107D800022602300002243331A706368A360002B33
:107D900003DB0422216891432160002D02D1049E5F
:107DA000002B0AD0049E39002800F8F751FA039BF3
:107DB000013E5B5C3370AF4220D9082F09D12368A4
:107DC000DB0706D563682269934202DC3023013E5B
:107DD0003370049B9B1B2361079B09AA009321001E
:107DE000069B0598FFF7E0FE431C2DD10120404281
:107DF0000BB0F0BD4806B8D5ADB2B6E70500D2E786
:107E00001A680D68101D4969186013682E0601D59F
:107E1000196002E06D06FBD519800023049E2361E2
:107E2000DAE71A68111D19601668002162683000CF
:107E300000F032F8002801D0801B60606368236185
:107E40000023049A1370C7E7236932000699059846
:107E5000079DA847431CC9D023689B0715D4099BDD
:107E6000E0689842C4DA1800C2E722000123193200
:107E700006990598079EB047431CB7D00135E368C3
:107E8000099A9B1AAB42F0DCE9E70025F7E7C04608
:107E9000C9890008DA890008C9B28218904201D164
:107EA0000020704703788B42FBD00130F6E710B515
:107EB000884202D98B18984203D3002307E08B5CD9
:107EC0008354013AFBD210BDCC5CC45401339A42B6
:107ED000FAD1F8E770B50500002910D00C1F23680F
:107EE000002B00DAE418280000F0D4F81D4A1368CB
:107EF000002B05D163601460280000F0D3F870BD3A
:107F0000A34209D9216860188342F3D118685B68DD
:107F100041182160EEE713005A68002A01D0A242FE
:107F2000F9D919685818A0420BD1206809185818B7
:107F300019608242E0D110685268411819605A6095
:107F4000DAE7A04202D90C232B60D5E7216860183C
:107F5000824203D1106852684118216062605C60FF
:107F6000CAE7C04680110020F8B50323CD1C9D430D
:107F7000083506000C2D1FD20C25A9421ED8300052
:107F800000F088F825490A681400002C1AD1244F03
:107F90003B68002B04D12100300000F069F8386004
:107FA0002900300000F064F8431C2AD10C23300073
:107FB000336000F077F803E0002DDEDA0C23336045
:107FC0000020F8BD23685B1B18D40B2B03D923605A
:107FD000E418256003E06368A2420DD10B60300015
:107FE00000F060F8200007220B30231D9043C21AD6
:107FF000E7D01B1AA350E4E75360F0E7220064685F
:10800000C3E70323C41C9C43A042E2D0211A3000E2
:1080100000F02EF8431CDCD1C8E7C04680110020D8
:1080200084110020F8B507000D001600002905D1C5
:108030001100FFF799FF04002000F8BD002A03D1CA
:10804000FFF748FF3400F7E700F034F82C00B042A7
:10805000F2D231003800FFF787FF041EECD0290070
:108060003200FFF725FB29003800FFF733FFE3E775
:10807000002370B5064C05000800236000F024F8CA
:10808000431C03D12368002B00D02B6070BDC04679
:10809000381E002010B5024800F014F810BDC0468C
:1080A000401E002010B5024800F00DF810BDC0467B
:1080B000401E00200B1F1B68181F002B01DA0B58F5
:1080C000C018704770477047044A1368002B03D0EC
:1080D0001818106018007047014BF9E7881100204C
:1080E000481E0020F8B5C046F8BC08BC9E46704744
:0C80F000F8B5C046F8BC08BC9E467047BE
:1080FC00A6810008BD060008FDFF0000000000007E
:10810C00800000009C8100080D080008FDFF0000A5
:10811C0000000000800000008F810008110700089B
:10812C00FDFF000000000000000100000203040538
:10813C00060708090A0B0C0D0E0F101001020304A0
:10814C0005060708090A0B0C0D0E0F104D6F647510
:10815C006C6520257320737461727465640A004326
:10816C006F72652F5372632F6D61696E2E630044BD
:10817C00492E302E30303100496E697420646F6E98
:10818C00650A00496E70757450726F636573730085
:10819C005469636B5F5461736B006D6F64627573CC
:1081AC0000000408020000000000000000010203AF
:1081BC000406070809000000000102030449444CAE
:1081CC0045002D2D2D2D2D2D2D2D2D2D2D2D2D2DE8
:1081DC002D2D20444920636F6E666967202D2D2D4F
:1081EC002D2D2D2D2D2D2D2D2D2D2D2D2D0A0044EC
:1081FC00492062617564726174653A20256C750A58
:10820C00004449303A206D6F64653A20256C75093D
:10821C00706172616D313A20257509706172616D02
:10822C00323A2025750A004449313A206D6F646555
:10823C003A20256C7509706172616D313A20257593
:10824C0009706172616D323A2025750A0044493219
:10825C003A206D6F64653A20256C75097061726106
:10826C006D313A20257509706172616D323A2025A5
:10827C00750A004449333A206D6F64653A20256CC9
:10828C007509706172616D313A20257509706172E2
:10829C00616D323A2025750A004449343A206D6FDD
:1082AC0064653A20256C7509706172616D313A20F4
:1082BC00257509706172616D323A2025750A00448A
:1082CC0049353A206D6F64653A20256C75097061EB
:1082DC0072616D313A20257509706172616D323AA7
:1082EC002025750A004449363A206D6F64653A20A2
:1082FC00256C7509706172616D313A2025750970B4
:10830C006172616D323A2025750A004449373A2072
:10831C006D6F64653A20256C7509706172616D3101
:10832C003A20257509706172616D323A2025750A03
:10833C000073746172745F74696D653A0920256C01
:10834C0075200A0070726F6772616D5F6372633AB9
:10835C0009202575200A00746F74616C5F72713A84
:10836C000920256C75200A0068616E646C65645F79
:10837C0072713A0920256C75200A006572725F6370
:10838C0072635F72713A0920256C75200A00657260
:10839C00725F706172616D5F72713A0920256C7544
:1083AC00200A006572725F73656E643A0920256C51
:1083BC0075200A00616E645F6D61736B3A09203041
:1083CC00782578200A006F725F6D61736B3A092013
:1083DC0030782578200A006368616E67655F746980
:1083EC006D653A0920256C750A0000C1814001C0F9
:1083FC00804101C0804100C1814001C0804100C169
:10840C00814000C1814001C0804101C0804100C158
:10841C00814000C1814001C0804100C1814001C048
:10842C00804101C0804100C1814001C0804100C138
:10843C00814000C1814001C0804100C1814001C028
:10844C00804101C0804100C1814000C1814001C018
:10845C00804101C0804100C1814001C0804100C108
:10846C00814000C1814001C0804101C0804100C1F8
:10847C00814000C1814001C0804100C1814001C0E8
:10848C00804101C0804100C1814000C1814001C0D8
:10849C00804101C0804100C1814001C0804100C1C8
:1084AC00814000C1814001C0804100C1814001C0B8
:1084BC00804101C0804100C1814001C0804100C1A8
:1084CC00814000C1814001C0804101C0804100C198
:1084DC00814000C1814001C0804100C1814001C088
:1084EC00804101C0804100C1814000C0C101C30373
:1084FC0002C2C60607C705C5C404CC0C0DCD0FCFF0
:10850C00CE0E0ACACB0BC90908C8D81819D91BDB5F
:10851C00DA1A1EDEDF1FDD1D1CDC14D4D515D717AF
:10852C0016D6D21213D311D1D010F03031F133F35F
:10853C00F23236F6F737F53534F43CFCFD3DFF3FAF
:10854C003EFEFA3A3BFB39F9F83828E8E929EB2BDF
:10855C002AEAEE2E2FEF2DEDEC2CE42425E527E76F
:10856C00E62622E2E323E12120E0A06061A163A3DF
:10857C00A26266A6A767A56564A46CACAD6DAF6F6F
:10858C006EAEAA6A6BAB69A9A86878B8B979BB7BDF
:10859C007ABABE7E7FBF7DBDBC7CB47475B577B72F
:1085AC00B67672B2B373B17170B05090915193535F
:1085BC00529296565797559594549C5C5D9D5F9F2F
:1085CC009E5E5A9A9B5B99595898884849894B8B5F
:1085DC008A4A4E8E8F4F8D4D4C8C448485458747EF
:1085EC0046868242438341818040000020860008F9
:1085FC00268600082C86000831860008368600087E
:10860C003C860008256C75205B25735D2025733A2C
:10861C0025642000545241434500444542554700CF
:10862C00494E464F005741524E004552524F520050
:10863C00464154414C0068656C702020202020205D
:10864C0020202D2073686F772074686973206D6506
:10865C0073736167650A73746174757320202020CD
:10866C0020202D2073686F77206D6F6462757320E6
:10867C00646576696365207374617475730A636FDE
:10868C006E6669672020202020202D2073686F776C
:10869C00206D6F6462757320646576696365206311
:1086AC006F6E6669670A6261756420202020202045
:1086BC0020202D207365742062617564726174656D
:1086CC0020666F7220525334383520696E7465728F
:1086DC006661636520286D6178203D203436303822
:1086EC003030290A6572726F72732020202020208E
:1086FC002D2072656164206572726F72730A006856
:10870C00656C700073746174757300636F6E666969
:10871C00670062617564006572726F7273000000AD
:10872C0088870008BB870008F68700080B880008BC
:10873C004C88000887880008000000002D2D2D2D86
:10874C002D2D2D2D2D2D2D2D2D2D2D2D2044492034
:10875C006572726F72733A202575202D2D2D2D2D7B
:10876C002D2D2D2D2D2D2D2D2D2D2D0A0025753A30
:10877C0020256C753A20257520257300D0BED18834
:10878C00D0B8D0B1D0BAD0B020D187D182D0B5D0AA
:10879C00BDD0B8D18F20D0BAD0BED0BDD184D0B886
:1087AC00D0B3D183D180D0B0D186D0B8D0B800D0DE
:1087BC00BED188D0B8D0B1D0BAD0B020D0B7D0B05C
:1087CC00D0BFD0B8D181D0B820D0B2D0BE20D0B2DA
:1087DC00D0BDD0B5D188D0BDD18ED18E20D0BFD058
:1087EC00B0D0BCD18FD182D18C00525334383520CB
:1087FC00D0BED0B2D0B5D180D180D0B0D0BD00D059
:10880C00BED188D0B8D0B1D0BAD0B020D0B4D0BE00
:10881C00D181D182D183D0BFD0B020D0BA20D18029
:10882C00D0B5D0B3D0B8D181D182D180D18320D171
:10883C0085D180D0B0D0BDD0B5D0BDD0B8D18F004F
:10884C00D0BED188D0B8D0B1D0BAD0B020D0B4D0AE
:10885C00BED181D182D183D0BFD0B020D0BA20D1AB
:10886C0080D0B5D0B3D0B8D181D182D180D1832082
:10887C00D0B2D0B2D0BED0B4D0B000D0BED188D09F
:10888C00B8D0B1D0BAD0B020D0B220D0BDD0B0D1F9
:10889C0081D182D180D0BED0B9D0BAD0B0D1852010
:1088AC00D0B2D185D0BED0B4D0B0000020202020D2
:1088BC002020202020282828282820202020202084
:1088CC002020202020202020202020208810101064
:1088DC0010101010101010101010101004040404BC
:1088EC000404040404041010101010101041414131
:1088FC00414141010101010101010101010101019C
:10890C00010101010101011010101010104242422E
:10891C00424242020202020202020202020202026B
:10892C0002020202020202101010102000000000CD
:10893C00000000000000000000000000000000002B
:10894C00000000000000000000000000000000001B
:10895C00000000000000000000000000000000000B
:10896C0000000000000000000000000000000000FB
:10897C0000000000000000000000000000000000EB
:10898C0000000000000000000000000000000000DB
:10899C0000000000000000000000000000000000CB
:1089AC00000000000000000000000000232D302B10
:1089BC002000686C4C0065666745464700303132D4
:1089CC00333435363738394142434445460030312B
:1089DC00323334353637383961626364656600008A
:0889EC00D87AFF7F01000000B2
:0489F400E90000088E
:0489F800C1000008B2
:1089FC0000127A00AAAAAAAA006CDC0200000000ED
:108A0C004286000818000020000000000000000052
:108A1C00000000000000000000000000000000004A
:108A2C00000000000000000000000000000000003A
:108A3C00000000000000000000000000000000002A
:108A4C00000000000000000000000000000000001A
:108A5C00000000000000000000000000000000000A
:088A6C00000000000000000002
:040000050800760970
:00000001FF
