Archive member included to satisfy reference by file (symbol)

/opt/gcc-arm-none-eabi/bin/../lib/gcc/arm-none-eabi/8.3.1/../../../../arm-none-eabi/lib/thumb/v6-m/nofp/libc_nano.a(lib_a-atoi.o)
                              build/user_cmd.o (atoi)
/opt/gcc-arm-none-eabi/bin/../lib/gcc/arm-none-eabi/8.3.1/../../../../arm-none-eabi/lib/thumb/v6-m/nofp/libc_nano.a(lib_a-exit.o)
                              /opt/gcc-arm-none-eabi/bin/../lib/gcc/arm-none-eabi/8.3.1/../../../../arm-none-eabi/lib/thumb/v6-m/nofp/crt0.o (exit)
/opt/gcc-arm-none-eabi/bin/../lib/gcc/arm-none-eabi/8.3.1/../../../../arm-none-eabi/lib/thumb/v6-m/nofp/libc_nano.a(lib_a-impure.o)
                              /opt/gcc-arm-none-eabi/bin/../lib/gcc/arm-none-eabi/8.3.1/../../../../arm-none-eabi/lib/thumb/v6-m/nofp/libc_nano.a(lib_a-exit.o) (_global_impure_ptr)
/opt/gcc-arm-none-eabi/bin/../lib/gcc/arm-none-eabi/8.3.1/../../../../arm-none-eabi/lib/thumb/v6-m/nofp/libc_nano.a(lib_a-init.o)
                              /opt/gcc-arm-none-eabi/bin/../lib/gcc/arm-none-eabi/8.3.1/../../../../arm-none-eabi/lib/thumb/v6-m/nofp/crt0.o (__libc_init_array)
/opt/gcc-arm-none-eabi/bin/../lib/gcc/arm-none-eabi/8.3.1/../../../../arm-none-eabi/lib/thumb/v6-m/nofp/libc_nano.a(lib_a-memcpy-stub.o)
                              build/stm32f0xx_hal_rcc.o (memcpy)
/opt/gcc-arm-none-eabi/bin/../lib/gcc/arm-none-eabi/8.3.1/../../../../arm-none-eabi/lib/thumb/v6-m/nofp/libc_nano.a(lib_a-memset.o)
                              /opt/gcc-arm-none-eabi/bin/../lib/gcc/arm-none-eabi/8.3.1/../../../../arm-none-eabi/lib/thumb/v6-m/nofp/crt0.o (memset)
/opt/gcc-arm-none-eabi/bin/../lib/gcc/arm-none-eabi/8.3.1/../../../../arm-none-eabi/lib/thumb/v6-m/nofp/libc_nano.a(lib_a-snprintf.o)
                              build/log.o (snprintf)
/opt/gcc-arm-none-eabi/bin/../lib/gcc/arm-none-eabi/8.3.1/../../../../arm-none-eabi/lib/thumb/v6-m/nofp/libc_nano.a(lib_a-strstr.o)
                              build/user_cmd.o (strstr)
/opt/gcc-arm-none-eabi/bin/../lib/gcc/arm-none-eabi/8.3.1/../../../../arm-none-eabi/lib/thumb/v6-m/nofp/libc_nano.a(lib_a-strtol.o)
                              /opt/gcc-arm-none-eabi/bin/../lib/gcc/arm-none-eabi/8.3.1/../../../../arm-none-eabi/lib/thumb/v6-m/nofp/libc_nano.a(lib_a-atoi.o) (_strtol_r)
/opt/gcc-arm-none-eabi/bin/../lib/gcc/arm-none-eabi/8.3.1/../../../../arm-none-eabi/lib/thumb/v6-m/nofp/libc_nano.a(lib_a-vsnprintf.o)
                              build/log.o (vsnprintf)
/opt/gcc-arm-none-eabi/bin/../lib/gcc/arm-none-eabi/8.3.1/../../../../arm-none-eabi/lib/thumb/v6-m/nofp/libc_nano.a(lib_a-ctype_.o)
                              /opt/gcc-arm-none-eabi/bin/../lib/gcc/arm-none-eabi/8.3.1/../../../../arm-none-eabi/lib/thumb/v6-m/nofp/libc_nano.a(lib_a-strtol.o) (_ctype_)
/opt/gcc-arm-none-eabi/bin/../lib/gcc/arm-none-eabi/8.3.1/../../../../arm-none-eabi/lib/thumb/v6-m/nofp/libc_nano.a(lib_a-nano-svfprintf.o)
                              /opt/gcc-arm-none-eabi/bin/../lib/gcc/arm-none-eabi/8.3.1/../../../../arm-none-eabi/lib/thumb/v6-m/nofp/libc_nano.a(lib_a-snprintf.o) (_svfprintf_r)
/opt/gcc-arm-none-eabi/bin/../lib/gcc/arm-none-eabi/8.3.1/../../../../arm-none-eabi/lib/thumb/v6-m/nofp/libc_nano.a(lib_a-nano-vfprintf_i.o)
                              /opt/gcc-arm-none-eabi/bin/../lib/gcc/arm-none-eabi/8.3.1/../../../../arm-none-eabi/lib/thumb/v6-m/nofp/libc_nano.a(lib_a-nano-svfprintf.o) (_printf_i)
/opt/gcc-arm-none-eabi/bin/../lib/gcc/arm-none-eabi/8.3.1/../../../../arm-none-eabi/lib/thumb/v6-m/nofp/libc_nano.a(lib_a-memchr-stub.o)
                              /opt/gcc-arm-none-eabi/bin/../lib/gcc/arm-none-eabi/8.3.1/../../../../arm-none-eabi/lib/thumb/v6-m/nofp/libc_nano.a(lib_a-nano-svfprintf.o) (memchr)
/opt/gcc-arm-none-eabi/bin/../lib/gcc/arm-none-eabi/8.3.1/../../../../arm-none-eabi/lib/thumb/v6-m/nofp/libc_nano.a(lib_a-memmove.o)
                              /opt/gcc-arm-none-eabi/bin/../lib/gcc/arm-none-eabi/8.3.1/../../../../arm-none-eabi/lib/thumb/v6-m/nofp/libc_nano.a(lib_a-nano-svfprintf.o) (memmove)
/opt/gcc-arm-none-eabi/bin/../lib/gcc/arm-none-eabi/8.3.1/../../../../arm-none-eabi/lib/thumb/v6-m/nofp/libc_nano.a(lib_a-nano-freer.o)
                              /opt/gcc-arm-none-eabi/bin/../lib/gcc/arm-none-eabi/8.3.1/../../../../arm-none-eabi/lib/thumb/v6-m/nofp/libc_nano.a(lib_a-nano-svfprintf.o) (_free_r)
/opt/gcc-arm-none-eabi/bin/../lib/gcc/arm-none-eabi/8.3.1/../../../../arm-none-eabi/lib/thumb/v6-m/nofp/libc_nano.a(lib_a-nano-mallocr.o)
                              /opt/gcc-arm-none-eabi/bin/../lib/gcc/arm-none-eabi/8.3.1/../../../../arm-none-eabi/lib/thumb/v6-m/nofp/libc_nano.a(lib_a-nano-svfprintf.o) (_malloc_r)
/opt/gcc-arm-none-eabi/bin/../lib/gcc/arm-none-eabi/8.3.1/../../../../arm-none-eabi/lib/thumb/v6-m/nofp/libc_nano.a(lib_a-nano-reallocr.o)
                              /opt/gcc-arm-none-eabi/bin/../lib/gcc/arm-none-eabi/8.3.1/../../../../arm-none-eabi/lib/thumb/v6-m/nofp/libc_nano.a(lib_a-nano-svfprintf.o) (_realloc_r)
/opt/gcc-arm-none-eabi/bin/../lib/gcc/arm-none-eabi/8.3.1/../../../../arm-none-eabi/lib/thumb/v6-m/nofp/libc_nano.a(lib_a-sbrkr.o)
                              /opt/gcc-arm-none-eabi/bin/../lib/gcc/arm-none-eabi/8.3.1/../../../../arm-none-eabi/lib/thumb/v6-m/nofp/libc_nano.a(lib_a-nano-mallocr.o) (_sbrk_r)
/opt/gcc-arm-none-eabi/bin/../lib/gcc/arm-none-eabi/8.3.1/../../../../arm-none-eabi/lib/thumb/v6-m/nofp/libc_nano.a(lib_a-mlock.o)
                              /opt/gcc-arm-none-eabi/bin/../lib/gcc/arm-none-eabi/8.3.1/../../../../arm-none-eabi/lib/thumb/v6-m/nofp/libc_nano.a(lib_a-nano-freer.o) (__malloc_lock)
/opt/gcc-arm-none-eabi/bin/../lib/gcc/arm-none-eabi/8.3.1/../../../../arm-none-eabi/lib/thumb/v6-m/nofp/libc_nano.a(lib_a-nano-msizer.o)
                              /opt/gcc-arm-none-eabi/bin/../lib/gcc/arm-none-eabi/8.3.1/../../../../arm-none-eabi/lib/thumb/v6-m/nofp/libc_nano.a(lib_a-nano-reallocr.o) (_malloc_usable_size_r)
/opt/gcc-arm-none-eabi/bin/../lib/gcc/arm-none-eabi/8.3.1/../../../../arm-none-eabi/lib/thumb/v6-m/nofp/libc_nano.a(lib_a-reent.o)
                              /opt/gcc-arm-none-eabi/bin/../lib/gcc/arm-none-eabi/8.3.1/../../../../arm-none-eabi/lib/thumb/v6-m/nofp/libc_nano.a(lib_a-sbrkr.o) (errno)
/opt/gcc-arm-none-eabi/bin/../lib/gcc/arm-none-eabi/8.3.1/../../../../arm-none-eabi/lib/thumb/v6-m/nofp/libc_nano.a(lib_a-lock.o)
                              /opt/gcc-arm-none-eabi/bin/../lib/gcc/arm-none-eabi/8.3.1/../../../../arm-none-eabi/lib/thumb/v6-m/nofp/libc_nano.a(lib_a-mlock.o) (__retarget_lock_acquire_recursive)
/opt/gcc-arm-none-eabi/bin/../lib/gcc/arm-none-eabi/8.3.1/../../../../arm-none-eabi/lib/thumb/v6-m/nofp/libnosys.a(sbrk.o)
                              /opt/gcc-arm-none-eabi/bin/../lib/gcc/arm-none-eabi/8.3.1/../../../../arm-none-eabi/lib/thumb/v6-m/nofp/libc_nano.a(lib_a-sbrkr.o) (_sbrk)
/opt/gcc-arm-none-eabi/bin/../lib/gcc/arm-none-eabi/8.3.1/../../../../arm-none-eabi/lib/thumb/v6-m/nofp/libnosys.a(_exit.o)
                              /opt/gcc-arm-none-eabi/bin/../lib/gcc/arm-none-eabi/8.3.1/../../../../arm-none-eabi/lib/thumb/v6-m/nofp/libc_nano.a(lib_a-exit.o) (_exit)
/opt/gcc-arm-none-eabi/bin/../lib/gcc/arm-none-eabi/8.3.1/thumb/v6-m/nofp/libgcc.a(_thumb1_case_sqi.o)
                              build/stm32f0xx_hal_uart.o (__gnu_thumb1_case_sqi)
/opt/gcc-arm-none-eabi/bin/../lib/gcc/arm-none-eabi/8.3.1/thumb/v6-m/nofp/libgcc.a(_thumb1_case_uqi.o)
                              build/stm32f0xx_hal_tim.o (__gnu_thumb1_case_uqi)
/opt/gcc-arm-none-eabi/bin/../lib/gcc/arm-none-eabi/8.3.1/thumb/v6-m/nofp/libgcc.a(_thumb1_case_uhi.o)
                              build/modbus_device.o (__gnu_thumb1_case_uhi)
/opt/gcc-arm-none-eabi/bin/../lib/gcc/arm-none-eabi/8.3.1/thumb/v6-m/nofp/libgcc.a(_udivsi3.o)
                              build/stm32f0xx_hal_timebase_tim.o (__aeabi_uidiv)
/opt/gcc-arm-none-eabi/bin/../lib/gcc/arm-none-eabi/8.3.1/thumb/v6-m/nofp/libgcc.a(_divsi3.o)
                              build/stm32f0xx_hal_rcc.o (__aeabi_idiv)
/opt/gcc-arm-none-eabi/bin/../lib/gcc/arm-none-eabi/8.3.1/thumb/v6-m/nofp/libgcc.a(_dvmd_tls.o)
                              /opt/gcc-arm-none-eabi/bin/../lib/gcc/arm-none-eabi/8.3.1/thumb/v6-m/nofp/libgcc.a(_udivsi3.o) (__aeabi_idiv0)
/opt/gcc-arm-none-eabi/bin/../lib/gcc/arm-none-eabi/8.3.1/thumb/v6-m/nofp/libgcc.a(_lshrdi3.o)
                              build/stm32f0xx_hal_flash.o (__aeabi_llsr)

Allocating common symbols
Common symbol       size              file

__lock___atexit_recursive_mutex
                    0x1               /opt/gcc-arm-none-eabi/bin/../lib/gcc/arm-none-eabi/8.3.1/../../../../arm-none-eabi/lib/thumb/v6-m/nofp/libc_nano.a(lib_a-lock.o)
hdma_usart2_rx      0x44              build/main.o
__lock___arc4random_mutex
                    0x1               /opt/gcc-arm-none-eabi/bin/../lib/gcc/arm-none-eabi/8.3.1/../../../../arm-none-eabi/lib/thumb/v6-m/nofp/libc_nano.a(lib_a-lock.o)
InputProcessHandle  0x4               build/main.o
outputHighWaterMark
                    0x4               build/main.o
timers              0x90              build/soft_timer.o
errno               0x4               /opt/gcc-arm-none-eabi/bin/../lib/gcc/arm-none-eabi/8.3.1/../../../../arm-none-eabi/lib/thumb/v6-m/nofp/libc_nano.a(lib_a-reent.o)
hi2c1               0x4c              build/main.o
hcrc                0x24              build/main.o
modbusHandle        0x4               build/main.o
hdma_usart4_tx      0x44              build/main.o
DO_MODE             0x1               build/main.o
modbusHighWaterMark
                    0x4               build/main.o
DMA_RX_Buffer_2     0xff              build/dma_usart_idle.o
uwTick              0x4               build/stm32f0xx_hal.o
xQueueRegistry      0x40              build/queue.o
pFlash              0x20              build/stm32f0xx_hal_flash.o
__lock___env_recursive_mutex
                    0x1               /opt/gcc-arm-none-eabi/bin/../lib/gcc/arm-none-eabi/8.3.1/../../../../arm-none-eabi/lib/thumb/v6-m/nofp/libc_nano.a(lib_a-lock.o)
__lock___sinit_recursive_mutex
                    0x1               /opt/gcc-arm-none-eabi/bin/../lib/gcc/arm-none-eabi/8.3.1/../../../../arm-none-eabi/lib/thumb/v6-m/nofp/libc_nano.a(lib_a-lock.o)
output_mode_e       0x1               build/modbus_device.o
mem_data            0x62              build/ext_mem.o
crc                 0x4               build/main.o
hdma_usart4_rx      0x44              build/main.o
__lock___malloc_recursive_mutex
                    0x1               /opt/gcc-arm-none-eabi/bin/../lib/gcc/arm-none-eabi/8.3.1/../../../../arm-none-eabi/lib/thumb/v6-m/nofp/libc_nano.a(lib_a-lock.o)
UART_Buffer         0xff              build/dma_usart_idle.o
DMA_RX_Buffer_1     0xff              build/dma_usart_idle.o
hdma_usart2_tx      0x44              build/main.o
logger              0x100             build/log.o
modbus              0x108             build/modbus.o
htim6               0x40              build/stm32f0xx_hal_timebase_tim.o
Tick_TaskHandle     0x4               build/main.o
errors              0x188             build/errors.o
modbus_error        0x1               build/main.o
Usart4RxSemaphoreHandle
                    0x4               build/main.o
huart4              0x70              build/main.o
huart2              0x70              build/main.o
__lock___at_quick_exit_mutex
                    0x1               /opt/gcc-arm-none-eabi/bin/../lib/gcc/arm-none-eabi/8.3.1/../../../../arm-none-eabi/lib/thumb/v6-m/nofp/libc_nano.a(lib_a-lock.o)
tickHighWaterMark   0x4               build/main.o
checksum            0x4               build/main.o
__lock___dd_hash_mutex
                    0x1               /opt/gcc-arm-none-eabi/bin/../lib/gcc/arm-none-eabi/8.3.1/../../../../arm-none-eabi/lib/thumb/v6-m/nofp/libc_nano.a(lib_a-lock.o)
__lock___tz_mutex   0x1               /opt/gcc-arm-none-eabi/bin/../lib/gcc/arm-none-eabi/8.3.1/../../../../arm-none-eabi/lib/thumb/v6-m/nofp/libc_nano.a(lib_a-lock.o)
device              0xe0              build/modbus_device.o
htim7               0x40              build/modbus_device.o
RxQueue             0x4               build/main.o
__lock___sfp_recursive_mutex
                    0x1               /opt/gcc-arm-none-eabi/bin/../lib/gcc/arm-none-eabi/8.3.1/../../../../arm-none-eabi/lib/thumb/v6-m/nofp/libc_nano.a(lib_a-lock.o)

Discarded input sections

 .text          0x0000000000000000        0x0 /opt/gcc-arm-none-eabi/bin/../lib/gcc/arm-none-eabi/8.3.1/thumb/v6-m/nofp/crti.o
 .data          0x0000000000000000        0x0 /opt/gcc-arm-none-eabi/bin/../lib/gcc/arm-none-eabi/8.3.1/thumb/v6-m/nofp/crti.o
 .bss           0x0000000000000000        0x0 /opt/gcc-arm-none-eabi/bin/../lib/gcc/arm-none-eabi/8.3.1/thumb/v6-m/nofp/crti.o
 .data          0x0000000000000000        0x4 /opt/gcc-arm-none-eabi/bin/../lib/gcc/arm-none-eabi/8.3.1/thumb/v6-m/nofp/crtbegin.o
 .text          0x0000000000000000       0x78 /opt/gcc-arm-none-eabi/bin/../lib/gcc/arm-none-eabi/8.3.1/../../../../arm-none-eabi/lib/thumb/v6-m/nofp/crt0.o
 .data          0x0000000000000000        0x0 /opt/gcc-arm-none-eabi/bin/../lib/gcc/arm-none-eabi/8.3.1/../../../../arm-none-eabi/lib/thumb/v6-m/nofp/crt0.o
 .bss           0x0000000000000000        0x0 /opt/gcc-arm-none-eabi/bin/../lib/gcc/arm-none-eabi/8.3.1/../../../../arm-none-eabi/lib/thumb/v6-m/nofp/crt0.o
 .ARM.extab     0x0000000000000000        0x0 /opt/gcc-arm-none-eabi/bin/../lib/gcc/arm-none-eabi/8.3.1/../../../../arm-none-eabi/lib/thumb/v6-m/nofp/crt0.o
 .ARM.exidx     0x0000000000000000        0x8 /opt/gcc-arm-none-eabi/bin/../lib/gcc/arm-none-eabi/8.3.1/../../../../arm-none-eabi/lib/thumb/v6-m/nofp/crt0.o
 .ARM.attributes
                0x0000000000000000       0x1b /opt/gcc-arm-none-eabi/bin/../lib/gcc/arm-none-eabi/8.3.1/../../../../arm-none-eabi/lib/thumb/v6-m/nofp/crt0.o
 .group         0x0000000000000000        0xc build/main.o
 .group         0x0000000000000000        0xc build/main.o
 .group         0x0000000000000000        0xc build/main.o
 .group         0x0000000000000000        0xc build/main.o
 .group         0x0000000000000000        0xc build/main.o
 .group         0x0000000000000000        0xc build/main.o
 .group         0x0000000000000000        0xc build/main.o
Memory Configuration

Name             Origin             Length             Attributes
FLASH            0x0000000008000000 0x0000000000040000 xr
RAM              0x0000000020000000 0x0000000000008000 xrw
*default*        0x0000000000000000 0xffffffffffffffff

Linker script and memory map

LOAD /opt/gcc-arm-none-eabi/bin/../lib/gcc/arm-none-eabi/8.3.1/thumb/v6-m/nofp/crti.o
LOAD /opt/gcc-arm-none-eabi/bin/../lib/gcc/arm-none-eabi/8.3.1/thumb/v6-m/nofp/crtbegin.o
LOAD /opt/gcc-arm-none-eabi/bin/../lib/gcc/arm-none-eabi/8.3.1/../../../../arm-none-eabi/lib/thumb/v6-m/nofp/crt0.o
LOAD build/main.o
LOAD build/freertos.o
LOAD build/stm32f0xx_it.o
LOAD build/stm32f0xx_hal_msp.o
LOAD build/stm32f0xx_hal_timebase_tim.o
LOAD build/stm32f0xx_hal_i2c.o
LOAD build/stm32f0xx_hal_i2c_ex.o
LOAD build/stm32f0xx_hal_iwdg.o
LOAD build/stm32f0xx_hal_tim.o
LOAD build/stm32f0xx_hal_tim_ex.o
LOAD build/stm32f0xx_hal_uart.o
LOAD build/stm32f0xx_hal_uart_ex.o
LOAD build/stm32f0xx_hal_rcc.o
LOAD build/stm32f0xx_hal_rcc_ex.o
LOAD build/stm32f0xx_hal.o
LOAD build/stm32f0xx_hal_gpio.o
LOAD build/stm32f0xx_hal_dma.o
LOAD build/stm32f0xx_hal_cortex.o
LOAD build/stm32f0xx_hal_pwr.o
LOAD build/stm32f0xx_hal_pwr_ex.o
LOAD build/stm32f0xx_hal_flash.o
LOAD build/stm32f0xx_hal_flash_ex.o
LOAD build/stm32f0xx_hal_crc.o
LOAD build/stm32f0xx_hal_crc_ex.o
LOAD build/system_stm32f0xx.o
LOAD build/croutine.o
LOAD build/event_groups.o
LOAD build/list.o
LOAD build/queue.o
LOAD build/tasks.o
LOAD build/timers.o
LOAD build/cmsis_os.o
LOAD build/port.o
LOAD build/heap_4.o
LOAD build/dma_usart_idle.o
LOAD build/modbus.o
LOAD build/modbus_device.o
LOAD build/ext_mem.o
LOAD build/CRC.o
LOAD build/errors.o
LOAD build/log.o
LOAD build/user_cmd.o
LOAD build/soft_timer.o
LOAD build/startup_stm32f091xc.o
LOAD /opt/gcc-arm-none-eabi/bin/../lib/gcc/arm-none-eabi/8.3.1/../../../../arm-none-eabi/lib/thumb/v6-m/nofp/libc_nano.a
LOAD /opt/gcc-arm-none-eabi/bin/../lib/gcc/arm-none-eabi/8.3.1/../../../../arm-none-eabi/lib/thumb/v6-m/nofp/libm.a
LOAD /opt/gcc-arm-none-eabi/bin/../lib/gcc/arm-none-eabi/8.3.1/../../../../arm-none-eabi/lib/thumb/v6-m/nofp/libnosys.a
START GROUP
LOAD /opt/gcc-arm-none-eabi/bin/../lib/gcc/arm-none-eabi/8.3.1/thumb/v6-m/nofp/libgcc.a
LOAD /opt/gcc-arm-none-eabi/bin/../lib/gcc/arm-none-eabi/8.3.1/../../../../arm-none-eabi/lib/thumb/v6-m/nofp/libc_nano.a
END GROUP
START GROUP
LOAD /opt/gcc-arm-none-eabi/bin/../lib/gcc/arm-none-eabi/8.3.1/thumb/v6-m/nofp/libgcc.a
LOAD /opt/gcc-arm-none-eabi/bin/../lib/gcc/arm-none-eabi/8.3.1/../../../../arm-none-eabi/lib/thumb/v6-m/nofp/libc_nano.a
END GROUP
LOAD /opt/gcc-arm-none-eabi/bin/../lib/gcc/arm-none-eabi/8.3.1/thumb/v6-m/nofp/crtend.o
LOAD /opt/gcc-arm-none-eabi/bin/../lib/gcc/arm-none-eabi/8.3.1/thumb/v6-m/nofp/crtn.o
                0x0000000020008000                _estack = 0x20008000
                0x0000000000000200                _Min_Heap_Size = 0x200
                0x0000000000000400                _Min_Stack_Size = 0x400

.isr_vector     0x0000000008000000       0xbc
                0x0000000008000000                . = ALIGN (0x4)
 *(.isr_vector)
 .isr_vector    0x0000000008000000       0xbc build/startup_stm32f091xc.o
                0x0000000008000000                g_pfnVectors
                0x00000000080000bc                . = ALIGN (0x4)

.text           0x00000000080000c0     0x6e60
                0x00000000080000c0                . = ALIGN (0x4)
 *(.text)
 .text          0x00000000080000c0       0x48 /opt/gcc-arm-none-eabi/bin/../lib/gcc/arm-none-eabi/8.3.1/thumb/v6-m/nofp/crtbegin.o
 .text          0x0000000008000108       0x14 /opt/gcc-arm-none-eabi/bin/../lib/gcc/arm-none-eabi/8.3.1/thumb/v6-m/nofp/libgcc.a(_thumb1_case_sqi.o)
                0x0000000008000108                __gnu_thumb1_case_sqi
 .text          0x000000000800011c       0x14 /opt/gcc-arm-none-eabi/bin/../lib/gcc/arm-none-eabi/8.3.1/thumb/v6-m/nofp/libgcc.a(_thumb1_case_uqi.o)
                0x000000000800011c                __gnu_thumb1_case_uqi
 .text          0x0000000008000130       0x14 /opt/gcc-arm-none-eabi/bin/../lib/gcc/arm-none-eabi/8.3.1/thumb/v6-m/nofp/libgcc.a(_thumb1_case_uhi.o)
                0x0000000008000130                __gnu_thumb1_case_uhi
 .text          0x0000000008000144      0x114 /opt/gcc-arm-none-eabi/bin/../lib/gcc/arm-none-eabi/8.3.1/thumb/v6-m/nofp/libgcc.a(_udivsi3.o)
                0x0000000008000144                __udivsi3
                0x0000000008000144                __aeabi_uidiv
                0x0000000008000250                __aeabi_uidivmod
 .text          0x0000000008000258      0x1d4 /opt/gcc-arm-none-eabi/bin/../lib/gcc/arm-none-eabi/8.3.1/thumb/v6-m/nofp/libgcc.a(_divsi3.o)
                0x0000000008000258                __aeabi_idiv
                0x0000000008000258                __divsi3
                0x0000000008000424                __aeabi_idivmod
 .text          0x000000000800042c        0x4 /opt/gcc-arm-none-eabi/bin/../lib/gcc/arm-none-eabi/8.3.1/thumb/v6-m/nofp/libgcc.a(_dvmd_tls.o)
                0x000000000800042c                __aeabi_ldiv0
                0x000000000800042c                __aeabi_idiv0
 *(.text*)
 .text.modbus_task
                0x0000000008000430       0x70 build/main.o
                0x0000000008000430                modbus_task
 .text.output_process
                0x00000000080004a0       0x7c build/main.o
                0x00000000080004a0                output_process
 .text.int_ext_pins_init
                0x000000000800051c       0x9c build/main.o
                0x000000000800051c                int_ext_pins_init
 .text.crc_calc_page
                0x00000000080005b8       0x1c build/main.o
                0x00000000080005b8                crc_calc_page
 .text.tick_task
                0x00000000080005d4       0xa4 build/main.o
                0x00000000080005d4                tick_task
 .text.SystemClock_Config
                0x0000000008000678       0x74 build/main.o
                0x0000000008000678                SystemClock_Config
 .text.startup.main
                0x00000000080006ec      0x2ac build/main.o
                0x00000000080006ec                main
 .text.Error_Handler
                0x0000000008000998        0x2 build/main.o
                0x0000000008000998                Error_Handler
 .text.vApplicationStackOverflowHook
                0x000000000800099a        0x2 build/main.o
                0x000000000800099a                vApplicationStackOverflowHook
 .text.NMI_Handler
                0x000000000800099c        0x2 build/stm32f0xx_it.o
                0x000000000800099c                NMI_Handler
 .text.HardFault_Handler
                0x000000000800099e        0x2 build/stm32f0xx_it.o
                0x000000000800099e                HardFault_Handler
 .text.DMA1_Ch1_IRQHandler
                0x00000000080009a0       0x10 build/stm32f0xx_it.o
                0x00000000080009a0                DMA1_Ch1_IRQHandler
 .text.DMA1_Ch2_3_DMA2_Ch1_2_IRQHandler
                0x00000000080009b0       0x38 build/stm32f0xx_it.o
                0x00000000080009b0                DMA1_Ch2_3_DMA2_Ch1_2_IRQHandler
 .text.DMA1_Ch4_7_DMA2_Ch3_5_IRQHandler
                0x00000000080009e8       0x3c build/stm32f0xx_it.o
                0x00000000080009e8                DMA1_Ch4_7_DMA2_Ch3_5_IRQHandler
 .text.TIM6_DAC_IRQHandler
                0x0000000008000a24       0x10 build/stm32f0xx_it.o
                0x0000000008000a24                TIM6_DAC_IRQHandler
 .text.USART3_8_IRQHandler
                0x0000000008000a34       0x1c build/stm32f0xx_it.o
                0x0000000008000a34                USART3_8_IRQHandler
 .text.USART2_IRQHandler
                0x0000000008000a50       0x1c build/stm32f0xx_it.o
                0x0000000008000a50                USART2_IRQHandler
 .text.HAL_TIM_OC_DelayElapsedCallback
                0x0000000008000a6c        0x2 build/stm32f0xx_it.o
                0x0000000008000a6c                HAL_TIM_OC_DelayElapsedCallback
 *fill*         0x0000000008000a6e        0x2 
 .text.HAL_TIM_PeriodElapsedCallback
                0x0000000008000a70       0x14 build/stm32f0xx_it.o
                0x0000000008000a70                HAL_TIM_PeriodElapsedCallback
 .text.HAL_TIM_IC_CaptureCallback
                0x0000000008000a84        0x2 build/stm32f0xx_it.o
                0x0000000008000a84                HAL_TIM_IC_CaptureCallback
 .text.TIM1_BRK_UP_TRG_COM_IRQHandler
                0x0000000008000a86        0x2 build/stm32f0xx_it.o
                0x0000000008000a86                TIM1_BRK_UP_TRG_COM_IRQHandler
 .text.TIM1_CC_IRQHandler
                0x0000000008000a88        0x2 build/stm32f0xx_it.o
                0x0000000008000a88                TIM1_CC_IRQHandler
 .text.TIM3_IRQHandler
                0x0000000008000a8a        0x2 build/stm32f0xx_it.o
                0x0000000008000a8a                TIM3_IRQHandler
 .text.EXTI0_1_IRQHandler
                0x0000000008000a8c        0x2 build/stm32f0xx_it.o
                0x0000000008000a8c                EXTI0_1_IRQHandler
 .text.EXTI2_3_IRQHandler
                0x0000000008000a8e        0x2 build/stm32f0xx_it.o
                0x0000000008000a8e                EXTI2_3_IRQHandler
 .text.EXTI4_15_IRQHandler
                0x0000000008000a90        0x2 build/stm32f0xx_it.o
                0x0000000008000a90                EXTI4_15_IRQHandler
 .text.TIM2_IRQHandler
                0x0000000008000a92        0x2 build/stm32f0xx_it.o
                0x0000000008000a92                TIM2_IRQHandler
 .text.TIM7_IRQHandler
                0x0000000008000a94       0x1c build/stm32f0xx_it.o
                0x0000000008000a94                TIM7_IRQHandler
 .text.HAL_MspInit
                0x0000000008000ab0       0x38 build/stm32f0xx_hal_msp.o
                0x0000000008000ab0                HAL_MspInit
 .text.HAL_I2C_MspInit
                0x0000000008000ae8       0x68 build/stm32f0xx_hal_msp.o
                0x0000000008000ae8                HAL_I2C_MspInit
 .text.HAL_UART_MspInit
                0x0000000008000b50      0x1e4 build/stm32f0xx_hal_msp.o
                0x0000000008000b50                HAL_UART_MspInit
 .text.HAL_UART_MspDeInit
                0x0000000008000d34       0x74 build/stm32f0xx_hal_msp.o
                0x0000000008000d34                HAL_UART_MspDeInit
 .text.HAL_InitTick
                0x0000000008000da8       0x78 build/stm32f0xx_hal_timebase_tim.o
                0x0000000008000da8                HAL_InitTick
 .text.I2C_Flush_TXDR
                0x0000000008000e20       0x1c build/stm32f0xx_hal_i2c.o
 .text.I2C_TransferConfig
                0x0000000008000e3c       0x24 build/stm32f0xx_hal_i2c.o
 .text.I2C_WaitOnFlagUntilTimeout
                0x0000000008000e60       0x4c build/stm32f0xx_hal_i2c.o
 .text.I2C_IsAcknowledgeFailed
                0x0000000008000eac       0x80 build/stm32f0xx_hal_i2c.o
 .text.I2C_WaitOnTXISFlagUntilTimeout
                0x0000000008000f2c       0x5a build/stm32f0xx_hal_i2c.o
 .text.I2C_RequestMemoryWrite
                0x0000000008000f86       0x68 build/stm32f0xx_hal_i2c.o
 .text.I2C_RequestMemoryRead
                0x0000000008000fee       0x66 build/stm32f0xx_hal_i2c.o
 .text.I2C_WaitOnSTOPFlagUntilTimeout
                0x0000000008001054       0x56 build/stm32f0xx_hal_i2c.o
 *fill*         0x00000000080010aa        0x2 
 .text.HAL_I2C_Init
                0x00000000080010ac       0xac build/stm32f0xx_hal_i2c.o
                0x00000000080010ac                HAL_I2C_Init
 .text.HAL_I2C_Mem_Write
                0x0000000008001158      0x174 build/stm32f0xx_hal_i2c.o
                0x0000000008001158                HAL_I2C_Mem_Write
 .text.HAL_I2C_Mem_Read
                0x00000000080012cc      0x180 build/stm32f0xx_hal_i2c.o
                0x00000000080012cc                HAL_I2C_Mem_Read
 .text.HAL_I2CEx_ConfigAnalogFilter
                0x000000000800144c       0x4c build/stm32f0xx_hal_i2c_ex.o
                0x000000000800144c                HAL_I2CEx_ConfigAnalogFilter
 .text.HAL_I2CEx_ConfigDigitalFilter
                0x0000000008001498       0x48 build/stm32f0xx_hal_i2c_ex.o
                0x0000000008001498                HAL_I2CEx_ConfigDigitalFilter
 .text.HAL_TIM_Base_MspInit
                0x00000000080014e0        0x2 build/stm32f0xx_hal_tim.o
                0x00000000080014e0                HAL_TIM_Base_MspInit
 .text.HAL_TIM_Base_Start_IT
                0x00000000080014e2       0x14 build/stm32f0xx_hal_tim.o
                0x00000000080014e2                HAL_TIM_Base_Start_IT
 .text.HAL_TIM_PWM_PulseFinishedCallback
                0x00000000080014f6        0x2 build/stm32f0xx_hal_tim.o
                0x00000000080014f6                HAL_TIM_PWM_PulseFinishedCallback
 .text.HAL_TIM_TriggerCallback
                0x00000000080014f8        0x2 build/stm32f0xx_hal_tim.o
                0x00000000080014f8                HAL_TIM_TriggerCallback
 .text.HAL_TIM_IRQHandler
                0x00000000080014fa      0x148 build/stm32f0xx_hal_tim.o
                0x00000000080014fa                HAL_TIM_IRQHandler
 *fill*         0x0000000008001642        0x2 
 .text.TIM_Base_SetConfig
                0x0000000008001644       0xa0 build/stm32f0xx_hal_tim.o
                0x0000000008001644                TIM_Base_SetConfig
 .text.HAL_TIM_Base_Init
                0x00000000080016e4       0x36 build/stm32f0xx_hal_tim.o
                0x00000000080016e4                HAL_TIM_Base_Init
 .text.TIM_CCxChannelCmd
                0x000000000800171a       0x16 build/stm32f0xx_hal_tim.o
                0x000000000800171a                TIM_CCxChannelCmd
 .text.HAL_TIMEx_CommutationCallback
                0x0000000008001730        0x2 build/stm32f0xx_hal_tim_ex.o
                0x0000000008001730                HAL_TIMEx_CommutationCallback
 .text.HAL_TIMEx_BreakCallback
                0x0000000008001732        0x2 build/stm32f0xx_hal_tim_ex.o
                0x0000000008001732                HAL_TIMEx_BreakCallback
 .text.UART_EndRxTransfer
                0x0000000008001734       0x20 build/stm32f0xx_hal_uart.o
 .text.HAL_UART_DeInit
                0x0000000008001754       0x3a build/stm32f0xx_hal_uart.o
                0x0000000008001754                HAL_UART_DeInit
 *fill*         0x000000000800178e        0x2 
 .text.HAL_UART_Transmit_DMA
                0x0000000008001790       0x90 build/stm32f0xx_hal_uart.o
                0x0000000008001790                HAL_UART_Transmit_DMA
 .text.HAL_UART_Receive_DMA
                0x0000000008001820       0xa0 build/stm32f0xx_hal_uart.o
                0x0000000008001820                HAL_UART_Receive_DMA
 .text.HAL_UART_TxCpltCallback
                0x00000000080018c0        0x2 build/stm32f0xx_hal_uart.o
                0x00000000080018c0                HAL_UART_TxCpltCallback
 .text.UART_DMATransmitCplt
                0x00000000080018c2       0x30 build/stm32f0xx_hal_uart.o
 .text.HAL_UART_TxHalfCpltCallback
                0x00000000080018f2        0x2 build/stm32f0xx_hal_uart.o
                0x00000000080018f2                HAL_UART_TxHalfCpltCallback
 .text.UART_DMATxHalfCplt
                0x00000000080018f4        0xa build/stm32f0xx_hal_uart.o
 .text.HAL_UART_RxCpltCallback
                0x00000000080018fe        0x2 build/stm32f0xx_hal_uart.o
                0x00000000080018fe                HAL_UART_RxCpltCallback
 .text.UART_DMAReceiveCplt
                0x0000000008001900       0x44 build/stm32f0xx_hal_uart.o
 .text.HAL_UART_RxHalfCpltCallback
                0x0000000008001944        0x2 build/stm32f0xx_hal_uart.o
                0x0000000008001944                HAL_UART_RxHalfCpltCallback
 .text.UART_DMARxHalfCplt
                0x0000000008001946        0xa build/stm32f0xx_hal_uart.o
 .text.HAL_UART_ErrorCallback
                0x0000000008001950        0x2 build/stm32f0xx_hal_uart.o
                0x0000000008001950                HAL_UART_ErrorCallback
 .text.UART_DMAError
                0x0000000008001952       0x5a build/stm32f0xx_hal_uart.o
 .text.UART_DMAAbortOnError
                0x00000000080019ac       0x16 build/stm32f0xx_hal_uart.o
 *fill*         0x00000000080019c2        0x2 
 .text.UART_SetConfig
                0x00000000080019c4      0x1d4 build/stm32f0xx_hal_uart.o
                0x00000000080019c4                UART_SetConfig
 .text.UART_AdvFeatureConfig
                0x0000000008001b98       0xd0 build/stm32f0xx_hal_uart.o
                0x0000000008001b98                UART_AdvFeatureConfig
 .text.UART_WaitOnFlagUntilTimeout
                0x0000000008001c68       0x64 build/stm32f0xx_hal_uart.o
                0x0000000008001c68                UART_WaitOnFlagUntilTimeout
 .text.HAL_UART_Transmit
                0x0000000008001ccc       0xcc build/stm32f0xx_hal_uart.o
                0x0000000008001ccc                HAL_UART_Transmit
 .text.UART_CheckIdleState
                0x0000000008001d98       0x84 build/stm32f0xx_hal_uart.o
                0x0000000008001d98                UART_CheckIdleState
 .text.HAL_UART_Init
                0x0000000008001e1c       0x6c build/stm32f0xx_hal_uart.o
                0x0000000008001e1c                HAL_UART_Init
 .text.UART_Transmit_IT
                0x0000000008001e88       0x64 build/stm32f0xx_hal_uart.o
                0x0000000008001e88                UART_Transmit_IT
 .text.UART_EndTransmit_IT
                0x0000000008001eec       0x1c build/stm32f0xx_hal_uart.o
                0x0000000008001eec                UART_EndTransmit_IT
 .text.UART_Receive_IT
                0x0000000008001f08       0x7c build/stm32f0xx_hal_uart.o
                0x0000000008001f08                UART_Receive_IT
 .text.HAL_UART_IRQHandler
                0x0000000008001f84      0x124 build/stm32f0xx_hal_uart.o
                0x0000000008001f84                HAL_UART_IRQHandler
 .text.HAL_RS485Ex_Init
                0x00000000080020a8       0x8c build/stm32f0xx_hal_uart_ex.o
                0x00000000080020a8                HAL_RS485Ex_Init
 .text.HAL_UARTEx_WakeupCallback
                0x0000000008002134        0x2 build/stm32f0xx_hal_uart_ex.o
                0x0000000008002134                HAL_UARTEx_WakeupCallback
 *fill*         0x0000000008002136        0x2 
 .text.HAL_RCC_OscConfig
                0x0000000008002138      0x464 build/stm32f0xx_hal_rcc.o
                0x0000000008002138                HAL_RCC_OscConfig
 .text.HAL_RCC_GetSysClockFreq
                0x000000000800259c       0x84 build/stm32f0xx_hal_rcc.o
                0x000000000800259c                HAL_RCC_GetSysClockFreq
 .text.HAL_RCC_ClockConfig
                0x0000000008002620      0x160 build/stm32f0xx_hal_rcc.o
                0x0000000008002620                HAL_RCC_ClockConfig
 .text.HAL_RCC_GetPCLK1Freq
                0x0000000008002780       0x20 build/stm32f0xx_hal_rcc.o
                0x0000000008002780                HAL_RCC_GetPCLK1Freq
 .text.HAL_RCC_GetClockConfig
                0x00000000080027a0       0x38 build/stm32f0xx_hal_rcc.o
                0x00000000080027a0                HAL_RCC_GetClockConfig
 .text.HAL_RCCEx_PeriphCLKConfig
                0x00000000080027d8      0x144 build/stm32f0xx_hal_rcc_ex.o
                0x00000000080027d8                HAL_RCCEx_PeriphCLKConfig
 .text.HAL_Init
                0x000000000800291c       0x10 build/stm32f0xx_hal.o
                0x000000000800291c                HAL_Init
 .text.HAL_IncTick
                0x000000000800292c       0x10 build/stm32f0xx_hal.o
                0x000000000800292c                HAL_IncTick
 .text.HAL_GetTick
                0x000000000800293c        0xc build/stm32f0xx_hal.o
                0x000000000800293c                HAL_GetTick
 .text.HAL_GPIO_Init
                0x0000000008002948      0x178 build/stm32f0xx_hal_gpio.o
                0x0000000008002948                HAL_GPIO_Init
 .text.HAL_GPIO_DeInit
                0x0000000008002ac0       0xf8 build/stm32f0xx_hal_gpio.o
                0x0000000008002ac0                HAL_GPIO_DeInit
 .text.HAL_GPIO_WritePin
                0x0000000008002bb8        0xc build/stm32f0xx_hal_gpio.o
                0x0000000008002bb8                HAL_GPIO_WritePin
 .text.DMA_CalcBaseAndBitshift
                0x0000000008002bc4       0x48 build/stm32f0xx_hal_dma.o
 .text.HAL_DMA_Init
                0x0000000008002c0c       0x58 build/stm32f0xx_hal_dma.o
                0x0000000008002c0c                HAL_DMA_Init
 .text.HAL_DMA_DeInit
                0x0000000008002c64       0x3a build/stm32f0xx_hal_dma.o
                0x0000000008002c64                HAL_DMA_DeInit
 .text.HAL_DMA_Start_IT
                0x0000000008002c9e       0x76 build/stm32f0xx_hal_dma.o
                0x0000000008002c9e                HAL_DMA_Start_IT
 .text.HAL_DMA_Abort_IT
                0x0000000008002d14       0x46 build/stm32f0xx_hal_dma.o
                0x0000000008002d14                HAL_DMA_Abort_IT
 .text.HAL_DMA_IRQHandler
                0x0000000008002d5a       0x92 build/stm32f0xx_hal_dma.o
                0x0000000008002d5a                HAL_DMA_IRQHandler
 .text.HAL_NVIC_SetPriority
                0x0000000008002dec       0x54 build/stm32f0xx_hal_cortex.o
                0x0000000008002dec                HAL_NVIC_SetPriority
 .text.HAL_NVIC_EnableIRQ
                0x0000000008002e40       0x14 build/stm32f0xx_hal_cortex.o
                0x0000000008002e40                HAL_NVIC_EnableIRQ
 .text.HAL_NVIC_DisableIRQ
                0x0000000008002e54       0x14 build/stm32f0xx_hal_cortex.o
                0x0000000008002e54                HAL_NVIC_DisableIRQ
 .text.CRC_Handle_8
                0x0000000008002e68       0x5e build/stm32f0xx_hal_crc.o
 .text.CRC_Handle_16
                0x0000000008002ec6       0x2c build/stm32f0xx_hal_crc.o
 .text.HAL_CRC_MspInit
                0x0000000008002ef2        0x2 build/stm32f0xx_hal_crc.o
                0x0000000008002ef2                HAL_CRC_MspInit
 .text.HAL_CRC_Init
                0x0000000008002ef4       0x54 build/stm32f0xx_hal_crc.o
                0x0000000008002ef4                HAL_CRC_Init
 .text.HAL_CRC_Calculate
                0x0000000008002f48       0x56 build/stm32f0xx_hal_crc.o
                0x0000000008002f48                HAL_CRC_Calculate
 .text.HAL_CRCEx_Polynomial_Set
                0x0000000008002f9e       0x58 build/stm32f0xx_hal_crc_ex.o
                0x0000000008002f9e                HAL_CRCEx_Polynomial_Set
 *fill*         0x0000000008002ff6        0x2 
 .text.HAL_CRCEx_Init
                0x0000000008002ff8       0x30 build/stm32f0xx_hal_crc_ex.o
                0x0000000008002ff8                HAL_CRCEx_Init
 .text.SystemInit
                0x0000000008003028       0x60 build/system_stm32f0xx.o
                0x0000000008003028                SystemInit
 .text.vListInitialise
                0x0000000008003088       0x16 build/list.o
                0x0000000008003088                vListInitialise
 .text.vListInitialiseItem
                0x000000000800309e        0x6 build/list.o
                0x000000000800309e                vListInitialiseItem
 .text.vListInsertEnd
                0x00000000080030a4       0x18 build/list.o
                0x00000000080030a4                vListInsertEnd
 .text.vListInsert
                0x00000000080030bc       0x2e build/list.o
                0x00000000080030bc                vListInsert
 .text.uxListRemove
                0x00000000080030ea       0x1e build/list.o
                0x00000000080030ea                uxListRemove
 .text.prvCopyDataToQueue
                0x0000000008003108       0x76 build/queue.o
 .text.prvCopyDataFromQueue
                0x000000000800317e       0x24 build/queue.o
 .text.prvUnlockQueue
                0x00000000080031a2       0x6a build/queue.o
 .text.xQueueGenericReset
                0x000000000800320c       0x68 build/queue.o
                0x000000000800320c                xQueueGenericReset
 .text.xQueueGenericCreate
                0x0000000008003274       0x36 build/queue.o
                0x0000000008003274                xQueueGenericCreate
 .text.xQueueGenericSend
                0x00000000080032aa      0x120 build/queue.o
                0x00000000080032aa                xQueueGenericSend
 .text.xQueueCreateMutex
                0x00000000080033ca       0x30 build/queue.o
                0x00000000080033ca                xQueueCreateMutex
 .text.xQueueGenericSendFromISR
                0x00000000080033fa       0x92 build/queue.o
                0x00000000080033fa                xQueueGenericSendFromISR
 .text.xQueueGiveFromISR
                0x000000000800348c       0x78 build/queue.o
                0x000000000800348c                xQueueGiveFromISR
 .text.xQueueGenericReceive
                0x0000000008003504      0x150 build/queue.o
                0x0000000008003504                xQueueGenericReceive
 .text.xQueueReceiveFromISR
                0x0000000008003654       0x7e build/queue.o
                0x0000000008003654                xQueueReceiveFromISR
 *fill*         0x00000000080036d2        0x2 
 .text.prvResetNextTaskUnblockTime
                0x00000000080036d4       0x28 build/tasks.o
 .text.prvAddCurrentTaskToDelayedList
                0x00000000080036fc       0x70 build/tasks.o
 .text.xTaskCreate
                0x000000000800376c      0x1bc build/tasks.o
                0x000000000800376c                xTaskCreate
 .text.vTaskStartScheduler
                0x0000000008003928       0x54 build/tasks.o
                0x0000000008003928                vTaskStartScheduler
 .text.vTaskSuspendAll
                0x000000000800397c       0x10 build/tasks.o
                0x000000000800397c                vTaskSuspendAll
 .text.xTaskIncrementTick
                0x000000000800398c       0xfc build/tasks.o
                0x000000000800398c                xTaskIncrementTick
 .text.xTaskResumeAll
                0x0000000008003a88       0xd0 build/tasks.o
                0x0000000008003a88                xTaskResumeAll
 .text.vTaskDelay
                0x0000000008003b58       0x34 build/tasks.o
                0x0000000008003b58                vTaskDelay
 .text.prvIdleTask
                0x0000000008003b8c       0x68 build/tasks.o
 .text.vTaskSwitchContext
                0x0000000008003bf4       0x84 build/tasks.o
                0x0000000008003bf4                vTaskSwitchContext
 .text.vTaskPlaceOnEventList
                0x0000000008003c78       0x24 build/tasks.o
                0x0000000008003c78                vTaskPlaceOnEventList
 .text.xTaskRemoveFromEventList
                0x0000000008003c9c       0x78 build/tasks.o
                0x0000000008003c9c                xTaskRemoveFromEventList
 .text.vTaskSetTimeOutState
                0x0000000008003d14       0x20 build/tasks.o
                0x0000000008003d14                vTaskSetTimeOutState
 .text.xTaskCheckForTimeOut
                0x0000000008003d34       0x60 build/tasks.o
                0x0000000008003d34                xTaskCheckForTimeOut
 .text.vTaskMissedYield
                0x0000000008003d94        0xc build/tasks.o
                0x0000000008003d94                vTaskMissedYield
 .text.uxTaskGetStackHighWaterMark
                0x0000000008003da0       0x20 build/tasks.o
                0x0000000008003da0                uxTaskGetStackHighWaterMark
 .text.xTaskGetSchedulerState
                0x0000000008003dc0       0x20 build/tasks.o
                0x0000000008003dc0                xTaskGetSchedulerState
 .text.vTaskPriorityInherit
                0x0000000008003de0       0x6c build/tasks.o
                0x0000000008003de0                vTaskPriorityInherit
 .text.xTaskPriorityDisinherit
                0x0000000008003e4c       0x6c build/tasks.o
                0x0000000008003e4c                xTaskPriorityDisinherit
 .text.pvTaskIncrementMutexHeldCount
                0x0000000008003eb8       0x18 build/tasks.o
                0x0000000008003eb8                pvTaskIncrementMutexHeldCount
 .text.osKernelStart
                0x0000000008003ed0        0xa build/cmsis_os.o
                0x0000000008003ed0                osKernelStart
 .text.osThreadCreate
                0x0000000008003eda       0x32 build/cmsis_os.o
                0x0000000008003eda                osThreadCreate
 .text.osDelay  0x0000000008003f0c       0x10 build/cmsis_os.o
                0x0000000008003f0c                osDelay
 .text.osSemaphoreCreate
                0x0000000008003f1c       0x24 build/cmsis_os.o
                0x0000000008003f1c                osSemaphoreCreate
 .text.prvTaskExitError
                0x0000000008003f40       0x14 build/port.o
 *fill*         0x0000000008003f54        0xc 
 .text.vPortStartFirstTask
                0x0000000008003f60       0x34 build/port.o
 .text.pxPortInitialiseStack
                0x0000000008003f94       0x20 build/port.o
                0x0000000008003f94                pxPortInitialiseStack
 .text.SVC_Handler
                0x0000000008003fb4        0x2 build/port.o
                0x0000000008003fb4                SVC_Handler
 *fill*         0x0000000008003fb6        0x2 
 .text.vPortYield
                0x0000000008003fb8       0x18 build/port.o
                0x0000000008003fb8                vPortYield
 .text.vPortEnterCritical
                0x0000000008003fd0       0x18 build/port.o
                0x0000000008003fd0                vPortEnterCritical
 .text.vPortExitCritical
                0x0000000008003fe8       0x1c build/port.o
                0x0000000008003fe8                vPortExitCritical
 .text.ulSetInterruptMaskFromISR
                0x0000000008004004        0xa build/port.o
                0x0000000008004004                ulSetInterruptMaskFromISR
 .text.vClearInterruptMaskFromISR
                0x000000000800400e        0x6 build/port.o
                0x000000000800400e                vClearInterruptMaskFromISR
 *fill*         0x0000000008004014        0xc 
 .text.PendSV_Handler
                0x0000000008004020       0x44 build/port.o
                0x0000000008004020                PendSV_Handler
 .text.SysTick_Handler
                0x0000000008004064       0x24 build/port.o
                0x0000000008004064                SysTick_Handler
 .text.vPortSetupTimerInterrupt
                0x0000000008004088       0x28 build/port.o
                0x0000000008004088                vPortSetupTimerInterrupt
 .text.xPortStartScheduler
                0x00000000080040b0       0x34 build/port.o
                0x00000000080040b0                xPortStartScheduler
 .text.prvInsertBlockIntoFreeList
                0x00000000080040e4       0x48 build/heap_4.o
 .text.pvPortMalloc
                0x000000000800412c       0xfc build/heap_4.o
                0x000000000800412c                pvPortMalloc
 .text.vPortFree
                0x0000000008004228       0x48 build/heap_4.o
                0x0000000008004228                vPortFree
 .text.USART4_IrqHandler
                0x0000000008004270      0x124 build/dma_usart_idle.o
                0x0000000008004270                USART4_IrqHandler
 .text.USART2_IrqHandler
                0x0000000008004394       0xa8 build/dma_usart_idle.o
                0x0000000008004394                USART2_IrqHandler
 .text.dma_usart_idle_init
                0x000000000800443c       0x84 build/dma_usart_idle.o
                0x000000000800443c                dma_usart_idle_init
 .text.dma_usart_idle_reinit
                0x00000000080044c0       0x44 build/dma_usart_idle.o
                0x00000000080044c0                dma_usart_idle_reinit
 .text.modbus_response_error
                0x0000000008004504       0x44 build/modbus.o
 .text.modbus_f3
                0x0000000008004548      0x114 build/modbus.o
                0x0000000008004548                modbus_f3
 .text.modbus_f6
                0x000000000800465c       0xd4 build/modbus.o
                0x000000000800465c                modbus_f6
 .text.modbus_f16
                0x0000000008004730      0x108 build/modbus.o
                0x0000000008004730                modbus_f16
 .text.modbus_on_rtu
                0x0000000008004838       0xb0 build/modbus.o
                0x0000000008004838                modbus_on_rtu
 .text.modbus_check_trasmition
                0x00000000080048e8       0x24 build/modbus.o
                0x00000000080048e8                modbus_check_trasmition
 .text.modbus_init
                0x000000000800490c       0x30 build/modbus.o
                0x000000000800490c                modbus_init
 .text.set_do_output_value
                0x000000000800493c       0x38 build/modbus_device.o
 .text.get_pin  0x0000000008004974       0x4e build/modbus_device.o
 *fill*         0x00000000080049c2        0x2 
 .text.init_pwm_timer.part.1
                0x00000000080049c4      0x154 build/modbus_device.o
 .text.init_rectangle_output
                0x0000000008004b18       0x44 build/modbus_device.o
 .text.mbd_update_time
                0x0000000008004b5c       0x38 build/modbus_device.o
                0x0000000008004b5c                mbd_update_time
 .text.operation_time
                0x0000000008004b94        0xc build/modbus_device.o
                0x0000000008004b94                operation_time
 .text.update_output
                0x0000000008004ba0       0x5c build/modbus_device.o
                0x0000000008004ba0                update_output
 .text.update_masked
                0x0000000008004bfc       0x1c build/modbus_device.o
                0x0000000008004bfc                update_masked
 .text.mbd_holding_reg
                0x0000000008004c18      0x2a4 build/modbus_device.o
                0x0000000008004c18                mbd_holding_reg
 .text.get_tim  0x0000000008004ebc       0x1c build/modbus_device.o
                0x0000000008004ebc                get_tim
 .text.turn_output_state
                0x0000000008004ed8       0x80 build/modbus_device.o
 .text.clear_output
                0x0000000008004f58       0x90 build/modbus_device.o
                0x0000000008004f58                clear_output
 .text.timer_7_init
                0x0000000008004fe8       0x60 build/modbus_device.o
                0x0000000008004fe8                timer_7_init
 .text.deinit_output
                0x0000000008005048       0x4c build/modbus_device.o
                0x0000000008005048                deinit_output
 .text.init_discrete_output
                0x0000000008005094      0x180 build/modbus_device.o
                0x0000000008005094                init_discrete_output
 .text.check_init_posibility
                0x0000000008005214       0xac build/modbus_device.o
                0x0000000008005214                check_init_posibility
 .text.output_configure
                0x00000000080052c0      0x1d0 build/modbus_device.o
 .text.mbd_inc_crc_err_rq
                0x0000000008005490       0x10 build/modbus_device.o
                0x0000000008005490                mbd_inc_crc_err_rq
 .text.mbd_inc_handled_rq
                0x00000000080054a0       0x10 build/modbus_device.o
                0x00000000080054a0                mbd_inc_handled_rq
 .text.mbd_inc_total_rq
                0x00000000080054b0       0x10 build/modbus_device.o
                0x00000000080054b0                mbd_inc_total_rq
 .text.mdb_inc_send_err
                0x00000000080054c0       0x10 build/modbus_device.o
                0x00000000080054c0                mdb_inc_send_err
 .text.mbd_process
                0x00000000080054d0       0x1c build/modbus_device.o
                0x00000000080054d0                mbd_process
 .text.drv_adum_enable_output_config
                0x00000000080054ec       0x44 build/modbus_device.o
                0x00000000080054ec                drv_adum_enable_output_config
 .text.mbd_rs485_init
                0x0000000008005530       0x58 build/modbus_device.o
                0x0000000008005530                mbd_rs485_init
 .text.mbd_exit_init_mode
                0x0000000008005588       0x2c build/modbus_device.o
                0x0000000008005588                mbd_exit_init_mode
 .text.mbd_write_reg
                0x00000000080055b4      0x2d0 build/modbus_device.o
                0x00000000080055b4                mbd_write_reg
 .text.mbd_init
                0x0000000008005884       0x80 build/modbus_device.o
                0x0000000008005884                mbd_init
 .text.mbd_output_params
                0x0000000008005904       0x40 build/modbus_device.o
                0x0000000008005904                mbd_output_params
 .text.mbd_output_load
                0x0000000008005944       0x44 build/modbus_device.o
                0x0000000008005944                mbd_output_load
 .text.mbd_common_params
                0x0000000008005988      0x108 build/modbus_device.o
                0x0000000008005988                mbd_common_params
 .text.mbd_log_status
                0x0000000008005a90       0x84 build/modbus_device.o
                0x0000000008005a90                mbd_log_status
 .text.mbd_set_common_params
                0x0000000008005b14       0xf4 build/modbus_device.o
                0x0000000008005b14                mbd_set_common_params
 .text.mbd_module_id
                0x0000000008005c08        0x8 build/modbus_device.o
                0x0000000008005c08                mbd_module_id
 .text.mbd_log_config
                0x0000000008005c10      0x13c build/modbus_device.o
                0x0000000008005c10                mbd_log_config
 .text.mbd_set_baudrate
                0x0000000008005d4c       0x10 build/modbus_device.o
                0x0000000008005d4c                mbd_set_baudrate
 .text.mbd_can_init
                0x0000000008005d5c       0x20 build/modbus_device.o
                0x0000000008005d5c                mbd_can_init
 .text.mbd_is_init
                0x0000000008005d7c        0xc build/modbus_device.o
                0x0000000008005d7c                mbd_is_init
 .text.mbd_int_init
                0x0000000008005d88       0x28 build/modbus_device.o
                0x0000000008005d88                mbd_int_init
 .text.mbd_ext_init
                0x0000000008005db0       0x28 build/modbus_device.o
                0x0000000008005db0                mbd_ext_init
 .text.mbd_addr
                0x0000000008005dd8       0x10 build/modbus_device.o
                0x0000000008005dd8                mbd_addr
 .text.ext_mem_store
                0x0000000008005de8       0xac build/ext_mem.o
                0x0000000008005de8                ext_mem_store
 .text.ext_mem_store_time
                0x0000000008005e94       0x48 build/ext_mem.o
                0x0000000008005e94                ext_mem_store_time
 .text.ext_mem_init
                0x0000000008005edc       0x40 build/ext_mem.o
                0x0000000008005edc                ext_mem_init
 .text.ext_mem_load
                0x0000000008005f1c       0xe4 build/ext_mem.o
                0x0000000008005f1c                ext_mem_load
 .text.ext_mem_store_errors
                0x0000000008006000       0x4c build/ext_mem.o
                0x0000000008006000                ext_mem_store_errors
 .text.ext_mem_read_errors
                0x000000000800604c       0x30 build/ext_mem.o
                0x000000000800604c                ext_mem_read_errors
 .text.CRC16    0x000000000800607c       0x38 build/CRC.o
                0x000000000800607c                CRC16
 .text.str_error
                0x00000000080060b4       0x1c build/errors.o
                0x00000000080060b4                str_error
 .text.errors_on_error
                0x00000000080060d0       0x50 build/errors.o
                0x00000000080060d0                errors_on_error
 .text.errors_init
                0x0000000008006120       0x28 build/errors.o
                0x0000000008006120                errors_init
 .text.errors_log_errors
                0x0000000008006148       0x48 build/errors.o
                0x0000000008006148                errors_log_errors
 .text.errors_buffer
                0x0000000008006190        0x8 build/errors.o
                0x0000000008006190                errors_buffer
 .text.errors_size
                0x0000000008006198       0x14 build/errors.o
                0x0000000008006198                errors_size
 .text.errors_is_update
                0x00000000080061ac        0xc build/errors.o
                0x00000000080061ac                errors_is_update
 .text.errors_update_clear
                0x00000000080061b8        0xc build/errors.o
                0x00000000080061b8                errors_update_clear
 .text.log_log  0x00000000080061c4       0xa4 build/log.o
                0x00000000080061c4                log_log
 .text.log_out  0x0000000008006268       0x68 build/log.o
                0x0000000008006268                log_out
 .text.user_cmd
                0x00000000080062d0       0x8c build/user_cmd.o
                0x00000000080062d0                user_cmd
 .text.soft_timer_init
                0x000000000800635c       0x34 build/soft_timer.o
                0x000000000800635c                soft_timer_init
 .text.soft_timer_stop
                0x0000000008006390       0x1c build/soft_timer.o
                0x0000000008006390                soft_timer_stop
 .text.soft_timer_tick
                0x00000000080063ac       0x24 build/soft_timer.o
                0x00000000080063ac                soft_timer_tick
 .text.soft_timer_poll
                0x00000000080063d0       0x5c build/soft_timer.o
                0x00000000080063d0                soft_timer_poll
 .text.Reset_Handler
                0x000000000800642c       0x50 build/startup_stm32f091xc.o
                0x000000000800642c                Reset_Handler
 .text.Default_Handler
                0x000000000800647c        0x2 build/startup_stm32f091xc.o
                0x000000000800647c                TSC_IRQHandler
                0x000000000800647c                ADC1_COMP_IRQHandler
                0x000000000800647c                I2C1_IRQHandler
                0x000000000800647c                RCC_CRS_IRQHandler
                0x000000000800647c                SPI1_IRQHandler
                0x000000000800647c                I2C2_IRQHandler
                0x000000000800647c                TIM17_IRQHandler
                0x000000000800647c                CEC_CAN_IRQHandler
                0x000000000800647c                RTC_IRQHandler
                0x000000000800647c                PVD_VDDIO2_IRQHandler
                0x000000000800647c                TIM16_IRQHandler
                0x000000000800647c                Default_Handler
                0x000000000800647c                TIM14_IRQHandler
                0x000000000800647c                TIM15_IRQHandler
                0x000000000800647c                SPI2_IRQHandler
                0x000000000800647c                WWDG_IRQHandler
                0x000000000800647c                FLASH_IRQHandler
                0x000000000800647c                USART1_IRQHandler
 .text.atoi     0x000000000800647e        0xc /opt/gcc-arm-none-eabi/bin/../lib/gcc/arm-none-eabi/8.3.1/../../../../arm-none-eabi/lib/thumb/v6-m/nofp/libc_nano.a(lib_a-atoi.o)
                0x000000000800647e                atoi
 *fill*         0x000000000800648a        0x2 
 .text.__libc_init_array
                0x000000000800648c       0x48 /opt/gcc-arm-none-eabi/bin/../lib/gcc/arm-none-eabi/8.3.1/../../../../arm-none-eabi/lib/thumb/v6-m/nofp/libc_nano.a(lib_a-init.o)
                0x000000000800648c                __libc_init_array
 .text.memcpy   0x00000000080064d4       0x12 /opt/gcc-arm-none-eabi/bin/../lib/gcc/arm-none-eabi/8.3.1/../../../../arm-none-eabi/lib/thumb/v6-m/nofp/libc_nano.a(lib_a-memcpy-stub.o)
                0x00000000080064d4                memcpy
 .text.memset   0x00000000080064e6       0x10 /opt/gcc-arm-none-eabi/bin/../lib/gcc/arm-none-eabi/8.3.1/../../../../arm-none-eabi/lib/thumb/v6-m/nofp/libc_nano.a(lib_a-memset.o)
                0x00000000080064e6                memset
 *fill*         0x00000000080064f6        0x2 
 .text.snprintf
                0x00000000080064f8       0x64 /opt/gcc-arm-none-eabi/bin/../lib/gcc/arm-none-eabi/8.3.1/../../../../arm-none-eabi/lib/thumb/v6-m/nofp/libc_nano.a(lib_a-snprintf.o)
                0x00000000080064f8                snprintf
                0x00000000080064f8                sniprintf
 .text.strstr   0x000000000800655c       0x2c /opt/gcc-arm-none-eabi/bin/../lib/gcc/arm-none-eabi/8.3.1/../../../../arm-none-eabi/lib/thumb/v6-m/nofp/libc_nano.a(lib_a-strstr.o)
                0x000000000800655c                strstr
 .text._strtol_l.isra.0
                0x0000000008006588       0xfc /opt/gcc-arm-none-eabi/bin/../lib/gcc/arm-none-eabi/8.3.1/../../../../arm-none-eabi/lib/thumb/v6-m/nofp/libc_nano.a(lib_a-strtol.o)
 .text.strtol   0x0000000008006684       0x18 /opt/gcc-arm-none-eabi/bin/../lib/gcc/arm-none-eabi/8.3.1/../../../../arm-none-eabi/lib/thumb/v6-m/nofp/libc_nano.a(lib_a-strtol.o)
                0x0000000008006684                strtol
 .text._vsnprintf_r
                0x000000000800669c       0x56 /opt/gcc-arm-none-eabi/bin/../lib/gcc/arm-none-eabi/8.3.1/../../../../arm-none-eabi/lib/thumb/v6-m/nofp/libc_nano.a(lib_a-vsnprintf.o)
                0x000000000800669c                _vsnprintf_r
                0x000000000800669c                _vsniprintf_r
 *fill*         0x00000000080066f2        0x2 
 .text.vsnprintf
                0x00000000080066f4       0x18 /opt/gcc-arm-none-eabi/bin/../lib/gcc/arm-none-eabi/8.3.1/../../../../arm-none-eabi/lib/thumb/v6-m/nofp/libc_nano.a(lib_a-vsnprintf.o)
                0x00000000080066f4                vsnprintf
                0x00000000080066f4                vsniprintf
 .text.__ssputs_r
                0x000000000800670c       0xc4 /opt/gcc-arm-none-eabi/bin/../lib/gcc/arm-none-eabi/8.3.1/../../../../arm-none-eabi/lib/thumb/v6-m/nofp/libc_nano.a(lib_a-nano-svfprintf.o)
                0x000000000800670c                __ssputs_r
 .text._svfprintf_r
                0x00000000080067d0      0x1fc /opt/gcc-arm-none-eabi/bin/../lib/gcc/arm-none-eabi/8.3.1/../../../../arm-none-eabi/lib/thumb/v6-m/nofp/libc_nano.a(lib_a-nano-svfprintf.o)
                0x00000000080067d0                _svfprintf_r
                0x00000000080067d0                _svfiprintf_r
 .text._printf_common
                0x00000000080069cc       0xda /opt/gcc-arm-none-eabi/bin/../lib/gcc/arm-none-eabi/8.3.1/../../../../arm-none-eabi/lib/thumb/v6-m/nofp/libc_nano.a(lib_a-nano-vfprintf_i.o)
                0x00000000080069cc                _printf_common
 *fill*         0x0000000008006aa6        0x2 
 .text._printf_i
                0x0000000008006aa8      0x214 /opt/gcc-arm-none-eabi/bin/../lib/gcc/arm-none-eabi/8.3.1/../../../../arm-none-eabi/lib/thumb/v6-m/nofp/libc_nano.a(lib_a-nano-vfprintf_i.o)
                0x0000000008006aa8                _printf_i
 .text.memchr   0x0000000008006cbc       0x16 /opt/gcc-arm-none-eabi/bin/../lib/gcc/arm-none-eabi/8.3.1/../../../../arm-none-eabi/lib/thumb/v6-m/nofp/libc_nano.a(lib_a-memchr-stub.o)
                0x0000000008006cbc                memchr
 .text.memmove  0x0000000008006cd2       0x26 /opt/gcc-arm-none-eabi/bin/../lib/gcc/arm-none-eabi/8.3.1/../../../../arm-none-eabi/lib/thumb/v6-m/nofp/libc_nano.a(lib_a-memmove.o)
                0x0000000008006cd2                memmove
 .text._free_r  0x0000000008006cf8       0x94 /opt/gcc-arm-none-eabi/bin/../lib/gcc/arm-none-eabi/8.3.1/../../../../arm-none-eabi/lib/thumb/v6-m/nofp/libc_nano.a(lib_a-nano-freer.o)
                0x0000000008006cf8                _free_r
 .text._malloc_r
                0x0000000008006d8c       0xbc /opt/gcc-arm-none-eabi/bin/../lib/gcc/arm-none-eabi/8.3.1/../../../../arm-none-eabi/lib/thumb/v6-m/nofp/libc_nano.a(lib_a-nano-mallocr.o)
                0x0000000008006d8c                _malloc_r
 .text._realloc_r
                0x0000000008006e48       0x4c /opt/gcc-arm-none-eabi/bin/../lib/gcc/arm-none-eabi/8.3.1/../../../../arm-none-eabi/lib/thumb/v6-m/nofp/libc_nano.a(lib_a-nano-reallocr.o)
                0x0000000008006e48                _realloc_r
 .text._sbrk_r  0x0000000008006e94       0x24 /opt/gcc-arm-none-eabi/bin/../lib/gcc/arm-none-eabi/8.3.1/../../../../arm-none-eabi/lib/thumb/v6-m/nofp/libc_nano.a(lib_a-sbrkr.o)
                0x0000000008006e94                _sbrk_r
 .text.__malloc_lock
                0x0000000008006eb8       0x10 /opt/gcc-arm-none-eabi/bin/../lib/gcc/arm-none-eabi/8.3.1/../../../../arm-none-eabi/lib/thumb/v6-m/nofp/libc_nano.a(lib_a-mlock.o)
                0x0000000008006eb8                __malloc_lock
 .text.__malloc_unlock
                0x0000000008006ec8       0x10 /opt/gcc-arm-none-eabi/bin/../lib/gcc/arm-none-eabi/8.3.1/../../../../arm-none-eabi/lib/thumb/v6-m/nofp/libc_nano.a(lib_a-mlock.o)
                0x0000000008006ec8                __malloc_unlock
 .text._malloc_usable_size_r
                0x0000000008006ed8       0x10 /opt/gcc-arm-none-eabi/bin/../lib/gcc/arm-none-eabi/8.3.1/../../../../arm-none-eabi/lib/thumb/v6-m/nofp/libc_nano.a(lib_a-nano-msizer.o)
                0x0000000008006ed8                _malloc_usable_size_r
 .text.__retarget_lock_acquire_recursive
                0x0000000008006ee8        0x2 /opt/gcc-arm-none-eabi/bin/../lib/gcc/arm-none-eabi/8.3.1/../../../../arm-none-eabi/lib/thumb/v6-m/nofp/libc_nano.a(lib_a-lock.o)
                0x0000000008006ee8                __retarget_lock_acquire_recursive
 .text.__retarget_lock_release_recursive
                0x0000000008006eea        0x2 /opt/gcc-arm-none-eabi/bin/../lib/gcc/arm-none-eabi/8.3.1/../../../../arm-none-eabi/lib/thumb/v6-m/nofp/libc_nano.a(lib_a-lock.o)
                0x0000000008006eea                __retarget_lock_release_recursive
 .text._sbrk    0x0000000008006eec       0x1c /opt/gcc-arm-none-eabi/bin/../lib/gcc/arm-none-eabi/8.3.1/../../../../arm-none-eabi/lib/thumb/v6-m/nofp/libnosys.a(sbrk.o)
                0x0000000008006eec                _sbrk
 *(.glue_7)
 .glue_7        0x0000000008006f08        0x0 linker stubs
 *(.glue_7t)
 .glue_7t       0x0000000008006f08        0x0 linker stubs
 *(.eh_frame)
 .eh_frame      0x0000000008006f08        0x0 /opt/gcc-arm-none-eabi/bin/../lib/gcc/arm-none-eabi/8.3.1/thumb/v6-m/nofp/crtbegin.o
 *(.init)
 .init          0x0000000008006f08        0x4 /opt/gcc-arm-none-eabi/bin/../lib/gcc/arm-none-eabi/8.3.1/thumb/v6-m/nofp/crti.o
                0x0000000008006f08                _init
 .init          0x0000000008006f0c        0x8 /opt/gcc-arm-none-eabi/bin/../lib/gcc/arm-none-eabi/8.3.1/thumb/v6-m/nofp/crtn.o
 *(.fini)
 .fini          0x0000000008006f14        0x4 /opt/gcc-arm-none-eabi/bin/../lib/gcc/arm-none-eabi/8.3.1/thumb/v6-m/nofp/crti.o
                0x0000000008006f14                _fini
 .fini          0x0000000008006f18        0x8 /opt/gcc-arm-none-eabi/bin/../lib/gcc/arm-none-eabi/8.3.1/thumb/v6-m/nofp/crtn.o
                0x0000000008006f20                . = ALIGN (0x4)
                0x0000000008006f20                _etext = .

.vfp11_veneer   0x0000000008006f20        0x0
 .vfp11_veneer  0x0000000008006f20        0x0 linker stubs

.v4_bx          0x0000000008006f20        0x0
 .v4_bx         0x0000000008006f20        0x0 linker stubs

.iplt           0x0000000008006f20        0x0
 .iplt          0x0000000008006f20        0x0 /opt/gcc-arm-none-eabi/bin/../lib/gcc/arm-none-eabi/8.3.1/thumb/v6-m/nofp/crtbegin.o

.rodata         0x0000000008006f20      0x8dc
                0x0000000008006f20                . = ALIGN (0x4)
 *(.rodata)
 .rodata        0x0000000008006f20       0x3c build/main.o
 .rodata        0x0000000008006f5c       0x20 build/stm32f0xx_hal_rcc.o
 *(.rodata*)
 .rodata.main.str1.1
                0x0000000008006f7c       0x37 build/main.o
 .rodata.str1.1
                0x0000000008006fb3       0x1e build/main.o
 .rodata.CSWTCH.8
                0x0000000008006fd1        0x4 build/stm32f0xx_hal_uart.o
 .rodata.AHBPrescTable
                0x0000000008006fd5       0x10 build/system_stm32f0xx.o
                0x0000000008006fd5                AHBPrescTable
 .rodata.APBPrescTable
                0x0000000008006fe5        0x8 build/system_stm32f0xx.o
                0x0000000008006fe5                APBPrescTable
 .rodata.vTaskStartScheduler.str1.1
                0x0000000008006fed        0x5 build/tasks.o
 .rodata.CSWTCH.13
                0x0000000008006ff2        0x7 build/modbus_device.o
 .rodata.mbd_log_config.str1.1
                0x0000000008006ff9      0x1c7 build/modbus_device.o
 .rodata.mbd_log_status.str1.1
                0x00000000080071c0       0xb9 build/modbus_device.o
 .rodata.crc_hi
                0x0000000008007279      0x100 build/CRC.o
 .rodata.crc_lo
                0x0000000008007379      0x100 build/CRC.o
 *fill*         0x0000000008007479        0x3 
 .rodata.error_strings
                0x000000000800747c       0x14 build/errors.o
                0x000000000800747c                error_strings
 .rodata.errors_log_errors.str1.1
                0x0000000008007490       0x40 build/errors.o
 .rodata.str1.1
                0x00000000080074d0       0xc4 build/errors.o
 .rodata.str_error.str1.1
                0x0000000008007594       0xc4 build/errors.o
                                          0x1 (size before relaxing)
 .rodata.level_names
                0x0000000008007594       0x18 build/log.o
 .rodata.log_log.str1.1
                0x00000000080075ac       0x10 build/log.o
 .rodata.str1.1
                0x00000000080075bc       0x22 build/log.o
 .rodata.str1.1
                0x00000000080075de       0xc9 build/user_cmd.o
 .rodata.user_cmd.str1.1
                0x00000000080076a7       0x1f build/user_cmd.o
 .rodata._ctype_
                0x00000000080076c6      0x101 /opt/gcc-arm-none-eabi/bin/../lib/gcc/arm-none-eabi/8.3.1/../../../../arm-none-eabi/lib/thumb/v6-m/nofp/libc_nano.a(lib_a-ctype_.o)
                0x00000000080076c6                _ctype_
 .rodata._svfprintf_r.str1.1
                0x00000000080077c7       0x11 /opt/gcc-arm-none-eabi/bin/../lib/gcc/arm-none-eabi/8.3.1/../../../../arm-none-eabi/lib/thumb/v6-m/nofp/libc_nano.a(lib_a-nano-svfprintf.o)
 .rodata._printf_i.str1.1
                0x00000000080077d8       0x22 /opt/gcc-arm-none-eabi/bin/../lib/gcc/arm-none-eabi/8.3.1/../../../../arm-none-eabi/lib/thumb/v6-m/nofp/libc_nano.a(lib_a-nano-vfprintf_i.o)
                0x00000000080077fc                . = ALIGN (0x4)
 *fill*         0x00000000080077fa        0x2 

.rel.dyn        0x00000000080077fc        0x0
 .rel.iplt      0x00000000080077fc        0x0 /opt/gcc-arm-none-eabi/bin/../lib/gcc/arm-none-eabi/8.3.1/thumb/v6-m/nofp/crtbegin.o

.ARM.extab
 *(.ARM.extab* .gnu.linkonce.armextab.*)

.ARM            0x00000000080077fc        0x0
                0x00000000080077fc                __exidx_start = .
 *(.ARM.exidx*)
                0x00000000080077fc                __exidx_end = .

.preinit_array  0x00000000080077fc        0x0
                0x00000000080077fc                PROVIDE (__preinit_array_start = .)
 *(.preinit_array*)
                0x00000000080077fc                PROVIDE (__preinit_array_end = .)

.init_array     0x00000000080077fc        0x4
                0x00000000080077fc                PROVIDE (__init_array_start = .)
 *(SORT_BY_NAME(.init_array.*))
 *(.init_array*)
 .init_array    0x00000000080077fc        0x4 /opt/gcc-arm-none-eabi/bin/../lib/gcc/arm-none-eabi/8.3.1/thumb/v6-m/nofp/crtbegin.o
                0x0000000008007800                PROVIDE (__init_array_end = .)

.fini_array     0x0000000008007800        0x4
                [!provide]                        PROVIDE (__fini_array_start = .)
 *(SORT_BY_NAME(.fini_array.*))
 *(.fini_array*)
 .fini_array    0x0000000008007800        0x4 /opt/gcc-arm-none-eabi/bin/../lib/gcc/arm-none-eabi/8.3.1/thumb/v6-m/nofp/crtbegin.o
                [!provide]                        PROVIDE (__fini_array_end = .)
                0x0000000008007804                _sidata = LOADADDR (.data)

.data           0x0000000020000000       0x70 load address 0x0000000008007804
                0x0000000020000000                . = ALIGN (0x4)
                0x0000000020000000                _sdata = .
 *(.data)
 *(.data*)
 .data.SystemCoreClock
                0x0000000020000000        0x4 build/system_stm32f0xx.o
                0x0000000020000000                SystemCoreClock
 .data.uxCriticalNesting
                0x0000000020000004        0x4 build/port.o
 .data.help_msg
                0x0000000020000008        0x4 build/user_cmd.o
                0x0000000020000008                help_msg
 .data._impure_ptr
                0x000000002000000c        0x4 /opt/gcc-arm-none-eabi/bin/../lib/gcc/arm-none-eabi/8.3.1/../../../../arm-none-eabi/lib/thumb/v6-m/nofp/libc_nano.a(lib_a-impure.o)
                0x000000002000000c                _impure_ptr
 .data.impure_data
                0x0000000020000010       0x60 /opt/gcc-arm-none-eabi/bin/../lib/gcc/arm-none-eabi/8.3.1/../../../../arm-none-eabi/lib/thumb/v6-m/nofp/libc_nano.a(lib_a-impure.o)
                0x0000000020000070                . = ALIGN (0x4)
                0x0000000020000070                _edata = .

.igot.plt       0x0000000020000070        0x0 load address 0x0000000008007874
 .igot.plt      0x0000000020000070        0x0 /opt/gcc-arm-none-eabi/bin/../lib/gcc/arm-none-eabi/8.3.1/thumb/v6-m/nofp/crtbegin.o
                0x0000000020000070                . = ALIGN (0x4)

.bss            0x0000000020000070     0x1ca0 load address 0x0000000008007874
                0x0000000020000070                _sbss = .
                0x0000000020000070                __bss_start__ = _sbss
 *(.bss)
 .bss           0x0000000020000070       0x1c /opt/gcc-arm-none-eabi/bin/../lib/gcc/arm-none-eabi/8.3.1/thumb/v6-m/nofp/crtbegin.o
 *(.bss*)
 .bss.is_usart4_sending
                0x000000002000008c        0x1 build/main.o
                0x000000002000008c                is_usart4_sending
 .bss.watchflag
                0x000000002000008d        0x1 build/main.o
                0x000000002000008d                watchflag
 *fill*         0x000000002000008e        0x2 
 .bss.pxCurrentTCB
                0x0000000020000090        0x4 build/tasks.o
                0x0000000020000090                pxCurrentTCB
 .bss.pxDelayedTaskList
                0x0000000020000094        0x4 build/tasks.o
 .bss.pxOverflowDelayedTaskList
                0x0000000020000098        0x4 build/tasks.o
 .bss.pxReadyTasksLists
                0x000000002000009c       0x8c build/tasks.o
 .bss.uxCurrentNumberOfTasks
                0x0000000020000128        0x4 build/tasks.o
 .bss.uxDeletedTasksWaitingCleanUp
                0x000000002000012c        0x4 build/tasks.o
 .bss.uxPendedTicks
                0x0000000020000130        0x4 build/tasks.o
 .bss.uxSchedulerSuspended
                0x0000000020000134        0x4 build/tasks.o
 .bss.uxTaskNumber
                0x0000000020000138        0x4 build/tasks.o
 .bss.uxTopReadyPriority
                0x000000002000013c        0x4 build/tasks.o
 .bss.xDelayedTaskList1
                0x0000000020000140       0x14 build/tasks.o
 .bss.xDelayedTaskList2
                0x0000000020000154       0x14 build/tasks.o
 .bss.xIdleTaskHandle
                0x0000000020000168        0x4 build/tasks.o
 .bss.xNextTaskUnblockTime
                0x000000002000016c        0x4 build/tasks.o
 .bss.xNumOfOverflows
                0x0000000020000170        0x4 build/tasks.o
 .bss.xPendingReadyList
                0x0000000020000174       0x14 build/tasks.o
 .bss.xSchedulerRunning
                0x0000000020000188        0x4 build/tasks.o
 .bss.xSuspendedTaskList
                0x000000002000018c       0x14 build/tasks.o
 .bss.xTasksWaitingTermination
                0x00000000200001a0       0x14 build/tasks.o
 .bss.xTickCount
                0x00000000200001b4        0x4 build/tasks.o
 .bss.xYieldPending
                0x00000000200001b8        0x4 build/tasks.o
 .bss.pxEnd     0x00000000200001bc        0x4 build/heap_4.o
 .bss.ucHeap    0x00000000200001c0      0xfa0 build/heap_4.o
 .bss.xBlockAllocatedBit
                0x0000000020001160        0x4 build/heap_4.o
 .bss.xFreeBytesRemaining
                0x0000000020001164        0x4 build/heap_4.o
 .bss.xMinimumEverFreeBytesRemaining
                0x0000000020001168        0x4 build/heap_4.o
 .bss.xStart    0x000000002000116c        0x8 build/heap_4.o
 .bss.logSemaphore
                0x0000000020001174        0x4 build/log.o
                0x0000000020001174                logSemaphore
 .bss.__malloc_free_list
                0x0000000020001178        0x4 /opt/gcc-arm-none-eabi/bin/../lib/gcc/arm-none-eabi/8.3.1/../../../../arm-none-eabi/lib/thumb/v6-m/nofp/libc_nano.a(lib_a-nano-mallocr.o)
                0x0000000020001178                __malloc_free_list
 .bss.__malloc_sbrk_start
                0x000000002000117c        0x4 /opt/gcc-arm-none-eabi/bin/../lib/gcc/arm-none-eabi/8.3.1/../../../../arm-none-eabi/lib/thumb/v6-m/nofp/libc_nano.a(lib_a-nano-mallocr.o)
                0x000000002000117c                __malloc_sbrk_start
 .bss.heap_end.4194
                0x0000000020001180        0x4 /opt/gcc-arm-none-eabi/bin/../lib/gcc/arm-none-eabi/8.3.1/../../../../arm-none-eabi/lib/thumb/v6-m/nofp/libnosys.a(sbrk.o)
 *(COMMON)
 COMMON         0x0000000020001184      0x290 build/main.o
                0x0000000020001184                hdma_usart2_rx
                0x00000000200011c8                InputProcessHandle
                0x00000000200011cc                outputHighWaterMark
                0x00000000200011d0                hi2c1
                0x000000002000121c                hcrc
                0x0000000020001240                modbusHandle
                0x0000000020001244                hdma_usart4_tx
                0x0000000020001288                DO_MODE
                0x000000002000128c                modbusHighWaterMark
                0x0000000020001290                crc
                0x0000000020001294                hdma_usart4_rx
                0x00000000200012d8                hdma_usart2_tx
                0x000000002000131c                Tick_TaskHandle
                0x0000000020001320                modbus_error
                0x0000000020001324                Usart4RxSemaphoreHandle
                0x0000000020001328                huart4
                0x0000000020001398                huart2
                0x0000000020001408                tickHighWaterMark
                0x000000002000140c                checksum
                0x0000000020001410                RxQueue
 COMMON         0x0000000020001414       0x40 build/stm32f0xx_hal_timebase_tim.o
                0x0000000020001414                htim6
 COMMON         0x0000000020001454        0x4 build/stm32f0xx_hal.o
                0x0000000020001454                uwTick
 COMMON         0x0000000020001458      0x2fd build/dma_usart_idle.o
                0x0000000020001458                DMA_RX_Buffer_2
                0x0000000020001557                UART_Buffer
                0x0000000020001656                DMA_RX_Buffer_1
 *fill*         0x0000000020001755        0x3 
 COMMON         0x0000000020001758      0x108 build/modbus.o
                0x0000000020001758                modbus
 COMMON         0x0000000020001860      0x124 build/modbus_device.o
                0x0000000020001860                output_mode_e
                0x0000000020001864                device
                0x0000000020001944                htim7
 COMMON         0x0000000020001984       0x62 build/ext_mem.o
                0x0000000020001984                mem_data
 *fill*         0x00000000200019e6        0x2 
 COMMON         0x00000000200019e8      0x188 build/errors.o
                0x00000000200019e8                errors
 COMMON         0x0000000020001b70      0x100 build/log.o
                0x0000000020001b70                logger
 COMMON         0x0000000020001c70       0x90 build/soft_timer.o
                0x0000000020001c70                timers
 COMMON         0x0000000020001d00        0x4 /opt/gcc-arm-none-eabi/bin/../lib/gcc/arm-none-eabi/8.3.1/../../../../arm-none-eabi/lib/thumb/v6-m/nofp/libc_nano.a(lib_a-reent.o)
                0x0000000020001d00                errno
 COMMON         0x0000000020001d04        0x9 /opt/gcc-arm-none-eabi/bin/../lib/gcc/arm-none-eabi/8.3.1/../../../../arm-none-eabi/lib/thumb/v6-m/nofp/libc_nano.a(lib_a-lock.o)
                0x0000000020001d04                __lock___atexit_recursive_mutex
                0x0000000020001d05                __lock___arc4random_mutex
                0x0000000020001d06                __lock___env_recursive_mutex
                0x0000000020001d07                __lock___sinit_recursive_mutex
                0x0000000020001d08                __lock___malloc_recursive_mutex
                0x0000000020001d09                __lock___at_quick_exit_mutex
                0x0000000020001d0a                __lock___dd_hash_mutex
                0x0000000020001d0b                __lock___tz_mutex
                0x0000000020001d0c                __lock___sfp_recursive_mutex
                0x0000000020001d10                . = ALIGN (0x4)
 *fill*         0x0000000020001d0d        0x3 
                0x0000000020001d10                _ebss = .
                0x0000000020001d10                __bss_end__ = _ebss

._user_heap_stack
                0x0000000020001d10      0x600 load address 0x0000000008007874
                0x0000000020001d10                . = ALIGN (0x8)
                0x0000000020001d10                PROVIDE (end = .)
                [!provide]                        PROVIDE (_end = .)
                0x0000000020001f10                . = (. + _Min_Heap_Size)
 *fill*         0x0000000020001d10      0x200 
                0x0000000020002310                . = (. + _Min_Stack_Size)
 *fill*         0x0000000020001f10      0x400 
                0x0000000020002310                . = ALIGN (0x8)

/DISCARD/
 libc.a(*)
 libm.a(*)
 libgcc.a(*)

.ARM.attributes
                0x0000000000000000       0x28
 *(.ARM.attributes)
 .ARM.attributes
                0x0000000000000000       0x1e /opt/gcc-arm-none-eabi/bin/../lib/gcc/arm-none-eabi/8.3.1/thumb/v6-m/nofp/crti.o
 .ARM.attributes
                0x000000000000001e       0x2c /opt/gcc-arm-none-eabi/bin/../lib/gcc/arm-none-eabi/8.3.1/thumb/v6-m/nofp/crtbegin.o
 .ARM.attributes
                0x000000000000004a       0x2c build/main.o
 .ARM.attributes
                0x0000000000000076       0x2c build/stm32f0xx_it.o
 .ARM.attributes
                0x00000000000000a2       0x2c build/stm32f0xx_hal_msp.o
 .ARM.attributes
                0x00000000000000ce       0x2c build/stm32f0xx_hal_timebase_tim.o
 .ARM.attributes
                0x00000000000000fa       0x2c build/stm32f0xx_hal_i2c.o
 .ARM.attributes
                0x0000000000000126       0x2c build/stm32f0xx_hal_i2c_ex.o
 .ARM.attributes
                0x0000000000000152       0x2c build/stm32f0xx_hal_tim.o
 .ARM.attributes
                0x000000000000017e       0x2c build/stm32f0xx_hal_tim_ex.o
 .ARM.attributes
                0x00000000000001aa       0x2c build/stm32f0xx_hal_uart.o
 .ARM.attributes
                0x00000000000001d6       0x2c build/stm32f0xx_hal_uart_ex.o
 .ARM.attributes
                0x0000000000000202       0x2c build/stm32f0xx_hal_rcc.o
 .ARM.attributes
                0x000000000000022e       0x2c build/stm32f0xx_hal_rcc_ex.o
 .ARM.attributes
                0x000000000000025a       0x2c build/stm32f0xx_hal.o
 .ARM.attributes
                0x0000000000000286       0x2c build/stm32f0xx_hal_gpio.o
 .ARM.attributes
                0x00000000000002b2       0x2c build/stm32f0xx_hal_dma.o
 .ARM.attributes
                0x00000000000002de       0x2c build/stm32f0xx_hal_cortex.o
 .ARM.attributes
                0x000000000000030a       0x2c build/stm32f0xx_hal_crc.o
 .ARM.attributes
                0x0000000000000336       0x2c build/stm32f0xx_hal_crc_ex.o
 .ARM.attributes
                0x0000000000000362       0x2c build/system_stm32f0xx.o
 .ARM.attributes
                0x000000000000038e       0x2c build/list.o
 .ARM.attributes
                0x00000000000003ba       0x2c build/queue.o
 .ARM.attributes
                0x00000000000003e6       0x2c build/tasks.o
 .ARM.attributes
                0x0000000000000412       0x2c build/cmsis_os.o
 .ARM.attributes
                0x000000000000043e       0x2c build/port.o
 .ARM.attributes
                0x000000000000046a       0x2c build/heap_4.o
 .ARM.attributes
                0x0000000000000496       0x2c build/dma_usart_idle.o
 .ARM.attributes
                0x00000000000004c2       0x2c build/modbus.o
 .ARM.attributes
                0x00000000000004ee       0x2c build/modbus_device.o
 .ARM.attributes
                0x000000000000051a       0x2c build/ext_mem.o
 .ARM.attributes
                0x0000000000000546       0x2c build/CRC.o
 .ARM.attributes
                0x0000000000000572       0x2c build/errors.o
 .ARM.attributes
                0x000000000000059e       0x2c build/log.o
 .ARM.attributes
                0x00000000000005ca       0x2c build/user_cmd.o
 .ARM.attributes
                0x00000000000005f6       0x2c build/soft_timer.o
 .ARM.attributes
                0x0000000000000622       0x21 build/startup_stm32f091xc.o
 .ARM.attributes
                0x0000000000000643       0x2c /opt/gcc-arm-none-eabi/bin/../lib/gcc/arm-none-eabi/8.3.1/../../../../arm-none-eabi/lib/thumb/v6-m/nofp/libc_nano.a(lib_a-atoi.o)
 .ARM.attributes
                0x000000000000066f       0x2c /opt/gcc-arm-none-eabi/bin/../lib/gcc/arm-none-eabi/8.3.1/../../../../arm-none-eabi/lib/thumb/v6-m/nofp/libc_nano.a(lib_a-impure.o)
 .ARM.attributes
                0x000000000000069b       0x2c /opt/gcc-arm-none-eabi/bin/../lib/gcc/arm-none-eabi/8.3.1/../../../../arm-none-eabi/lib/thumb/v6-m/nofp/libc_nano.a(lib_a-init.o)
 .ARM.attributes
                0x00000000000006c7       0x2c /opt/gcc-arm-none-eabi/bin/../lib/gcc/arm-none-eabi/8.3.1/../../../../arm-none-eabi/lib/thumb/v6-m/nofp/libc_nano.a(lib_a-memcpy-stub.o)
 .ARM.attributes
                0x00000000000006f3       0x2c /opt/gcc-arm-none-eabi/bin/../lib/gcc/arm-none-eabi/8.3.1/../../../../arm-none-eabi/lib/thumb/v6-m/nofp/libc_nano.a(lib_a-memset.o)
 .ARM.attributes
                0x000000000000071f       0x2c /opt/gcc-arm-none-eabi/bin/../lib/gcc/arm-none-eabi/8.3.1/../../../../arm-none-eabi/lib/thumb/v6-m/nofp/libc_nano.a(lib_a-snprintf.o)
 .ARM.attributes
                0x000000000000074b       0x2c /opt/gcc-arm-none-eabi/bin/../lib/gcc/arm-none-eabi/8.3.1/../../../../arm-none-eabi/lib/thumb/v6-m/nofp/libc_nano.a(lib_a-strstr.o)
 .ARM.attributes
                0x0000000000000777       0x2c /opt/gcc-arm-none-eabi/bin/../lib/gcc/arm-none-eabi/8.3.1/../../../../arm-none-eabi/lib/thumb/v6-m/nofp/libc_nano.a(lib_a-strtol.o)
 .ARM.attributes
                0x00000000000007a3       0x2c /opt/gcc-arm-none-eabi/bin/../lib/gcc/arm-none-eabi/8.3.1/../../../../arm-none-eabi/lib/thumb/v6-m/nofp/libc_nano.a(lib_a-vsnprintf.o)
 .ARM.attributes
                0x00000000000007cf       0x2c /opt/gcc-arm-none-eabi/bin/../lib/gcc/arm-none-eabi/8.3.1/../../../../arm-none-eabi/lib/thumb/v6-m/nofp/libc_nano.a(lib_a-ctype_.o)
 .ARM.attributes
                0x00000000000007fb       0x2c /opt/gcc-arm-none-eabi/bin/../lib/gcc/arm-none-eabi/8.3.1/../../../../arm-none-eabi/lib/thumb/v6-m/nofp/libc_nano.a(lib_a-nano-svfprintf.o)
 .ARM.attributes
                0x0000000000000827       0x2c /opt/gcc-arm-none-eabi/bin/../lib/gcc/arm-none-eabi/8.3.1/../../../../arm-none-eabi/lib/thumb/v6-m/nofp/libc_nano.a(lib_a-nano-vfprintf_i.o)
 .ARM.attributes
                0x0000000000000853       0x2c /opt/gcc-arm-none-eabi/bin/../lib/gcc/arm-none-eabi/8.3.1/../../../../arm-none-eabi/lib/thumb/v6-m/nofp/libc_nano.a(lib_a-memchr-stub.o)
 .ARM.attributes
                0x000000000000087f       0x2c /opt/gcc-arm-none-eabi/bin/../lib/gcc/arm-none-eabi/8.3.1/../../../../arm-none-eabi/lib/thumb/v6-m/nofp/libc_nano.a(lib_a-memmove.o)
 .ARM.attributes
                0x00000000000008ab       0x2c /opt/gcc-arm-none-eabi/bin/../lib/gcc/arm-none-eabi/8.3.1/../../../../arm-none-eabi/lib/thumb/v6-m/nofp/libc_nano.a(lib_a-nano-freer.o)
 .ARM.attributes
                0x00000000000008d7       0x2c /opt/gcc-arm-none-eabi/bin/../lib/gcc/arm-none-eabi/8.3.1/../../../../arm-none-eabi/lib/thumb/v6-m/nofp/libc_nano.a(lib_a-nano-mallocr.o)
 .ARM.attributes
                0x0000000000000903       0x2c /opt/gcc-arm-none-eabi/bin/../lib/gcc/arm-none-eabi/8.3.1/../../../../arm-none-eabi/lib/thumb/v6-m/nofp/libc_nano.a(lib_a-nano-reallocr.o)
 .ARM.attributes
                0x000000000000092f       0x2c /opt/gcc-arm-none-eabi/bin/../lib/gcc/arm-none-eabi/8.3.1/../../../../arm-none-eabi/lib/thumb/v6-m/nofp/libc_nano.a(lib_a-sbrkr.o)
 .ARM.attributes
                0x000000000000095b       0x2c /opt/gcc-arm-none-eabi/bin/../lib/gcc/arm-none-eabi/8.3.1/../../../../arm-none-eabi/lib/thumb/v6-m/nofp/libc_nano.a(lib_a-mlock.o)
 .ARM.attributes
                0x0000000000000987       0x2c /opt/gcc-arm-none-eabi/bin/../lib/gcc/arm-none-eabi/8.3.1/../../../../arm-none-eabi/lib/thumb/v6-m/nofp/libc_nano.a(lib_a-nano-msizer.o)
 .ARM.attributes
                0x00000000000009b3       0x2c /opt/gcc-arm-none-eabi/bin/../lib/gcc/arm-none-eabi/8.3.1/../../../../arm-none-eabi/lib/thumb/v6-m/nofp/libc_nano.a(lib_a-reent.o)
 .ARM.attributes
                0x00000000000009df       0x2c /opt/gcc-arm-none-eabi/bin/../lib/gcc/arm-none-eabi/8.3.1/../../../../arm-none-eabi/lib/thumb/v6-m/nofp/libc_nano.a(lib_a-lock.o)
 .ARM.attributes
                0x0000000000000a0b       0x2c /opt/gcc-arm-none-eabi/bin/../lib/gcc/arm-none-eabi/8.3.1/../../../../arm-none-eabi/lib/thumb/v6-m/nofp/libnosys.a(sbrk.o)
 .ARM.attributes
                0x0000000000000a37       0x1e /opt/gcc-arm-none-eabi/bin/../lib/gcc/arm-none-eabi/8.3.1/thumb/v6-m/nofp/libgcc.a(_thumb1_case_sqi.o)
 .ARM.attributes
                0x0000000000000a55       0x1e /opt/gcc-arm-none-eabi/bin/../lib/gcc/arm-none-eabi/8.3.1/thumb/v6-m/nofp/libgcc.a(_thumb1_case_uqi.o)
 .ARM.attributes
                0x0000000000000a73       0x1e /opt/gcc-arm-none-eabi/bin/../lib/gcc/arm-none-eabi/8.3.1/thumb/v6-m/nofp/libgcc.a(_thumb1_case_uhi.o)
 .ARM.attributes
                0x0000000000000a91       0x1e /opt/gcc-arm-none-eabi/bin/../lib/gcc/arm-none-eabi/8.3.1/thumb/v6-m/nofp/libgcc.a(_udivsi3.o)
 .ARM.attributes
                0x0000000000000aaf       0x1e /opt/gcc-arm-none-eabi/bin/../lib/gcc/arm-none-eabi/8.3.1/thumb/v6-m/nofp/libgcc.a(_divsi3.o)
 .ARM.attributes
                0x0000000000000acd       0x1e /opt/gcc-arm-none-eabi/bin/../lib/gcc/arm-none-eabi/8.3.1/thumb/v6-m/nofp/libgcc.a(_dvmd_tls.o)
 .ARM.attributes
                0x0000000000000aeb       0x1e /opt/gcc-arm-none-eabi/bin/../lib/gcc/arm-none-eabi/8.3.1/thumb/v6-m/nofp/crtn.o
OUTPUT(build/MODULE_DO.elf elf32-littlearm)

.debug_info     0x0000000000000000    0x3653b
 .debug_info    0x0000000000000000     0x2c83 build/main.o
 .debug_info    0x0000000000002c83     0x1868 build/stm32f0xx_it.o
 .debug_info    0x00000000000044eb     0x1bb8 build/stm32f0xx_hal_msp.o
 .debug_info    0x00000000000060a3     0x140d build/stm32f0xx_hal_timebase_tim.o
 .debug_info    0x00000000000074b0     0x4155 build/stm32f0xx_hal_i2c.o
 .debug_info    0x000000000000b605     0x13cc build/stm32f0xx_hal_i2c_ex.o
 .debug_info    0x000000000000c9d1     0x477e build/stm32f0xx_hal_tim.o
 .debug_info    0x000000000001114f     0x1ed6 build/stm32f0xx_hal_tim_ex.o
 .debug_info    0x0000000000013025     0x2711 build/stm32f0xx_hal_uart.o
 .debug_info    0x0000000000015736     0x1536 build/stm32f0xx_hal_uart_ex.o
 .debug_info    0x0000000000016c6c     0x14b2 build/stm32f0xx_hal_rcc.o
 .debug_info    0x000000000001811e     0x112d build/stm32f0xx_hal_rcc_ex.o
 .debug_info    0x000000000001924b     0x1046 build/stm32f0xx_hal.o
 .debug_info    0x000000000001a291     0x1121 build/stm32f0xx_hal_gpio.o
 .debug_info    0x000000000001b3b2     0x133f build/stm32f0xx_hal_dma.o
 .debug_info    0x000000000001c6f1     0x1305 build/stm32f0xx_hal_cortex.o
 .debug_info    0x000000000001d9f6     0x1049 build/stm32f0xx_hal_crc.o
 .debug_info    0x000000000001ea3f      0xdf7 build/stm32f0xx_hal_crc_ex.o
 .debug_info    0x000000000001f836      0xc33 build/system_stm32f0xx.o
 .debug_info    0x0000000000020469      0xc9d build/list.o
 .debug_info    0x0000000000021106     0x21a5 build/queue.o
 .debug_info    0x00000000000232ab     0x2c94 build/tasks.o
 .debug_info    0x0000000000025f3f     0x2b02 build/cmsis_os.o
 .debug_info    0x0000000000028a41      0x315 build/port.o
 .debug_info    0x0000000000028d56      0xdb0 build/heap_4.o
 .debug_info    0x0000000000029b06     0x1887 build/dma_usart_idle.o
 .debug_info    0x000000000002b38d     0x1ea9 build/modbus.o
 .debug_info    0x000000000002d236     0x371a build/modbus_device.o
 .debug_info    0x0000000000030950     0x1cfd build/ext_mem.o
 .debug_info    0x000000000003264d      0x1f4 build/CRC.o
 .debug_info    0x0000000000032841      0xf37 build/errors.o
 .debug_info    0x0000000000033778     0x1675 build/log.o
 .debug_info    0x0000000000034ded     0x1444 build/user_cmd.o
 .debug_info    0x0000000000036231      0x2e8 build/soft_timer.o
 .debug_info    0x0000000000036519       0x22 build/startup_stm32f091xc.o

.debug_abbrev   0x0000000000000000     0x7043
 .debug_abbrev  0x0000000000000000      0x491 build/main.o
 .debug_abbrev  0x0000000000000491      0x346 build/stm32f0xx_it.o
 .debug_abbrev  0x00000000000007d7      0x2d4 build/stm32f0xx_hal_msp.o
 .debug_abbrev  0x0000000000000aab      0x2cc build/stm32f0xx_hal_timebase_tim.o
 .debug_abbrev  0x0000000000000d77      0x46e build/stm32f0xx_hal_i2c.o
 .debug_abbrev  0x00000000000011e5      0x282 build/stm32f0xx_hal_i2c_ex.o
 .debug_abbrev  0x0000000000001467      0x46a build/stm32f0xx_hal_tim.o
 .debug_abbrev  0x00000000000018d1      0x3a3 build/stm32f0xx_hal_tim_ex.o
 .debug_abbrev  0x0000000000001c74      0x464 build/stm32f0xx_hal_uart.o
 .debug_abbrev  0x00000000000020d8      0x315 build/stm32f0xx_hal_uart_ex.o
 .debug_abbrev  0x00000000000023ed      0x37e build/stm32f0xx_hal_rcc.o
 .debug_abbrev  0x000000000000276b      0x33a build/stm32f0xx_hal_rcc_ex.o
 .debug_abbrev  0x0000000000002aa5      0x33d build/stm32f0xx_hal.o
 .debug_abbrev  0x0000000000002de2      0x31a build/stm32f0xx_hal_gpio.o
 .debug_abbrev  0x00000000000030fc      0x347 build/stm32f0xx_hal_dma.o
 .debug_abbrev  0x0000000000003443      0x39b build/stm32f0xx_hal_cortex.o
 .debug_abbrev  0x00000000000037de      0x32d build/stm32f0xx_hal_crc.o
 .debug_abbrev  0x0000000000003b0b      0x26a build/stm32f0xx_hal_crc_ex.o
 .debug_abbrev  0x0000000000003d75      0x21d build/system_stm32f0xx.o
 .debug_abbrev  0x0000000000003f92      0x241 build/list.o
 .debug_abbrev  0x00000000000041d3      0x423 build/queue.o
 .debug_abbrev  0x00000000000045f6      0x4ec build/tasks.o
 .debug_abbrev  0x0000000000004ae2      0x4d0 build/cmsis_os.o
 .debug_abbrev  0x0000000000004fb2      0x1da build/port.o
 .debug_abbrev  0x000000000000518c      0x34c build/heap_4.o
 .debug_abbrev  0x00000000000054d8      0x2b5 build/dma_usart_idle.o
 .debug_abbrev  0x000000000000578d      0x3f4 build/modbus.o
 .debug_abbrev  0x0000000000005b81      0x680 build/modbus_device.o
 .debug_abbrev  0x0000000000006201      0x384 build/ext_mem.o
 .debug_abbrev  0x0000000000006585       0xde build/CRC.o
 .debug_abbrev  0x0000000000006663      0x2e1 build/errors.o
 .debug_abbrev  0x0000000000006944      0x2eb build/log.o
 .debug_abbrev  0x0000000000006c2f      0x266 build/user_cmd.o
 .debug_abbrev  0x0000000000006e95      0x19c build/soft_timer.o
 .debug_abbrev  0x0000000000007031       0x12 build/startup_stm32f091xc.o

.debug_loc      0x0000000000000000    0x16ba7
 .debug_loc     0x0000000000000000      0x25c build/main.o
 .debug_loc     0x000000000000025c      0x125 build/stm32f0xx_it.o
 .debug_loc     0x0000000000000381      0x1a7 build/stm32f0xx_hal_msp.o
 .debug_loc     0x0000000000000528       0xb4 build/stm32f0xx_hal_timebase_tim.o
 .debug_loc     0x00000000000005dc     0x3df6 build/stm32f0xx_hal_i2c.o
 .debug_loc     0x00000000000043d2      0x2a1 build/stm32f0xx_hal_i2c_ex.o
 .debug_loc     0x0000000000004673     0x4ae7 build/stm32f0xx_hal_tim.o
 .debug_loc     0x000000000000915a     0x1175 build/stm32f0xx_hal_tim_ex.o
 .debug_loc     0x000000000000a2cf     0x1c09 build/stm32f0xx_hal_uart.o
 .debug_loc     0x000000000000bed8      0x51b build/stm32f0xx_hal_uart_ex.o
 .debug_loc     0x000000000000c3f3      0x6a4 build/stm32f0xx_hal_rcc.o
 .debug_loc     0x000000000000ca97      0x5f5 build/stm32f0xx_hal_rcc_ex.o
 .debug_loc     0x000000000000d08c      0x10c build/stm32f0xx_hal.o
 .debug_loc     0x000000000000d198      0x446 build/stm32f0xx_hal_gpio.o
 .debug_loc     0x000000000000d5de      0xa9d build/stm32f0xx_hal_dma.o
 .debug_loc     0x000000000000e07b      0x49f build/stm32f0xx_hal_cortex.o
 .debug_loc     0x000000000000e51a      0x5db build/stm32f0xx_hal_crc.o
 .debug_loc     0x000000000000eaf5      0x23b build/stm32f0xx_hal_crc_ex.o
 .debug_loc     0x000000000000ed30      0x114 build/system_stm32f0xx.o
 .debug_loc     0x000000000000ee44       0xdd build/list.o
 .debug_loc     0x000000000000ef21     0x174c build/queue.o
 .debug_loc     0x000000000001066d     0x1b15 build/tasks.o
 .debug_loc     0x0000000000012182     0x190b build/cmsis_os.o
 .debug_loc     0x0000000000013a8d      0x14e build/port.o
 .debug_loc     0x0000000000013bdb      0x362 build/heap_4.o
 .debug_loc     0x0000000000013f3d      0x1b0 build/dma_usart_idle.o
 .debug_loc     0x00000000000140ed      0xa6b build/modbus.o
 .debug_loc     0x0000000000014b58     0x15be build/modbus_device.o
 .debug_loc     0x0000000000016116      0x31f build/ext_mem.o
 .debug_loc     0x0000000000016435      0x104 build/CRC.o
 .debug_loc     0x0000000000016539      0x228 build/errors.o
 .debug_loc     0x0000000000016761      0x15c build/log.o
 .debug_loc     0x00000000000168bd      0x120 build/user_cmd.o
 .debug_loc     0x00000000000169dd      0x1ca build/soft_timer.o

.debug_aranges  0x0000000000000000     0x14b0
 .debug_aranges
                0x0000000000000000       0x68 build/main.o
 .debug_aranges
                0x0000000000000068       0x70 build/stm32f0xx_it.o
 .debug_aranges
                0x00000000000000d8       0x40 build/stm32f0xx_hal_msp.o
 .debug_aranges
                0x0000000000000118       0x30 build/stm32f0xx_hal_timebase_tim.o
 .debug_aranges
                0x0000000000000148      0x200 build/stm32f0xx_hal_i2c.o
 .debug_aranges
                0x0000000000000348       0x48 build/stm32f0xx_hal_i2c_ex.o
 .debug_aranges
                0x0000000000000390      0x268 build/stm32f0xx_hal_tim.o
 .debug_aranges
                0x00000000000005f8       0xf8 build/stm32f0xx_hal_tim_ex.o
 .debug_aranges
                0x00000000000006f0      0x188 build/stm32f0xx_hal_uart.o
 .debug_aranges
                0x0000000000000878       0x58 build/stm32f0xx_hal_uart_ex.o
 .debug_aranges
                0x00000000000008d0       0x80 build/stm32f0xx_hal_rcc.o
 .debug_aranges
                0x0000000000000950       0x68 build/stm32f0xx_hal_rcc_ex.o
 .debug_aranges
                0x00000000000009b8       0xb0 build/stm32f0xx_hal.o
 .debug_aranges
                0x0000000000000a68       0x58 build/stm32f0xx_hal_gpio.o
 .debug_aranges
                0x0000000000000ac0       0x80 build/stm32f0xx_hal_dma.o
 .debug_aranges
                0x0000000000000b40       0x78 build/stm32f0xx_hal_cortex.o
 .debug_aranges
                0x0000000000000bb8       0x58 build/stm32f0xx_hal_crc.o
 .debug_aranges
                0x0000000000000c10       0x38 build/stm32f0xx_hal_crc_ex.o
 .debug_aranges
                0x0000000000000c48       0x28 build/system_stm32f0xx.o
 .debug_aranges
                0x0000000000000c70       0x40 build/list.o
 .debug_aranges
                0x0000000000000cb0       0xc0 build/queue.o
 .debug_aranges
                0x0000000000000d70      0x160 build/tasks.o
 .debug_aranges
                0x0000000000000ed0      0x190 build/cmsis_os.o
 .debug_aranges
                0x0000000000001060       0x88 build/port.o
 .debug_aranges
                0x00000000000010e8       0x48 build/heap_4.o
 .debug_aranges
                0x0000000000001130       0x38 build/dma_usart_idle.o
 .debug_aranges
                0x0000000000001168       0x50 build/modbus.o
 .debug_aranges
                0x00000000000011b8      0x178 build/modbus_device.o
 .debug_aranges
                0x0000000000001330       0x58 build/ext_mem.o
 .debug_aranges
                0x0000000000001388       0x20 build/CRC.o
 .debug_aranges
                0x00000000000013a8       0x60 build/errors.o
 .debug_aranges
                0x0000000000001408       0x28 build/log.o
 .debug_aranges
                0x0000000000001430       0x20 build/user_cmd.o
 .debug_aranges
                0x0000000000001450       0x38 build/soft_timer.o
 .debug_aranges
                0x0000000000001488       0x28 build/startup_stm32f091xc.o

.debug_ranges   0x0000000000000000     0x22d0
 .debug_ranges  0x0000000000000000      0x238 build/main.o
 .debug_ranges  0x0000000000000238       0x60 build/stm32f0xx_it.o
 .debug_ranges  0x0000000000000298      0x120 build/stm32f0xx_hal_msp.o
 .debug_ranges  0x00000000000003b8       0x40 build/stm32f0xx_hal_timebase_tim.o
 .debug_ranges  0x00000000000003f8      0x220 build/stm32f0xx_hal_i2c.o
 .debug_ranges  0x0000000000000618       0x88 build/stm32f0xx_hal_i2c_ex.o
 .debug_ranges  0x00000000000006a0      0x458 build/stm32f0xx_hal_tim.o
 .debug_ranges  0x0000000000000af8       0xe8 build/stm32f0xx_hal_tim_ex.o
 .debug_ranges  0x0000000000000be0      0x190 build/stm32f0xx_hal_uart.o
 .debug_ranges  0x0000000000000d70       0x60 build/stm32f0xx_hal_uart_ex.o
 .debug_ranges  0x0000000000000dd0       0xa0 build/stm32f0xx_hal_rcc.o
 .debug_ranges  0x0000000000000e70       0x78 build/stm32f0xx_hal_rcc_ex.o
 .debug_ranges  0x0000000000000ee8       0xa0 build/stm32f0xx_hal.o
 .debug_ranges  0x0000000000000f88       0x68 build/stm32f0xx_hal_gpio.o
 .debug_ranges  0x0000000000000ff0       0xc0 build/stm32f0xx_hal_dma.o
 .debug_ranges  0x00000000000010b0      0x160 build/stm32f0xx_hal_cortex.o
 .debug_ranges  0x0000000000001210       0x48 build/stm32f0xx_hal_crc.o
 .debug_ranges  0x0000000000001258       0x28 build/stm32f0xx_hal_crc_ex.o
 .debug_ranges  0x0000000000001280       0x18 build/system_stm32f0xx.o
 .debug_ranges  0x0000000000001298       0x30 build/list.o
 .debug_ranges  0x00000000000012c8      0x208 build/queue.o
 .debug_ranges  0x00000000000014d0      0x280 build/tasks.o
 .debug_ranges  0x0000000000001750      0x360 build/cmsis_os.o
 .debug_ranges  0x0000000000001ab0       0x78 build/port.o
 .debug_ranges  0x0000000000001b28       0x38 build/heap_4.o
 .debug_ranges  0x0000000000001b60       0x68 build/dma_usart_idle.o
 .debug_ranges  0x0000000000001bc8      0x128 build/modbus.o
 .debug_ranges  0x0000000000001cf0      0x3c0 build/modbus_device.o
 .debug_ranges  0x00000000000020b0       0xe8 build/ext_mem.o
 .debug_ranges  0x0000000000002198       0x10 build/CRC.o
 .debug_ranges  0x00000000000021a8       0x80 build/errors.o
 .debug_ranges  0x0000000000002228       0x18 build/log.o
 .debug_ranges  0x0000000000002240       0x10 build/user_cmd.o
 .debug_ranges  0x0000000000002250       0x60 build/soft_timer.o
 .debug_ranges  0x00000000000022b0       0x20 build/startup_stm32f091xc.o

.debug_macro    0x0000000000000000    0x1dd03
 .debug_macro   0x0000000000000000      0x4b1 build/main.o
 .debug_macro   0x00000000000004b1      0xa78 build/main.o
 .debug_macro   0x0000000000000f29       0xbd build/main.o
 .debug_macro   0x0000000000000fe6       0x2e build/main.o
 .debug_macro   0x0000000000001014       0x22 build/main.o
 .debug_macro   0x0000000000001036       0x22 build/main.o
 .debug_macro   0x0000000000001058       0x8e build/main.o
 .debug_macro   0x00000000000010e6       0x51 build/main.o
 .debug_macro   0x0000000000001137      0x103 build/main.o
 .debug_macro   0x000000000000123a       0x6a build/main.o
 .debug_macro   0x00000000000012a4      0x1df build/main.o
 .debug_macro   0x0000000000001483       0x34 build/main.o
 .debug_macro   0x00000000000014b7       0x26 build/main.o
 .debug_macro   0x00000000000014dd      0x30d build/main.o
 .debug_macro   0x00000000000017ea    0x10e80 build/main.o
 .debug_macro   0x000000000001266a       0x3c build/main.o
 .debug_macro   0x00000000000126a6       0x5e build/main.o
 .debug_macro   0x0000000000012704       0x18 build/main.o
 .debug_macro   0x000000000001271c       0x35 build/main.o
 .debug_macro   0x0000000000012751       0x34 build/main.o
 .debug_macro   0x0000000000012785       0x16 build/main.o
 .debug_macro   0x000000000001279b       0x97 build/main.o
 .debug_macro   0x0000000000012832      0x339 build/main.o
 .debug_macro   0x0000000000012b6b       0xfd build/main.o
 .debug_macro   0x0000000000012c68       0x10 build/main.o
 .debug_macro   0x0000000000012c78       0x16 build/main.o
 .debug_macro   0x0000000000012c8e       0x43 build/main.o
 .debug_macro   0x0000000000012cd1       0x34 build/main.o
 .debug_macro   0x0000000000012d05       0x10 build/main.o
 .debug_macro   0x0000000000012d15       0x58 build/main.o
 .debug_macro   0x0000000000012d6d      0x182 build/main.o
 .debug_macro   0x0000000000012eef       0x10 build/main.o
 .debug_macro   0x0000000000012eff       0x1c build/main.o
 .debug_macro   0x0000000000012f1b       0x52 build/main.o
 .debug_macro   0x0000000000012f6d       0x40 build/main.o
 .debug_macro   0x0000000000012fad       0x10 build/main.o
 .debug_macro   0x0000000000012fbd       0x40 build/main.o
 .debug_macro   0x0000000000012ffd       0xd5 build/main.o
 .debug_macro   0x00000000000130d2       0x1c build/main.o
 .debug_macro   0x00000000000130ee       0x3d build/main.o
 .debug_macro   0x000000000001312b       0x16 build/main.o
 .debug_macro   0x0000000000013141      0x16f build/main.o
 .debug_macro   0x00000000000132b0       0x50 build/main.o
 .debug_macro   0x0000000000013300      0x951 build/main.o
 .debug_macro   0x0000000000013c51      0x69b build/main.o
 .debug_macro   0x00000000000142ec      0x13a build/main.o
 .debug_macro   0x0000000000014426      0x202 build/main.o
 .debug_macro   0x0000000000014628      0x1bc build/main.o
 .debug_macro   0x00000000000147e4      0x4da build/main.o
 .debug_macro   0x0000000000014cbe       0x3c build/main.o
 .debug_macro   0x0000000000014cfa       0x28 build/main.o
 .debug_macro   0x0000000000014d22       0x88 build/main.o
 .debug_macro   0x0000000000014daa       0x85 build/main.o
 .debug_macro   0x0000000000014e2f       0x12 build/main.o
 .debug_macro   0x0000000000014e41       0xb6 build/main.o
 .debug_macro   0x0000000000014ef7      0x23f build/main.o
 .debug_macro   0x0000000000015136      0x202 build/main.o
 .debug_macro   0x0000000000015338       0x61 build/main.o
 .debug_macro   0x0000000000015399       0x90 build/main.o
 .debug_macro   0x0000000000015429       0x87 build/main.o
 .debug_macro   0x00000000000154b0       0x4d build/main.o
 .debug_macro   0x00000000000154fd      0x16d build/main.o
 .debug_macro   0x000000000001566a      0x845 build/main.o
 .debug_macro   0x0000000000015eaf       0x4c build/main.o
 .debug_macro   0x0000000000015efb      0x38a build/main.o
 .debug_macro   0x0000000000016285      0x209 build/main.o
 .debug_macro   0x000000000001648e      0x42e build/main.o
 .debug_macro   0x00000000000168bc       0x6a build/main.o
 .debug_macro   0x0000000000016926       0xc4 build/main.o
 .debug_macro   0x00000000000169ea      0x168 build/main.o
 .debug_macro   0x0000000000016b52       0xb6 build/main.o
 .debug_macro   0x0000000000016c08       0x10 build/main.o
 .debug_macro   0x0000000000016c18       0x1f build/main.o
 .debug_macro   0x0000000000016c37      0x40f build/main.o
 .debug_macro   0x0000000000017046       0xc0 build/main.o
 .debug_macro   0x0000000000017106       0x8c build/main.o
 .debug_macro   0x0000000000017192       0x91 build/main.o
 .debug_macro   0x0000000000017223       0x94 build/main.o
 .debug_macro   0x00000000000172b7       0x63 build/main.o
 .debug_macro   0x000000000001731a       0x19 build/main.o
 .debug_macro   0x0000000000017333       0xcf build/main.o
 .debug_macro   0x0000000000017402       0x10 build/main.o
 .debug_macro   0x0000000000017412       0x22 build/main.o
 .debug_macro   0x0000000000017434       0xdc build/main.o
 .debug_macro   0x0000000000017510       0x16 build/main.o
 .debug_macro   0x0000000000017526       0x35 build/main.o
 .debug_macro   0x000000000001755b       0x4c build/main.o
 .debug_macro   0x00000000000175a7       0x28 build/main.o
 .debug_macro   0x00000000000175cf       0x16 build/main.o
 .debug_macro   0x00000000000175e5      0x430 build/stm32f0xx_it.o
 .debug_macro   0x0000000000017a15      0x333 build/stm32f0xx_hal_msp.o
 .debug_macro   0x0000000000017d48      0x324 build/stm32f0xx_hal_timebase_tim.o
 .debug_macro   0x000000000001806c      0x3f0 build/stm32f0xx_hal_i2c.o
 .debug_macro   0x000000000001845c      0x324 build/stm32f0xx_hal_i2c_ex.o
 .debug_macro   0x0000000000018780      0x324 build/stm32f0xx_hal_tim.o
 .debug_macro   0x0000000000018aa4      0x324 build/stm32f0xx_hal_tim_ex.o
 .debug_macro   0x0000000000018dc8      0x32c build/stm32f0xx_hal_uart.o
 .debug_macro   0x00000000000190f4      0x324 build/stm32f0xx_hal_uart_ex.o
 .debug_macro   0x0000000000019418      0x336 build/stm32f0xx_hal_rcc.o
 .debug_macro   0x000000000001974e      0x336 build/stm32f0xx_hal_rcc_ex.o
 .debug_macro   0x0000000000019a84      0x348 build/stm32f0xx_hal.o
 .debug_macro   0x0000000000019dcc      0x35c build/stm32f0xx_hal_gpio.o
 .debug_macro   0x000000000001a128      0x324 build/stm32f0xx_hal_dma.o
 .debug_macro   0x000000000001a44c      0x324 build/stm32f0xx_hal_cortex.o
 .debug_macro   0x000000000001a770      0x324 build/stm32f0xx_hal_crc.o
 .debug_macro   0x000000000001aa94      0x324 build/stm32f0xx_hal_crc_ex.o
 .debug_macro   0x000000000001adb8      0x324 build/system_stm32f0xx.o
 .debug_macro   0x000000000001b0dc      0x179 build/list.o
 .debug_macro   0x000000000001b255      0x1ff build/queue.o
 .debug_macro   0x000000000001b454      0x269 build/tasks.o
 .debug_macro   0x000000000001b6bd       0x10 build/tasks.o
 .debug_macro   0x000000000001b6cd      0x1eb build/cmsis_os.o
 .debug_macro   0x000000000001b8b8       0x10 build/cmsis_os.o
 .debug_macro   0x000000000001b8c8      0x13d build/port.o
 .debug_macro   0x000000000001ba05      0x1a0 build/heap_4.o
 .debug_macro   0x000000000001bba5      0x454 build/dma_usart_idle.o
 .debug_macro   0x000000000001bff9       0x10 build/dma_usart_idle.o
 .debug_macro   0x000000000001c009       0x70 build/dma_usart_idle.o
 .debug_macro   0x000000000001c079       0x10 build/dma_usart_idle.o
 .debug_macro   0x000000000001c089      0x485 build/modbus.o
 .debug_macro   0x000000000001c50e      0x4b8 build/modbus_device.o
 .debug_macro   0x000000000001c9c6       0x16 build/modbus_device.o
 .debug_macro   0x000000000001c9dc      0x481 build/ext_mem.o
 .debug_macro   0x000000000001ce5d       0xe2 build/ext_mem.o
 .debug_macro   0x000000000001cf3f       0xc3 build/CRC.o
 .debug_macro   0x000000000001d002      0x3a1 build/errors.o
 .debug_macro   0x000000000001d3a3      0x452 build/log.o
 .debug_macro   0x000000000001d7f5      0x492 build/user_cmd.o
 .debug_macro   0x000000000001dc87       0x7c build/soft_timer.o

.debug_line     0x0000000000000000    0x1fac8
 .debug_line    0x0000000000000000      0xf8a build/main.o
 .debug_line    0x0000000000000f8a      0x94c build/stm32f0xx_it.o
 .debug_line    0x00000000000018d6      0x973 build/stm32f0xx_hal_msp.o
 .debug_line    0x0000000000002249      0x68a build/stm32f0xx_hal_timebase_tim.o
 .debug_line    0x00000000000028d3     0x3f4b build/stm32f0xx_hal_i2c.o
 .debug_line    0x000000000000681e      0x8eb build/stm32f0xx_hal_i2c_ex.o
 .debug_line    0x0000000000007109     0x33fb build/stm32f0xx_hal_tim.o
 .debug_line    0x000000000000a504     0x1222 build/stm32f0xx_hal_tim_ex.o
 .debug_line    0x000000000000b726     0x20f5 build/stm32f0xx_hal_uart.o
 .debug_line    0x000000000000d81b      0x9c3 build/stm32f0xx_hal_uart_ex.o
 .debug_line    0x000000000000e1de     0x1092 build/stm32f0xx_hal_rcc.o
 .debug_line    0x000000000000f270      0xc46 build/stm32f0xx_hal_rcc_ex.o
 .debug_line    0x000000000000feb6      0x869 build/stm32f0xx_hal.o
 .debug_line    0x000000000001071f      0x9a8 build/stm32f0xx_hal_gpio.o
 .debug_line    0x00000000000110c7      0xe37 build/stm32f0xx_hal_dma.o
 .debug_line    0x0000000000011efe      0x938 build/stm32f0xx_hal_cortex.o
 .debug_line    0x0000000000012836      0x9d3 build/stm32f0xx_hal_crc.o
 .debug_line    0x0000000000013209      0x71f build/stm32f0xx_hal_crc_ex.o
 .debug_line    0x0000000000013928      0x6e4 build/system_stm32f0xx.o
 .debug_line    0x000000000001400c      0x4e0 build/list.o
 .debug_line    0x00000000000144ec     0x1357 build/queue.o
 .debug_line    0x0000000000015843     0x1eaf build/tasks.o
 .debug_line    0x00000000000176f2     0x12a0 build/cmsis_os.o
 .debug_line    0x0000000000018992      0x4e4 build/port.o
 .debug_line    0x0000000000018e76      0x6e2 build/heap_4.o
 .debug_line    0x0000000000019558      0xb21 build/dma_usart_idle.o
 .debug_line    0x000000000001a079      0xdf0 build/modbus.o
 .debug_line    0x000000000001ae69     0x2231 build/modbus_device.o
 .debug_line    0x000000000001d09a      0xadf build/ext_mem.o
 .debug_line    0x000000000001db79      0x27b build/CRC.o
 .debug_line    0x000000000001ddf4      0x816 build/errors.o
 .debug_line    0x000000000001e60a      0x8a1 build/log.o
 .debug_line    0x000000000001eeab      0x879 build/user_cmd.o
 .debug_line    0x000000000001f724      0x32c build/soft_timer.o
 .debug_line    0x000000000001fa50       0x78 build/startup_stm32f091xc.o

.debug_str      0x0000000000000000    0x981d7
 .debug_str     0x0000000000000000    0x91177 build/main.o
                                      0x91595 (size before relaxing)
 .debug_str     0x0000000000091177      0x3bf build/stm32f0xx_it.o
                                      0x90584 (size before relaxing)
 .debug_str     0x0000000000091536       0xd4 build/stm32f0xx_hal_msp.o
                                      0x8b2f8 (size before relaxing)
 .debug_str     0x000000000009160a       0xe3 build/stm32f0xx_hal_timebase_tim.o
                                      0x8ad61 (size before relaxing)
 .debug_str     0x00000000000916ed      0xd78 build/stm32f0xx_hal_i2c.o
                                      0x8b887 (size before relaxing)
 .debug_str     0x0000000000092465       0xe5 build/stm32f0xx_hal_i2c_ex.o
                                      0x8ac4a (size before relaxing)
 .debug_str     0x000000000009254a      0xcff build/stm32f0xx_hal_tim.o
                                      0x8b7e7 (size before relaxing)
 .debug_str     0x0000000000093249      0x50a build/stm32f0xx_hal_tim_ex.o
                                      0x8b113 (size before relaxing)
 .debug_str     0x0000000000093753      0x652 build/stm32f0xx_hal_uart.o
                                      0x8b24d (size before relaxing)
 .debug_str     0x0000000000093da5      0x163 build/stm32f0xx_hal_uart_ex.o
                                      0x8acbf (size before relaxing)
 .debug_str     0x0000000000093f08      0x1dc build/stm32f0xx_hal_rcc.o
                                      0x8aab0 (size before relaxing)
 .debug_str     0x00000000000940e4      0x2ac build/stm32f0xx_hal_rcc_ex.o
                                      0x8aa96 (size before relaxing)
 .debug_str     0x0000000000094390      0x2d8 build/stm32f0xx_hal.o
                                      0x8abbc (size before relaxing)
 .debug_str     0x0000000000094668      0x1ed build/stm32f0xx_hal_gpio.o
                                      0x8a93e (size before relaxing)
 .debug_str     0x0000000000094855      0x1db build/stm32f0xx_hal_dma.o
                                      0x8aa7b (size before relaxing)
 .debug_str     0x0000000000094a30      0x1a7 build/stm32f0xx_hal_cortex.o
                                      0x8aa93 (size before relaxing)
 .debug_str     0x0000000000094bd7       0xc9 build/stm32f0xx_hal_crc.o
                                      0x8a8b9 (size before relaxing)
 .debug_str     0x0000000000094ca0       0x7f build/stm32f0xx_hal_crc_ex.o
                                      0x8a88f (size before relaxing)
 .debug_str     0x0000000000094d1f       0x5c build/system_stm32f0xx.o
                                      0x8a687 (size before relaxing)
 .debug_str     0x0000000000094d7b      0x231 build/list.o
                                       0x9951 (size before relaxing)
 .debug_str     0x0000000000094fac      0x816 build/queue.o
                                       0xaf67 (size before relaxing)
 .debug_str     0x00000000000957c2     0x10e7 build/tasks.o
                                       0xba5c (size before relaxing)
 .debug_str     0x00000000000968a9      0x64b build/cmsis_os.o
                                       0xc6c8 (size before relaxing)
 .debug_str     0x0000000000096ef4      0x3de build/port.o
                                       0x7622 (size before relaxing)
 .debug_str     0x00000000000972d2      0x240 build/heap_4.o
                                       0xa072 (size before relaxing)
 .debug_str     0x0000000000097512      0x1ae build/dma_usart_idle.o
                                      0x900c2 (size before relaxing)
 .debug_str     0x00000000000976c0      0x23f build/modbus.o
                                      0x90691 (size before relaxing)
 .debug_str     0x00000000000978ff      0x4f0 build/modbus_device.o
                                      0x91111 (size before relaxing)
 .debug_str     0x0000000000097def      0x1e1 build/ext_mem.o
                                      0x90661 (size before relaxing)
 .debug_str     0x0000000000097fd0       0x28 build/CRC.o
                                      0x60ccd (size before relaxing)
 .debug_str     0x0000000000097ff8       0xa5 build/errors.o
                                      0x8b1a5 (size before relaxing)
 .debug_str     0x000000000009809d       0x5b build/log.o
                                      0x90369 (size before relaxing)
 .debug_str     0x00000000000980f8       0x58 build/user_cmd.o
                                      0x905a8 (size before relaxing)
 .debug_str     0x0000000000098150       0x63 build/soft_timer.o
                                       0x3d0d (size before relaxing)
 .debug_str     0x00000000000981b3       0x24 build/startup_stm32f091xc.o
                                         0x49 (size before relaxing)

.comment        0x0000000000000000       0x76
 .comment       0x0000000000000000       0x76 build/main.o
                                         0x77 (size before relaxing)
 .comment       0x0000000000000076       0x77 build/stm32f0xx_it.o
 .comment       0x0000000000000076       0x77 build/stm32f0xx_hal_msp.o
 .comment       0x0000000000000076       0x77 build/stm32f0xx_hal_timebase_tim.o
 .comment       0x0000000000000076       0x77 build/stm32f0xx_hal_i2c.o
 .comment       0x0000000000000076       0x77 build/stm32f0xx_hal_i2c_ex.o
 .comment       0x0000000000000076       0x77 build/stm32f0xx_hal_tim.o
 .comment       0x0000000000000076       0x77 build/stm32f0xx_hal_tim_ex.o
 .comment       0x0000000000000076       0x77 build/stm32f0xx_hal_uart.o
 .comment       0x0000000000000076       0x77 build/stm32f0xx_hal_uart_ex.o
 .comment       0x0000000000000076       0x77 build/stm32f0xx_hal_rcc.o
 .comment       0x0000000000000076       0x77 build/stm32f0xx_hal_rcc_ex.o
 .comment       0x0000000000000076       0x77 build/stm32f0xx_hal.o
 .comment       0x0000000000000076       0x77 build/stm32f0xx_hal_gpio.o
 .comment       0x0000000000000076       0x77 build/stm32f0xx_hal_dma.o
 .comment       0x0000000000000076       0x77 build/stm32f0xx_hal_cortex.o
 .comment       0x0000000000000076       0x77 build/stm32f0xx_hal_crc.o
 .comment       0x0000000000000076       0x77 build/stm32f0xx_hal_crc_ex.o
 .comment       0x0000000000000076       0x77 build/system_stm32f0xx.o
 .comment       0x0000000000000076       0x77 build/list.o
 .comment       0x0000000000000076       0x77 build/queue.o
 .comment       0x0000000000000076       0x77 build/tasks.o
 .comment       0x0000000000000076       0x77 build/cmsis_os.o
 .comment       0x0000000000000076       0x77 build/port.o
 .comment       0x0000000000000076       0x77 build/heap_4.o
 .comment       0x0000000000000076       0x77 build/dma_usart_idle.o
 .comment       0x0000000000000076       0x77 build/modbus.o
 .comment       0x0000000000000076       0x77 build/modbus_device.o
 .comment       0x0000000000000076       0x77 build/ext_mem.o
 .comment       0x0000000000000076       0x77 build/CRC.o
 .comment       0x0000000000000076       0x77 build/errors.o
 .comment       0x0000000000000076       0x77 build/log.o
 .comment       0x0000000000000076       0x77 build/user_cmd.o
 .comment       0x0000000000000076       0x77 build/soft_timer.o

.debug_frame    0x0000000000000000     0x4ab4
 .debug_frame   0x0000000000000000      0x130 build/main.o
 .debug_frame   0x0000000000000130      0x1a0 build/stm32f0xx_it.o
 .debug_frame   0x00000000000002d0       0xa8 build/stm32f0xx_hal_msp.o
 .debug_frame   0x0000000000000378       0x4c build/stm32f0xx_hal_timebase_tim.o
 .debug_frame   0x00000000000003c4      0x8ec build/stm32f0xx_hal_i2c.o
 .debug_frame   0x0000000000000cb0       0xe0 build/stm32f0xx_hal_i2c_ex.o
 .debug_frame   0x0000000000000d90      0xa78 build/stm32f0xx_hal_tim.o
 .debug_frame   0x0000000000001808      0x428 build/stm32f0xx_hal_tim_ex.o
 .debug_frame   0x0000000000001c30      0x5ec build/stm32f0xx_hal_uart.o
 .debug_frame   0x000000000000221c      0x108 build/stm32f0xx_hal_uart_ex.o
 .debug_frame   0x0000000000002324      0x15c build/stm32f0xx_hal_rcc.o
 .debug_frame   0x0000000000002480      0x118 build/stm32f0xx_hal_rcc_ex.o
 .debug_frame   0x0000000000002598      0x18c build/stm32f0xx_hal.o
 .debug_frame   0x0000000000002724       0xd0 build/stm32f0xx_hal_gpio.o
 .debug_frame   0x00000000000027f4      0x198 build/stm32f0xx_hal_dma.o
 .debug_frame   0x000000000000298c       0xe8 build/stm32f0xx_hal_cortex.o
 .debug_frame   0x0000000000002a74      0x10c build/stm32f0xx_hal_crc.o
 .debug_frame   0x0000000000002b80       0x80 build/stm32f0xx_hal_crc_ex.o
 .debug_frame   0x0000000000002c00       0x40 build/system_stm32f0xx.o
 .debug_frame   0x0000000000002c40       0x6c build/list.o
 .debug_frame   0x0000000000002cac      0x2a4 build/queue.o
 .debug_frame   0x0000000000002f50      0x4e4 build/tasks.o
 .debug_frame   0x0000000000003434      0x604 build/cmsis_os.o
 .debug_frame   0x0000000000003a38      0x120 build/port.o
 .debug_frame   0x0000000000003b58       0xa0 build/heap_4.o
 .debug_frame   0x0000000000003bf8       0x9c build/dma_usart_idle.o
 .debug_frame   0x0000000000003c94      0x110 build/modbus.o
 .debug_frame   0x0000000000003da4      0x468 build/modbus_device.o
 .debug_frame   0x000000000000420c      0x124 build/ext_mem.o
 .debug_frame   0x0000000000004330       0x34 build/CRC.o
 .debug_frame   0x0000000000004364       0xd8 build/errors.o
 .debug_frame   0x000000000000443c       0x60 build/log.o
 .debug_frame   0x000000000000449c       0x2c build/user_cmd.o
 .debug_frame   0x00000000000044c8       0x7c build/soft_timer.o
 .debug_frame   0x0000000000004544       0x40 /opt/gcc-arm-none-eabi/bin/../lib/gcc/arm-none-eabi/8.3.1/../../../../arm-none-eabi/lib/thumb/v6-m/nofp/libc_nano.a(lib_a-atoi.o)
 .debug_frame   0x0000000000004584       0x2c /opt/gcc-arm-none-eabi/bin/../lib/gcc/arm-none-eabi/8.3.1/../../../../arm-none-eabi/lib/thumb/v6-m/nofp/libc_nano.a(lib_a-init.o)
 .debug_frame   0x00000000000045b0       0x28 /opt/gcc-arm-none-eabi/bin/../lib/gcc/arm-none-eabi/8.3.1/../../../../arm-none-eabi/lib/thumb/v6-m/nofp/libc_nano.a(lib_a-memcpy-stub.o)
 .debug_frame   0x00000000000045d8       0x20 /opt/gcc-arm-none-eabi/bin/../lib/gcc/arm-none-eabi/8.3.1/../../../../arm-none-eabi/lib/thumb/v6-m/nofp/libc_nano.a(lib_a-memset.o)
 .debug_frame   0x00000000000045f8       0x50 /opt/gcc-arm-none-eabi/bin/../lib/gcc/arm-none-eabi/8.3.1/../../../../arm-none-eabi/lib/thumb/v6-m/nofp/libc_nano.a(lib_a-snprintf.o)
 .debug_frame   0x0000000000004648       0x2c /opt/gcc-arm-none-eabi/bin/../lib/gcc/arm-none-eabi/8.3.1/../../../../arm-none-eabi/lib/thumb/v6-m/nofp/libc_nano.a(lib_a-strstr.o)
 .debug_frame   0x0000000000004674       0x78 /opt/gcc-arm-none-eabi/bin/../lib/gcc/arm-none-eabi/8.3.1/../../../../arm-none-eabi/lib/thumb/v6-m/nofp/libc_nano.a(lib_a-strtol.o)
 .debug_frame   0x00000000000046ec       0x48 /opt/gcc-arm-none-eabi/bin/../lib/gcc/arm-none-eabi/8.3.1/../../../../arm-none-eabi/lib/thumb/v6-m/nofp/libc_nano.a(lib_a-vsnprintf.o)
 .debug_frame   0x0000000000004734       0x74 /opt/gcc-arm-none-eabi/bin/../lib/gcc/arm-none-eabi/8.3.1/../../../../arm-none-eabi/lib/thumb/v6-m/nofp/libc_nano.a(lib_a-nano-svfprintf.o)
 .debug_frame   0x00000000000047a8       0x54 /opt/gcc-arm-none-eabi/bin/../lib/gcc/arm-none-eabi/8.3.1/../../../../arm-none-eabi/lib/thumb/v6-m/nofp/libc_nano.a(lib_a-nano-vfprintf_i.o)
 .debug_frame   0x00000000000047fc       0x20 /opt/gcc-arm-none-eabi/bin/../lib/gcc/arm-none-eabi/8.3.1/../../../../arm-none-eabi/lib/thumb/v6-m/nofp/libc_nano.a(lib_a-memchr-stub.o)
 .debug_frame   0x000000000000481c       0x28 /opt/gcc-arm-none-eabi/bin/../lib/gcc/arm-none-eabi/8.3.1/../../../../arm-none-eabi/lib/thumb/v6-m/nofp/libc_nano.a(lib_a-memmove.o)
 .debug_frame   0x0000000000004844       0x2c /opt/gcc-arm-none-eabi/bin/../lib/gcc/arm-none-eabi/8.3.1/../../../../arm-none-eabi/lib/thumb/v6-m/nofp/libc_nano.a(lib_a-nano-freer.o)
 .debug_frame   0x0000000000004870       0x30 /opt/gcc-arm-none-eabi/bin/../lib/gcc/arm-none-eabi/8.3.1/../../../../arm-none-eabi/lib/thumb/v6-m/nofp/libc_nano.a(lib_a-nano-mallocr.o)
 .debug_frame   0x00000000000048a0       0x30 /opt/gcc-arm-none-eabi/bin/../lib/gcc/arm-none-eabi/8.3.1/../../../../arm-none-eabi/lib/thumb/v6-m/nofp/libc_nano.a(lib_a-nano-reallocr.o)
 .debug_frame   0x00000000000048d0       0x2c /opt/gcc-arm-none-eabi/bin/../lib/gcc/arm-none-eabi/8.3.1/../../../../arm-none-eabi/lib/thumb/v6-m/nofp/libc_nano.a(lib_a-sbrkr.o)
 .debug_frame   0x00000000000048fc       0x40 /opt/gcc-arm-none-eabi/bin/../lib/gcc/arm-none-eabi/8.3.1/../../../../arm-none-eabi/lib/thumb/v6-m/nofp/libc_nano.a(lib_a-mlock.o)
 .debug_frame   0x000000000000493c       0x20 /opt/gcc-arm-none-eabi/bin/../lib/gcc/arm-none-eabi/8.3.1/../../../../arm-none-eabi/lib/thumb/v6-m/nofp/libc_nano.a(lib_a-nano-msizer.o)
 .debug_frame   0x000000000000495c       0x48 /opt/gcc-arm-none-eabi/bin/../lib/gcc/arm-none-eabi/8.3.1/../../../../arm-none-eabi/lib/thumb/v6-m/nofp/libc_nano.a(lib_a-reent.o)
 .debug_frame   0x00000000000049a4       0xb0 /opt/gcc-arm-none-eabi/bin/../lib/gcc/arm-none-eabi/8.3.1/../../../../arm-none-eabi/lib/thumb/v6-m/nofp/libc_nano.a(lib_a-lock.o)
 .debug_frame   0x0000000000004a54       0x20 /opt/gcc-arm-none-eabi/bin/../lib/gcc/arm-none-eabi/8.3.1/../../../../arm-none-eabi/lib/thumb/v6-m/nofp/libnosys.a(sbrk.o)
 .debug_frame   0x0000000000004a74       0x20 /opt/gcc-arm-none-eabi/bin/../lib/gcc/arm-none-eabi/8.3.1/thumb/v6-m/nofp/libgcc.a(_udivsi3.o)
 .debug_frame   0x0000000000004a94       0x20 /opt/gcc-arm-none-eabi/bin/../lib/gcc/arm-none-eabi/8.3.1/thumb/v6-m/nofp/libgcc.a(_divsi3.o)

Cross Reference Table

Symbol                                            File
ADC1_COMP_IRQHandler                              build/startup_stm32f091xc.o
AHBPrescTable                                     build/system_stm32f0xx.o
                                                  build/stm32f0xx_hal_rcc.o
APBPrescTable                                     build/system_stm32f0xx.o
                                                  build/stm32f0xx_hal_rcc.o
CEC_CAN_IRQHandler                                build/startup_stm32f091xc.o
CRC16                                             build/CRC.o
                                                  build/ext_mem.o
                                                  build/modbus.o
DMA1_Ch1_IRQHandler                               build/stm32f0xx_it.o
DMA1_Ch2_3_DMA2_Ch1_2_IRQHandler                  build/stm32f0xx_it.o
DMA1_Ch4_7_DMA2_Ch3_5_IRQHandler                  build/stm32f0xx_it.o
DMA_RX_Buffer_1                                   build/dma_usart_idle.o
DMA_RX_Buffer_2                                   build/dma_usart_idle.o
DO_MODE                                           build/user_cmd.o
                                                  build/log.o
                                                  build/errors.o
                                                  build/ext_mem.o
                                                  build/modbus_device.o
                                                  build/modbus.o
                                                  build/stm32f0xx_it.o
                                                  build/main.o
Default_Handler                                   build/startup_stm32f091xc.o
EXTI0_1_IRQHandler                                build/stm32f0xx_it.o
EXTI2_3_IRQHandler                                build/stm32f0xx_it.o
EXTI4_15_IRQHandler                               build/stm32f0xx_it.o
Error_Handler                                     build/main.o
                                                  build/stm32f0xx_hal_msp.o
FLASH_IRQHandler                                  build/startup_stm32f091xc.o
FLASH_PageErase                                   build/stm32f0xx_hal_flash_ex.o
                                                  build/stm32f0xx_hal_flash.o
FLASH_WaitForLastOperation                        build/stm32f0xx_hal_flash.o
                                                  build/stm32f0xx_hal_flash_ex.o
HAL_CRCEx_Init                                    build/stm32f0xx_hal_crc_ex.o
                                                  build/stm32f0xx_hal_crc.o
HAL_CRCEx_Input_Data_Reverse                      build/stm32f0xx_hal_crc_ex.o
HAL_CRCEx_Output_Data_Reverse                     build/stm32f0xx_hal_crc_ex.o
HAL_CRCEx_Polynomial_Set                          build/stm32f0xx_hal_crc_ex.o
HAL_CRC_Accumulate                                build/stm32f0xx_hal_crc.o
HAL_CRC_Calculate                                 build/stm32f0xx_hal_crc.o
                                                  build/main.o
HAL_CRC_DeInit                                    build/stm32f0xx_hal_crc.o
HAL_CRC_GetState                                  build/stm32f0xx_hal_crc.o
HAL_CRC_Init                                      build/stm32f0xx_hal_crc.o
                                                  build/main.o
HAL_CRC_MspDeInit                                 build/stm32f0xx_hal_crc.o
HAL_CRC_MspInit                                   build/stm32f0xx_hal_crc.o
HAL_DBGMCU_DisableDBGStandbyMode                  build/stm32f0xx_hal.o
HAL_DBGMCU_DisableDBGStopMode                     build/stm32f0xx_hal.o
HAL_DBGMCU_EnableDBGStandbyMode                   build/stm32f0xx_hal.o
HAL_DBGMCU_EnableDBGStopMode                      build/stm32f0xx_hal.o
HAL_DMA_Abort                                     build/stm32f0xx_hal_dma.o
                                                  build/stm32f0xx_hal_uart.o
                                                  build/stm32f0xx_hal_tim.o
HAL_DMA_Abort_IT                                  build/stm32f0xx_hal_dma.o
                                                  build/stm32f0xx_hal_uart.o
                                                  build/stm32f0xx_hal_i2c.o
HAL_DMA_DeInit                                    build/stm32f0xx_hal_dma.o
                                                  build/stm32f0xx_hal_msp.o
HAL_DMA_GetError                                  build/stm32f0xx_hal_dma.o
HAL_DMA_GetState                                  build/stm32f0xx_hal_dma.o
HAL_DMA_IRQHandler                                build/stm32f0xx_hal_dma.o
                                                  build/stm32f0xx_it.o
HAL_DMA_Init                                      build/stm32f0xx_hal_dma.o
                                                  build/stm32f0xx_hal_msp.o
HAL_DMA_PollForTransfer                           build/stm32f0xx_hal_dma.o
HAL_DMA_RegisterCallback                          build/stm32f0xx_hal_dma.o
HAL_DMA_Start                                     build/stm32f0xx_hal_dma.o
HAL_DMA_Start_IT                                  build/stm32f0xx_hal_dma.o
                                                  build/stm32f0xx_hal_uart.o
                                                  build/stm32f0xx_hal_tim_ex.o
                                                  build/stm32f0xx_hal_tim.o
                                                  build/stm32f0xx_hal_i2c.o
HAL_DMA_UnRegisterCallback                        build/stm32f0xx_hal_dma.o
HAL_DeInit                                        build/stm32f0xx_hal.o
HAL_Delay                                         build/stm32f0xx_hal.o
HAL_FLASHEx_Erase                                 build/stm32f0xx_hal_flash_ex.o
HAL_FLASHEx_Erase_IT                              build/stm32f0xx_hal_flash_ex.o
HAL_FLASHEx_OBErase                               build/stm32f0xx_hal_flash_ex.o
HAL_FLASHEx_OBGetConfig                           build/stm32f0xx_hal_flash_ex.o
HAL_FLASHEx_OBGetUserData                         build/stm32f0xx_hal_flash_ex.o
HAL_FLASHEx_OBProgram                             build/stm32f0xx_hal_flash_ex.o
HAL_FLASH_EndOfOperationCallback                  build/stm32f0xx_hal_flash.o
HAL_FLASH_GetError                                build/stm32f0xx_hal_flash.o
HAL_FLASH_IRQHandler                              build/stm32f0xx_hal_flash.o
HAL_FLASH_Lock                                    build/stm32f0xx_hal_flash.o
HAL_FLASH_OB_Launch                               build/stm32f0xx_hal_flash.o
HAL_FLASH_OB_Lock                                 build/stm32f0xx_hal_flash.o
HAL_FLASH_OB_Unlock                               build/stm32f0xx_hal_flash.o
HAL_FLASH_OperationErrorCallback                  build/stm32f0xx_hal_flash.o
HAL_FLASH_Program                                 build/stm32f0xx_hal_flash.o
HAL_FLASH_Program_IT                              build/stm32f0xx_hal_flash.o
HAL_FLASH_Unlock                                  build/stm32f0xx_hal_flash.o
HAL_GPIO_DeInit                                   build/stm32f0xx_hal_gpio.o
                                                  build/modbus_device.o
                                                  build/stm32f0xx_hal_msp.o
HAL_GPIO_EXTI_Callback                            build/stm32f0xx_hal_gpio.o
HAL_GPIO_EXTI_IRQHandler                          build/stm32f0xx_hal_gpio.o
HAL_GPIO_Init                                     build/stm32f0xx_hal_gpio.o
                                                  build/ext_mem.o
                                                  build/modbus_device.o
                                                  build/dma_usart_idle.o
                                                  build/stm32f0xx_hal_rcc.o
                                                  build/stm32f0xx_hal_msp.o
                                                  build/main.o
HAL_GPIO_LockPin                                  build/stm32f0xx_hal_gpio.o
HAL_GPIO_ReadPin                                  build/stm32f0xx_hal_gpio.o
HAL_GPIO_TogglePin                                build/stm32f0xx_hal_gpio.o
HAL_GPIO_WritePin                                 build/stm32f0xx_hal_gpio.o
                                                  build/ext_mem.o
HAL_GetDEVID                                      build/stm32f0xx_hal.o
HAL_GetHalVersion                                 build/stm32f0xx_hal.o
HAL_GetREVID                                      build/stm32f0xx_hal.o
HAL_GetTick                                       build/stm32f0xx_hal.o
                                                  build/modbus_device.o
                                                  build/stm32f0xx_hal_flash.o
                                                  build/stm32f0xx_hal_dma.o
                                                  build/stm32f0xx_hal_rcc_ex.o
                                                  build/stm32f0xx_hal_rcc.o
                                                  build/stm32f0xx_hal_uart_ex.o
                                                  build/stm32f0xx_hal_uart.o
                                                  build/stm32f0xx_hal_iwdg.o
                                                  build/stm32f0xx_hal_i2c.o
HAL_GetUIDw0                                      build/stm32f0xx_hal.o
HAL_GetUIDw1                                      build/stm32f0xx_hal.o
HAL_GetUIDw2                                      build/stm32f0xx_hal.o
HAL_HalfDuplex_EnableReceiver                     build/stm32f0xx_hal_uart.o
HAL_HalfDuplex_EnableTransmitter                  build/stm32f0xx_hal_uart.o
HAL_HalfDuplex_Init                               build/stm32f0xx_hal_uart.o
HAL_I2CEx_ConfigAnalogFilter                      build/stm32f0xx_hal_i2c_ex.o
                                                  build/main.o
HAL_I2CEx_ConfigDigitalFilter                     build/stm32f0xx_hal_i2c_ex.o
                                                  build/main.o
HAL_I2CEx_DisableFastModePlus                     build/stm32f0xx_hal_i2c_ex.o
HAL_I2CEx_DisableWakeUp                           build/stm32f0xx_hal_i2c_ex.o
HAL_I2CEx_EnableFastModePlus                      build/stm32f0xx_hal_i2c_ex.o
HAL_I2CEx_EnableWakeUp                            build/stm32f0xx_hal_i2c_ex.o
HAL_I2C_AbortCpltCallback                         build/stm32f0xx_hal_i2c.o
HAL_I2C_AddrCallback                              build/stm32f0xx_hal_i2c.o
HAL_I2C_DeInit                                    build/stm32f0xx_hal_i2c.o
HAL_I2C_DisableListen_IT                          build/stm32f0xx_hal_i2c.o
HAL_I2C_ER_IRQHandler                             build/stm32f0xx_hal_i2c.o
HAL_I2C_EV_IRQHandler                             build/stm32f0xx_hal_i2c.o
HAL_I2C_EnableListen_IT                           build/stm32f0xx_hal_i2c.o
HAL_I2C_ErrorCallback                             build/stm32f0xx_hal_i2c.o
HAL_I2C_GetError                                  build/stm32f0xx_hal_i2c.o
HAL_I2C_GetMode                                   build/stm32f0xx_hal_i2c.o
HAL_I2C_GetState                                  build/stm32f0xx_hal_i2c.o
HAL_I2C_Init                                      build/stm32f0xx_hal_i2c.o
                                                  build/main.o
HAL_I2C_IsDeviceReady                             build/stm32f0xx_hal_i2c.o
HAL_I2C_ListenCpltCallback                        build/stm32f0xx_hal_i2c.o
HAL_I2C_MasterRxCpltCallback                      build/stm32f0xx_hal_i2c.o
HAL_I2C_MasterTxCpltCallback                      build/stm32f0xx_hal_i2c.o
HAL_I2C_Master_Abort_IT                           build/stm32f0xx_hal_i2c.o
HAL_I2C_Master_Receive                            build/stm32f0xx_hal_i2c.o
HAL_I2C_Master_Receive_DMA                        build/stm32f0xx_hal_i2c.o
HAL_I2C_Master_Receive_IT                         build/stm32f0xx_hal_i2c.o
HAL_I2C_Master_Sequential_Receive_IT              build/stm32f0xx_hal_i2c.o
HAL_I2C_Master_Sequential_Transmit_IT             build/stm32f0xx_hal_i2c.o
HAL_I2C_Master_Transmit                           build/stm32f0xx_hal_i2c.o
HAL_I2C_Master_Transmit_DMA                       build/stm32f0xx_hal_i2c.o
HAL_I2C_Master_Transmit_IT                        build/stm32f0xx_hal_i2c.o
HAL_I2C_MemRxCpltCallback                         build/stm32f0xx_hal_i2c.o
HAL_I2C_MemTxCpltCallback                         build/stm32f0xx_hal_i2c.o
HAL_I2C_Mem_Read                                  build/stm32f0xx_hal_i2c.o
                                                  build/ext_mem.o
HAL_I2C_Mem_Read_DMA                              build/stm32f0xx_hal_i2c.o
HAL_I2C_Mem_Read_IT                               build/stm32f0xx_hal_i2c.o
HAL_I2C_Mem_Write                                 build/stm32f0xx_hal_i2c.o
                                                  build/ext_mem.o
HAL_I2C_Mem_Write_DMA                             build/stm32f0xx_hal_i2c.o
HAL_I2C_Mem_Write_IT                              build/stm32f0xx_hal_i2c.o
HAL_I2C_MspDeInit                                 build/stm32f0xx_hal_msp.o
HAL_I2C_MspInit                                   build/stm32f0xx_hal_msp.o
HAL_I2C_SlaveRxCpltCallback                       build/stm32f0xx_hal_i2c.o
HAL_I2C_SlaveTxCpltCallback                       build/stm32f0xx_hal_i2c.o
HAL_I2C_Slave_Receive                             build/stm32f0xx_hal_i2c.o
HAL_I2C_Slave_Receive_DMA                         build/stm32f0xx_hal_i2c.o
HAL_I2C_Slave_Receive_IT                          build/stm32f0xx_hal_i2c.o
HAL_I2C_Slave_Sequential_Receive_IT               build/stm32f0xx_hal_i2c.o
HAL_I2C_Slave_Sequential_Transmit_IT              build/stm32f0xx_hal_i2c.o
HAL_I2C_Slave_Transmit                            build/stm32f0xx_hal_i2c.o
HAL_I2C_Slave_Transmit_DMA                        build/stm32f0xx_hal_i2c.o
HAL_I2C_Slave_Transmit_IT                         build/stm32f0xx_hal_i2c.o
HAL_IWDG_Init                                     build/stm32f0xx_hal_iwdg.o
HAL_IWDG_Refresh                                  build/stm32f0xx_hal_iwdg.o
HAL_IncTick                                       build/stm32f0xx_hal.o
                                                  build/stm32f0xx_it.o
HAL_Init                                          build/stm32f0xx_hal.o
                                                  build/main.o
HAL_InitTick                                      build/stm32f0xx_hal_timebase_tim.o
                                                  build/stm32f0xx_hal_rcc.o
HAL_LIN_Init                                      build/stm32f0xx_hal_uart_ex.o
HAL_LIN_SendBreak                                 build/stm32f0xx_hal_uart_ex.o
HAL_MspDeInit                                     build/stm32f0xx_hal.o
HAL_MspInit                                       build/stm32f0xx_hal_msp.o
HAL_MultiProcessorEx_AddressLength_Set            build/stm32f0xx_hal_uart_ex.o
HAL_MultiProcessor_DisableMuteMode                build/stm32f0xx_hal_uart.o
HAL_MultiProcessor_EnableMuteMode                 build/stm32f0xx_hal_uart.o
HAL_MultiProcessor_EnterMuteMode                  build/stm32f0xx_hal_uart.o
HAL_MultiProcessor_Init                           build/stm32f0xx_hal_uart.o
HAL_NVIC_ClearPendingIRQ                          build/stm32f0xx_hal_cortex.o
HAL_NVIC_DisableIRQ                               build/stm32f0xx_hal_cortex.o
                                                  build/modbus_device.o
                                                  build/stm32f0xx_hal_msp.o
HAL_NVIC_EnableIRQ                                build/stm32f0xx_hal_cortex.o
                                                  build/modbus_device.o
                                                  build/stm32f0xx_hal_timebase_tim.o
                                                  build/stm32f0xx_hal_msp.o
                                                  build/main.o
HAL_NVIC_GetPendingIRQ                            build/stm32f0xx_hal_cortex.o
HAL_NVIC_GetPriority                              build/stm32f0xx_hal_cortex.o
HAL_NVIC_SetPendingIRQ                            build/stm32f0xx_hal_cortex.o
HAL_NVIC_SetPriority                              build/stm32f0xx_hal_cortex.o
                                                  build/modbus_device.o
                                                  build/stm32f0xx_hal.o
                                                  build/stm32f0xx_hal_timebase_tim.o
                                                  build/stm32f0xx_hal_msp.o
                                                  build/main.o
HAL_NVIC_SystemReset                              build/stm32f0xx_hal_cortex.o
HAL_PWREx_DisableVddio2Monitor                    build/stm32f0xx_hal_pwr_ex.o
HAL_PWREx_EnableVddio2Monitor                     build/stm32f0xx_hal_pwr_ex.o
HAL_PWREx_Vddio2MonitorCallback                   build/stm32f0xx_hal_pwr_ex.o
HAL_PWREx_Vddio2Monitor_IRQHandler                build/stm32f0xx_hal_pwr_ex.o
HAL_PWR_ConfigPVD                                 build/stm32f0xx_hal_pwr_ex.o
HAL_PWR_DeInit                                    build/stm32f0xx_hal_pwr.o
HAL_PWR_DisableBkUpAccess                         build/stm32f0xx_hal_pwr.o
HAL_PWR_DisablePVD                                build/stm32f0xx_hal_pwr_ex.o
HAL_PWR_DisableSEVOnPend                          build/stm32f0xx_hal_pwr.o
HAL_PWR_DisableSleepOnExit                        build/stm32f0xx_hal_pwr.o
HAL_PWR_DisableWakeUpPin                          build/stm32f0xx_hal_pwr.o
HAL_PWR_EnableBkUpAccess                          build/stm32f0xx_hal_pwr.o
HAL_PWR_EnablePVD                                 build/stm32f0xx_hal_pwr_ex.o
HAL_PWR_EnableSEVOnPend                           build/stm32f0xx_hal_pwr.o
HAL_PWR_EnableSleepOnExit                         build/stm32f0xx_hal_pwr.o
HAL_PWR_EnableWakeUpPin                           build/stm32f0xx_hal_pwr.o
HAL_PWR_EnterSLEEPMode                            build/stm32f0xx_hal_pwr.o
HAL_PWR_EnterSTANDBYMode                          build/stm32f0xx_hal_pwr.o
HAL_PWR_EnterSTOPMode                             build/stm32f0xx_hal_pwr.o
HAL_PWR_PVDCallback                               build/stm32f0xx_hal_pwr_ex.o
HAL_PWR_PVD_IRQHandler                            build/stm32f0xx_hal_pwr_ex.o
HAL_RCCEx_CRSConfig                               build/stm32f0xx_hal_rcc_ex.o
HAL_RCCEx_CRSGetSynchronizationInfo               build/stm32f0xx_hal_rcc_ex.o
HAL_RCCEx_CRSSoftwareSynchronizationGenerate      build/stm32f0xx_hal_rcc_ex.o
HAL_RCCEx_CRSWaitSynchronization                  build/stm32f0xx_hal_rcc_ex.o
HAL_RCCEx_CRS_ErrorCallback                       build/stm32f0xx_hal_rcc_ex.o
HAL_RCCEx_CRS_ExpectedSyncCallback                build/stm32f0xx_hal_rcc_ex.o
HAL_RCCEx_CRS_IRQHandler                          build/stm32f0xx_hal_rcc_ex.o
HAL_RCCEx_CRS_SyncOkCallback                      build/stm32f0xx_hal_rcc_ex.o
HAL_RCCEx_CRS_SyncWarnCallback                    build/stm32f0xx_hal_rcc_ex.o
HAL_RCCEx_GetPeriphCLKConfig                      build/stm32f0xx_hal_rcc_ex.o
HAL_RCCEx_GetPeriphCLKFreq                        build/stm32f0xx_hal_rcc_ex.o
HAL_RCCEx_PeriphCLKConfig                         build/stm32f0xx_hal_rcc_ex.o
                                                  build/main.o
HAL_RCC_CSSCallback                               build/stm32f0xx_hal_rcc.o
HAL_RCC_ClockConfig                               build/stm32f0xx_hal_rcc.o
                                                  build/main.o
HAL_RCC_DeInit                                    build/stm32f0xx_hal_rcc.o
HAL_RCC_DisableCSS                                build/stm32f0xx_hal_rcc.o
HAL_RCC_EnableCSS                                 build/stm32f0xx_hal_rcc.o
HAL_RCC_GetClockConfig                            build/stm32f0xx_hal_rcc.o
                                                  build/stm32f0xx_hal_timebase_tim.o
HAL_RCC_GetHCLKFreq                               build/stm32f0xx_hal_rcc.o
                                                  build/stm32f0xx_hal.o
HAL_RCC_GetOscConfig                              build/stm32f0xx_hal_rcc.o
HAL_RCC_GetPCLK1Freq                              build/stm32f0xx_hal_rcc.o
                                                  build/stm32f0xx_hal_rcc_ex.o
                                                  build/stm32f0xx_hal_uart.o
                                                  build/stm32f0xx_hal_timebase_tim.o
HAL_RCC_GetSysClockFreq                           build/stm32f0xx_hal_rcc.o
                                                  build/stm32f0xx_hal_rcc_ex.o
                                                  build/stm32f0xx_hal_uart.o
HAL_RCC_MCOConfig                                 build/stm32f0xx_hal_rcc.o
HAL_RCC_NMI_IRQHandler                            build/stm32f0xx_hal_rcc.o
HAL_RCC_OscConfig                                 build/stm32f0xx_hal_rcc.o
                                                  build/main.o
HAL_RS485Ex_Init                                  build/stm32f0xx_hal_uart_ex.o
                                                  build/modbus_device.o
                                                  build/main.o
HAL_ResumeTick                                    build/stm32f0xx_hal_timebase_tim.o
HAL_SYSTICK_CLKSourceConfig                       build/stm32f0xx_hal_cortex.o
HAL_SYSTICK_Callback                              build/stm32f0xx_hal_cortex.o
HAL_SYSTICK_Config                                build/stm32f0xx_hal_cortex.o
                                                  build/stm32f0xx_hal.o
HAL_SYSTICK_IRQHandler                            build/stm32f0xx_hal_cortex.o
HAL_SuspendTick                                   build/stm32f0xx_hal_timebase_tim.o
HAL_TIMEx_BreakCallback                           build/stm32f0xx_hal_tim_ex.o
                                                  build/stm32f0xx_hal_tim.o
HAL_TIMEx_CommutationCallback                     build/stm32f0xx_hal_tim_ex.o
                                                  build/stm32f0xx_hal_tim.o
HAL_TIMEx_ConfigBreakDeadTime                     build/stm32f0xx_hal_tim_ex.o
HAL_TIMEx_ConfigCommutationEvent                  build/stm32f0xx_hal_tim_ex.o
HAL_TIMEx_ConfigCommutationEvent_DMA              build/stm32f0xx_hal_tim_ex.o
HAL_TIMEx_ConfigCommutationEvent_IT               build/stm32f0xx_hal_tim_ex.o
HAL_TIMEx_HallSensor_DeInit                       build/stm32f0xx_hal_tim_ex.o
HAL_TIMEx_HallSensor_GetState                     build/stm32f0xx_hal_tim_ex.o
HAL_TIMEx_HallSensor_Init                         build/stm32f0xx_hal_tim_ex.o
HAL_TIMEx_HallSensor_MspDeInit                    build/stm32f0xx_hal_tim_ex.o
HAL_TIMEx_HallSensor_MspInit                      build/stm32f0xx_hal_tim_ex.o
HAL_TIMEx_HallSensor_Start                        build/stm32f0xx_hal_tim_ex.o
HAL_TIMEx_HallSensor_Start_DMA                    build/stm32f0xx_hal_tim_ex.o
HAL_TIMEx_HallSensor_Start_IT                     build/stm32f0xx_hal_tim_ex.o
HAL_TIMEx_HallSensor_Stop                         build/stm32f0xx_hal_tim_ex.o
HAL_TIMEx_HallSensor_Stop_DMA                     build/stm32f0xx_hal_tim_ex.o
HAL_TIMEx_HallSensor_Stop_IT                      build/stm32f0xx_hal_tim_ex.o
HAL_TIMEx_MasterConfigSynchronization             build/stm32f0xx_hal_tim_ex.o
HAL_TIMEx_OCN_Start                               build/stm32f0xx_hal_tim_ex.o
HAL_TIMEx_OCN_Start_DMA                           build/stm32f0xx_hal_tim_ex.o
HAL_TIMEx_OCN_Start_IT                            build/stm32f0xx_hal_tim_ex.o
HAL_TIMEx_OCN_Stop                                build/stm32f0xx_hal_tim_ex.o
HAL_TIMEx_OCN_Stop_DMA                            build/stm32f0xx_hal_tim_ex.o
HAL_TIMEx_OCN_Stop_IT                             build/stm32f0xx_hal_tim_ex.o
HAL_TIMEx_OnePulseN_Start                         build/stm32f0xx_hal_tim_ex.o
HAL_TIMEx_OnePulseN_Start_IT                      build/stm32f0xx_hal_tim_ex.o
HAL_TIMEx_OnePulseN_Stop                          build/stm32f0xx_hal_tim_ex.o
HAL_TIMEx_OnePulseN_Stop_IT                       build/stm32f0xx_hal_tim_ex.o
HAL_TIMEx_PWMN_Start                              build/stm32f0xx_hal_tim_ex.o
HAL_TIMEx_PWMN_Start_DMA                          build/stm32f0xx_hal_tim_ex.o
HAL_TIMEx_PWMN_Start_IT                           build/stm32f0xx_hal_tim_ex.o
HAL_TIMEx_PWMN_Stop                               build/stm32f0xx_hal_tim_ex.o
HAL_TIMEx_PWMN_Stop_DMA                           build/stm32f0xx_hal_tim_ex.o
HAL_TIMEx_PWMN_Stop_IT                            build/stm32f0xx_hal_tim_ex.o
HAL_TIMEx_RemapConfig                             build/stm32f0xx_hal_tim_ex.o
HAL_TIM_Base_DeInit                               build/stm32f0xx_hal_tim.o
HAL_TIM_Base_GetState                             build/stm32f0xx_hal_tim.o
HAL_TIM_Base_Init                                 build/stm32f0xx_hal_tim.o
                                                  build/modbus_device.o
                                                  build/stm32f0xx_hal_timebase_tim.o
HAL_TIM_Base_MspDeInit                            build/stm32f0xx_hal_tim.o
HAL_TIM_Base_MspInit                              build/stm32f0xx_hal_tim.o
HAL_TIM_Base_Start                                build/stm32f0xx_hal_tim.o
HAL_TIM_Base_Start_DMA                            build/stm32f0xx_hal_tim.o
HAL_TIM_Base_Start_IT                             build/stm32f0xx_hal_tim.o
                                                  build/modbus_device.o
                                                  build/stm32f0xx_hal_timebase_tim.o
HAL_TIM_Base_Stop                                 build/stm32f0xx_hal_tim.o
HAL_TIM_Base_Stop_DMA                             build/stm32f0xx_hal_tim.o
HAL_TIM_Base_Stop_IT                              build/stm32f0xx_hal_tim.o
HAL_TIM_ConfigClockSource                         build/stm32f0xx_hal_tim.o
HAL_TIM_ConfigOCrefClear                          build/stm32f0xx_hal_tim_ex.o
                                                  build/stm32f0xx_hal_tim.o
HAL_TIM_ConfigTI1Input                            build/stm32f0xx_hal_tim.o
HAL_TIM_DMABurst_MultiReadStart                   build/stm32f0xx_hal_tim.o
HAL_TIM_DMABurst_MultiWriteStart                  build/stm32f0xx_hal_tim.o
HAL_TIM_DMABurst_ReadStart                        build/stm32f0xx_hal_tim.o
HAL_TIM_DMABurst_ReadStop                         build/stm32f0xx_hal_tim.o
HAL_TIM_DMABurst_WriteStart                       build/stm32f0xx_hal_tim.o
HAL_TIM_DMABurst_WriteStop                        build/stm32f0xx_hal_tim.o
HAL_TIM_Encoder_DeInit                            build/stm32f0xx_hal_tim.o
HAL_TIM_Encoder_GetState                          build/stm32f0xx_hal_tim.o
HAL_TIM_Encoder_Init                              build/stm32f0xx_hal_tim.o
HAL_TIM_Encoder_MspDeInit                         build/stm32f0xx_hal_tim.o
HAL_TIM_Encoder_MspInit                           build/stm32f0xx_hal_tim.o
HAL_TIM_Encoder_Start                             build/stm32f0xx_hal_tim.o
HAL_TIM_Encoder_Start_DMA                         build/stm32f0xx_hal_tim.o
HAL_TIM_Encoder_Start_IT                          build/stm32f0xx_hal_tim.o
HAL_TIM_Encoder_Stop                              build/stm32f0xx_hal_tim.o
HAL_TIM_Encoder_Stop_DMA                          build/stm32f0xx_hal_tim.o
HAL_TIM_Encoder_Stop_IT                           build/stm32f0xx_hal_tim.o
HAL_TIM_ErrorCallback                             build/stm32f0xx_hal_tim.o
HAL_TIM_GenerateEvent                             build/stm32f0xx_hal_tim.o
HAL_TIM_IC_CaptureCallback                        build/stm32f0xx_it.o
HAL_TIM_IC_ConfigChannel                          build/stm32f0xx_hal_tim.o
HAL_TIM_IC_DeInit                                 build/stm32f0xx_hal_tim.o
HAL_TIM_IC_GetState                               build/stm32f0xx_hal_tim.o
HAL_TIM_IC_Init                                   build/stm32f0xx_hal_tim.o
HAL_TIM_IC_MspDeInit                              build/stm32f0xx_hal_tim.o
HAL_TIM_IC_MspInit                                build/stm32f0xx_hal_tim.o
HAL_TIM_IC_Start                                  build/stm32f0xx_hal_tim.o
HAL_TIM_IC_Start_DMA                              build/stm32f0xx_hal_tim.o
HAL_TIM_IC_Start_IT                               build/stm32f0xx_hal_tim.o
HAL_TIM_IC_Stop                                   build/stm32f0xx_hal_tim.o
HAL_TIM_IC_Stop_DMA                               build/stm32f0xx_hal_tim.o
HAL_TIM_IC_Stop_IT                                build/stm32f0xx_hal_tim.o
HAL_TIM_IRQHandler                                build/stm32f0xx_hal_tim.o
                                                  build/stm32f0xx_it.o
HAL_TIM_OC_ConfigChannel                          build/stm32f0xx_hal_tim.o
HAL_TIM_OC_DeInit                                 build/stm32f0xx_hal_tim.o
HAL_TIM_OC_DelayElapsedCallback                   build/stm32f0xx_it.o
HAL_TIM_OC_GetState                               build/stm32f0xx_hal_tim.o
HAL_TIM_OC_Init                                   build/stm32f0xx_hal_tim.o
HAL_TIM_OC_MspDeInit                              build/stm32f0xx_hal_tim.o
HAL_TIM_OC_MspInit                                build/stm32f0xx_hal_tim.o
HAL_TIM_OC_Start                                  build/stm32f0xx_hal_tim.o
HAL_TIM_OC_Start_DMA                              build/stm32f0xx_hal_tim.o
HAL_TIM_OC_Start_IT                               build/stm32f0xx_hal_tim.o
HAL_TIM_OC_Stop                                   build/stm32f0xx_hal_tim.o
HAL_TIM_OC_Stop_DMA                               build/stm32f0xx_hal_tim.o
HAL_TIM_OC_Stop_IT                                build/stm32f0xx_hal_tim.o
HAL_TIM_OnePulse_ConfigChannel                    build/stm32f0xx_hal_tim.o
HAL_TIM_OnePulse_DeInit                           build/stm32f0xx_hal_tim.o
HAL_TIM_OnePulse_GetState                         build/stm32f0xx_hal_tim.o
HAL_TIM_OnePulse_Init                             build/stm32f0xx_hal_tim.o
HAL_TIM_OnePulse_MspDeInit                        build/stm32f0xx_hal_tim.o
HAL_TIM_OnePulse_MspInit                          build/stm32f0xx_hal_tim.o
HAL_TIM_OnePulse_Start                            build/stm32f0xx_hal_tim.o
HAL_TIM_OnePulse_Start_IT                         build/stm32f0xx_hal_tim.o
HAL_TIM_OnePulse_Stop                             build/stm32f0xx_hal_tim.o
HAL_TIM_OnePulse_Stop_IT                          build/stm32f0xx_hal_tim.o
HAL_TIM_PWM_ConfigChannel                         build/stm32f0xx_hal_tim.o
HAL_TIM_PWM_DeInit                                build/stm32f0xx_hal_tim.o
HAL_TIM_PWM_GetState                              build/stm32f0xx_hal_tim.o
HAL_TIM_PWM_Init                                  build/stm32f0xx_hal_tim.o
HAL_TIM_PWM_MspDeInit                             build/stm32f0xx_hal_tim.o
HAL_TIM_PWM_MspInit                               build/stm32f0xx_hal_tim.o
HAL_TIM_PWM_PulseFinishedCallback                 build/stm32f0xx_hal_tim.o
HAL_TIM_PWM_Start                                 build/stm32f0xx_hal_tim.o
HAL_TIM_PWM_Start_DMA                             build/stm32f0xx_hal_tim.o
HAL_TIM_PWM_Start_IT                              build/stm32f0xx_hal_tim.o
HAL_TIM_PWM_Stop                                  build/stm32f0xx_hal_tim.o
HAL_TIM_PWM_Stop_DMA                              build/stm32f0xx_hal_tim.o
HAL_TIM_PWM_Stop_IT                               build/stm32f0xx_hal_tim.o
HAL_TIM_PeriodElapsedCallback                     build/stm32f0xx_it.o
HAL_TIM_ReadCapturedValue                         build/stm32f0xx_hal_tim.o
HAL_TIM_SlaveConfigSynchronization                build/stm32f0xx_hal_tim.o
HAL_TIM_SlaveConfigSynchronization_IT             build/stm32f0xx_hal_tim.o
HAL_TIM_TriggerCallback                           build/stm32f0xx_hal_tim.o
HAL_UARTEx_DisableStopMode                        build/stm32f0xx_hal_uart_ex.o
HAL_UARTEx_EnableStopMode                         build/stm32f0xx_hal_uart_ex.o
HAL_UARTEx_StopModeWakeUpSourceConfig             build/stm32f0xx_hal_uart_ex.o
HAL_UARTEx_WakeupCallback                         build/stm32f0xx_hal_uart_ex.o
                                                  build/stm32f0xx_hal_uart.o
HAL_UART_Abort                                    build/stm32f0xx_hal_uart.o
HAL_UART_AbortCpltCallback                        build/stm32f0xx_hal_uart.o
HAL_UART_AbortReceive                             build/stm32f0xx_hal_uart.o
HAL_UART_AbortReceiveCpltCallback                 build/stm32f0xx_hal_uart.o
HAL_UART_AbortReceive_IT                          build/stm32f0xx_hal_uart.o
HAL_UART_AbortTransmit                            build/stm32f0xx_hal_uart.o
HAL_UART_AbortTransmitCpltCallback                build/stm32f0xx_hal_uart.o
HAL_UART_AbortTransmit_IT                         build/stm32f0xx_hal_uart.o
HAL_UART_Abort_IT                                 build/stm32f0xx_hal_uart.o
HAL_UART_DMAPause                                 build/stm32f0xx_hal_uart.o
HAL_UART_DMAResume                                build/stm32f0xx_hal_uart.o
HAL_UART_DMAStop                                  build/stm32f0xx_hal_uart.o
HAL_UART_DeInit                                   build/stm32f0xx_hal_uart.o
                                                  build/modbus_device.o
HAL_UART_ErrorCallback                            build/stm32f0xx_hal_uart.o
HAL_UART_GetError                                 build/stm32f0xx_hal_uart.o
HAL_UART_GetState                                 build/stm32f0xx_hal_uart.o
HAL_UART_IRQHandler                               build/stm32f0xx_hal_uart.o
                                                  build/stm32f0xx_it.o
HAL_UART_Init                                     build/stm32f0xx_hal_uart.o
                                                  build/modbus_device.o
                                                  build/main.o
HAL_UART_MspDeInit                                build/stm32f0xx_hal_msp.o
HAL_UART_MspInit                                  build/stm32f0xx_hal_msp.o
                                                  build/stm32f0xx_hal_uart_ex.o
HAL_UART_Receive                                  build/stm32f0xx_hal_uart.o
HAL_UART_Receive_DMA                              build/stm32f0xx_hal_uart.o
                                                  build/dma_usart_idle.o
HAL_UART_Receive_IT                               build/stm32f0xx_hal_uart.o
HAL_UART_RxCpltCallback                           build/stm32f0xx_hal_uart.o
HAL_UART_RxHalfCpltCallback                       build/stm32f0xx_hal_uart.o
HAL_UART_Transmit                                 build/stm32f0xx_hal_uart.o
                                                  build/log.o
HAL_UART_Transmit_DMA                             build/stm32f0xx_hal_uart.o
                                                  build/modbus.o
HAL_UART_Transmit_IT                              build/stm32f0xx_hal_uart.o
HAL_UART_TxCpltCallback                           build/stm32f0xx_hal_uart.o
HAL_UART_TxHalfCpltCallback                       build/stm32f0xx_hal_uart.o
HardFault_Handler                                 build/stm32f0xx_it.o
I2C1_IRQHandler                                   build/startup_stm32f091xc.o
I2C2_IRQHandler                                   build/startup_stm32f091xc.o
InputProcessHandle                                build/main.o
MODULE_ID                                         build/modbus_device.o
NMI_Handler                                       build/stm32f0xx_it.o
PVD_VDDIO2_IRQHandler                             build/startup_stm32f091xc.o
PendSV_Handler                                    build/port.o
RCC_CRS_IRQHandler                                build/startup_stm32f091xc.o
RTC_IRQHandler                                    build/startup_stm32f091xc.o
Reset_Handler                                     build/startup_stm32f091xc.o
RxQueue                                           build/main.o
                                                  build/dma_usart_idle.o
SPI1_IRQHandler                                   build/startup_stm32f091xc.o
SPI2_IRQHandler                                   build/startup_stm32f091xc.o
SVC_Handler                                       build/port.o
SysTick_Handler                                   build/port.o
                                                  build/cmsis_os.o
SystemClock_Config                                build/main.o
SystemCoreClock                                   build/system_stm32f0xx.o
                                                  build/modbus_device.o
                                                  build/port.o
                                                  build/stm32f0xx_hal_rcc.o
SystemCoreClockUpdate                             build/system_stm32f0xx.o
SystemInit                                        build/system_stm32f0xx.o
                                                  build/startup_stm32f091xc.o
TIM14_IRQHandler                                  build/startup_stm32f091xc.o
TIM15_IRQHandler                                  build/startup_stm32f091xc.o
TIM16_IRQHandler                                  build/startup_stm32f091xc.o
TIM17_IRQHandler                                  build/startup_stm32f091xc.o
TIM1_BRK_UP_TRG_COM_IRQHandler                    build/stm32f0xx_it.o
TIM1_CC_IRQHandler                                build/stm32f0xx_it.o
TIM2_IRQHandler                                   build/stm32f0xx_it.o
TIM3_IRQHandler                                   build/stm32f0xx_it.o
TIM6_DAC_IRQHandler                               build/stm32f0xx_it.o
TIM7_IRQHandler                                   build/stm32f0xx_it.o
TIMEx_DMACommutationCplt                          build/stm32f0xx_hal_tim_ex.o
                                                  build/stm32f0xx_hal_tim.o
TIM_Base_SetConfig                                build/stm32f0xx_hal_tim.o
                                                  build/stm32f0xx_hal_tim_ex.o
TIM_CCxChannelCmd                                 build/stm32f0xx_hal_tim.o
                                                  build/modbus_device.o
                                                  build/stm32f0xx_hal_tim_ex.o
TIM_CLOCK                                         build/modbus_device.o
TIM_DMACaptureCplt                                build/stm32f0xx_hal_tim.o
                                                  build/stm32f0xx_hal_tim_ex.o
TIM_DMADelayPulseCplt                             build/stm32f0xx_hal_tim.o
                                                  build/stm32f0xx_hal_tim_ex.o
TIM_DMAError                                      build/stm32f0xx_hal_tim.o
                                                  build/stm32f0xx_hal_tim_ex.o
TIM_ETR_SetConfig                                 build/stm32f0xx_hal_tim.o
                                                  build/stm32f0xx_hal_tim_ex.o
TIM_OC2_SetConfig                                 build/stm32f0xx_hal_tim.o
                                                  build/stm32f0xx_hal_tim_ex.o
TIM_TI1_SetConfig                                 build/stm32f0xx_hal_tim.o
                                                  build/stm32f0xx_hal_tim_ex.o
TSC_IRQHandler                                    build/startup_stm32f091xc.o
Tick_TaskHandle                                   build/main.o
UART_AdvFeatureConfig                             build/stm32f0xx_hal_uart.o
                                                  build/stm32f0xx_hal_uart_ex.o
UART_Buffer                                       build/dma_usart_idle.o
UART_CheckIdleState                               build/stm32f0xx_hal_uart.o
                                                  build/stm32f0xx_hal_uart_ex.o
UART_EndTransmit_IT                               build/stm32f0xx_hal_uart.o
UART_Receive_IT                                   build/stm32f0xx_hal_uart.o
UART_SetConfig                                    build/stm32f0xx_hal_uart.o
                                                  build/stm32f0xx_hal_uart_ex.o
UART_Transmit_IT                                  build/stm32f0xx_hal_uart.o
UART_WaitOnFlagUntilTimeout                       build/stm32f0xx_hal_uart.o
                                                  build/stm32f0xx_hal_uart_ex.o
USART1_IRQHandler                                 build/startup_stm32f091xc.o
USART2_IRQHandler                                 build/stm32f0xx_it.o
USART2_IrqHandler                                 build/dma_usart_idle.o
                                                  build/stm32f0xx_it.o
USART3_8_IRQHandler                               build/stm32f0xx_it.o
USART4_IrqHandler                                 build/dma_usart_idle.o
                                                  build/stm32f0xx_it.o
Usart4RxSemaphoreHandle                           build/main.o
                                                  build/dma_usart_idle.o
WWDG_IRQHandler                                   build/startup_stm32f091xc.o
__aeabi_idiv                                      /opt/gcc-arm-none-eabi/bin/../lib/gcc/arm-none-eabi/8.3.1/thumb/v6-m/nofp/libgcc.a(_divsi3.o)
                                                  build/modbus_device.o
                                                  build/system_stm32f0xx.o
                                                  build/stm32f0xx_hal_rcc.o
__aeabi_idiv0                                     /opt/gcc-arm-none-eabi/bin/../lib/gcc/arm-none-eabi/8.3.1/thumb/v6-m/nofp/libgcc.a(_dvmd_tls.o)
                                                  /opt/gcc-arm-none-eabi/bin/../lib/gcc/arm-none-eabi/8.3.1/thumb/v6-m/nofp/libgcc.a(_divsi3.o)
                                                  /opt/gcc-arm-none-eabi/bin/../lib/gcc/arm-none-eabi/8.3.1/thumb/v6-m/nofp/libgcc.a(_udivsi3.o)
__aeabi_idivmod                                   /opt/gcc-arm-none-eabi/bin/../lib/gcc/arm-none-eabi/8.3.1/thumb/v6-m/nofp/libgcc.a(_divsi3.o)
                                                  build/modbus_device.o
__aeabi_ldiv0                                     /opt/gcc-arm-none-eabi/bin/../lib/gcc/arm-none-eabi/8.3.1/thumb/v6-m/nofp/libgcc.a(_dvmd_tls.o)
__aeabi_llsr                                      /opt/gcc-arm-none-eabi/bin/../lib/gcc/arm-none-eabi/8.3.1/thumb/v6-m/nofp/libgcc.a(_lshrdi3.o)
                                                  build/stm32f0xx_hal_flash.o
__aeabi_uidiv                                     /opt/gcc-arm-none-eabi/bin/../lib/gcc/arm-none-eabi/8.3.1/thumb/v6-m/nofp/libgcc.a(_udivsi3.o)
                                                  build/modbus_device.o
                                                  build/port.o
                                                  build/system_stm32f0xx.o
                                                  build/stm32f0xx_hal_dma.o
                                                  build/stm32f0xx_hal.o
                                                  build/stm32f0xx_hal_rcc.o
                                                  build/stm32f0xx_hal_uart.o
                                                  build/stm32f0xx_hal_timebase_tim.o
__aeabi_uidivmod                                  /opt/gcc-arm-none-eabi/bin/../lib/gcc/arm-none-eabi/8.3.1/thumb/v6-m/nofp/libgcc.a(_udivsi3.o)
                                                  /opt/gcc-arm-none-eabi/bin/../lib/gcc/arm-none-eabi/8.3.1/../../../../arm-none-eabi/lib/thumb/v6-m/nofp/libc_nano.a(lib_a-nano-vfprintf_i.o)
                                                  /opt/gcc-arm-none-eabi/bin/../lib/gcc/arm-none-eabi/8.3.1/../../../../arm-none-eabi/lib/thumb/v6-m/nofp/libc_nano.a(lib_a-strtol.o)
                                                  build/modbus_device.o
                                                  build/cmsis_os.o
__bss_end__                                       /opt/gcc-arm-none-eabi/bin/../lib/gcc/arm-none-eabi/8.3.1/../../../../arm-none-eabi/lib/thumb/v6-m/nofp/crt0.o
__bss_start__                                     /opt/gcc-arm-none-eabi/bin/../lib/gcc/arm-none-eabi/8.3.1/../../../../arm-none-eabi/lib/thumb/v6-m/nofp/crt0.o
__call_exitprocs                                  /opt/gcc-arm-none-eabi/bin/../lib/gcc/arm-none-eabi/8.3.1/../../../../arm-none-eabi/lib/thumb/v6-m/nofp/libc_nano.a(lib_a-exit.o)
__deregister_frame_info                           /opt/gcc-arm-none-eabi/bin/../lib/gcc/arm-none-eabi/8.3.1/thumb/v6-m/nofp/crtbegin.o
__divsi3                                          /opt/gcc-arm-none-eabi/bin/../lib/gcc/arm-none-eabi/8.3.1/thumb/v6-m/nofp/libgcc.a(_divsi3.o)
__dso_handle                                      /opt/gcc-arm-none-eabi/bin/../lib/gcc/arm-none-eabi/8.3.1/thumb/v6-m/nofp/crtbegin.o
__gnu_thumb1_case_sqi                             /opt/gcc-arm-none-eabi/bin/../lib/gcc/arm-none-eabi/8.3.1/thumb/v6-m/nofp/libgcc.a(_thumb1_case_sqi.o)
                                                  build/stm32f0xx_hal_uart.o
__gnu_thumb1_case_uhi                             /opt/gcc-arm-none-eabi/bin/../lib/gcc/arm-none-eabi/8.3.1/thumb/v6-m/nofp/libgcc.a(_thumb1_case_uhi.o)
                                                  build/modbus_device.o
__gnu_thumb1_case_uqi                             /opt/gcc-arm-none-eabi/bin/../lib/gcc/arm-none-eabi/8.3.1/thumb/v6-m/nofp/libgcc.a(_thumb1_case_uqi.o)
                                                  build/modbus_device.o
                                                  build/tasks.o
                                                  build/stm32f0xx_hal_dma.o
                                                  build/stm32f0xx_hal_uart.o
                                                  build/stm32f0xx_hal_tim_ex.o
                                                  build/stm32f0xx_hal_tim.o
__init_array_end                                  /opt/gcc-arm-none-eabi/bin/../lib/gcc/arm-none-eabi/8.3.1/../../../../arm-none-eabi/lib/thumb/v6-m/nofp/libc_nano.a(lib_a-init.o)
__init_array_start                                /opt/gcc-arm-none-eabi/bin/../lib/gcc/arm-none-eabi/8.3.1/../../../../arm-none-eabi/lib/thumb/v6-m/nofp/libc_nano.a(lib_a-init.o)
__irq_status                                      build/dma_usart_idle.o
__libc_fini_array                                 /opt/gcc-arm-none-eabi/bin/../lib/gcc/arm-none-eabi/8.3.1/../../../../arm-none-eabi/lib/thumb/v6-m/nofp/crt0.o
__libc_init_array                                 /opt/gcc-arm-none-eabi/bin/../lib/gcc/arm-none-eabi/8.3.1/../../../../arm-none-eabi/lib/thumb/v6-m/nofp/libc_nano.a(lib_a-init.o)
                                                  build/startup_stm32f091xc.o
                                                  /opt/gcc-arm-none-eabi/bin/../lib/gcc/arm-none-eabi/8.3.1/../../../../arm-none-eabi/lib/thumb/v6-m/nofp/crt0.o
__lock___arc4random_mutex                         /opt/gcc-arm-none-eabi/bin/../lib/gcc/arm-none-eabi/8.3.1/../../../../arm-none-eabi/lib/thumb/v6-m/nofp/libc_nano.a(lib_a-lock.o)
__lock___at_quick_exit_mutex                      /opt/gcc-arm-none-eabi/bin/../lib/gcc/arm-none-eabi/8.3.1/../../../../arm-none-eabi/lib/thumb/v6-m/nofp/libc_nano.a(lib_a-lock.o)
__lock___atexit_recursive_mutex                   /opt/gcc-arm-none-eabi/bin/../lib/gcc/arm-none-eabi/8.3.1/../../../../arm-none-eabi/lib/thumb/v6-m/nofp/libc_nano.a(lib_a-lock.o)
__lock___dd_hash_mutex                            /opt/gcc-arm-none-eabi/bin/../lib/gcc/arm-none-eabi/8.3.1/../../../../arm-none-eabi/lib/thumb/v6-m/nofp/libc_nano.a(lib_a-lock.o)
__lock___env_recursive_mutex                      /opt/gcc-arm-none-eabi/bin/../lib/gcc/arm-none-eabi/8.3.1/../../../../arm-none-eabi/lib/thumb/v6-m/nofp/libc_nano.a(lib_a-lock.o)
__lock___malloc_recursive_mutex                   /opt/gcc-arm-none-eabi/bin/../lib/gcc/arm-none-eabi/8.3.1/../../../../arm-none-eabi/lib/thumb/v6-m/nofp/libc_nano.a(lib_a-lock.o)
                                                  /opt/gcc-arm-none-eabi/bin/../lib/gcc/arm-none-eabi/8.3.1/../../../../arm-none-eabi/lib/thumb/v6-m/nofp/libc_nano.a(lib_a-mlock.o)
__lock___sfp_recursive_mutex                      /opt/gcc-arm-none-eabi/bin/../lib/gcc/arm-none-eabi/8.3.1/../../../../arm-none-eabi/lib/thumb/v6-m/nofp/libc_nano.a(lib_a-lock.o)
__lock___sinit_recursive_mutex                    /opt/gcc-arm-none-eabi/bin/../lib/gcc/arm-none-eabi/8.3.1/../../../../arm-none-eabi/lib/thumb/v6-m/nofp/libc_nano.a(lib_a-lock.o)
__lock___tz_mutex                                 /opt/gcc-arm-none-eabi/bin/../lib/gcc/arm-none-eabi/8.3.1/../../../../arm-none-eabi/lib/thumb/v6-m/nofp/libc_nano.a(lib_a-lock.o)
__lshrdi3                                         /opt/gcc-arm-none-eabi/bin/../lib/gcc/arm-none-eabi/8.3.1/thumb/v6-m/nofp/libgcc.a(_lshrdi3.o)
__malloc_free_list                                /opt/gcc-arm-none-eabi/bin/../lib/gcc/arm-none-eabi/8.3.1/../../../../arm-none-eabi/lib/thumb/v6-m/nofp/libc_nano.a(lib_a-nano-mallocr.o)
                                                  /opt/gcc-arm-none-eabi/bin/../lib/gcc/arm-none-eabi/8.3.1/../../../../arm-none-eabi/lib/thumb/v6-m/nofp/libc_nano.a(lib_a-nano-freer.o)
__malloc_lock                                     /opt/gcc-arm-none-eabi/bin/../lib/gcc/arm-none-eabi/8.3.1/../../../../arm-none-eabi/lib/thumb/v6-m/nofp/libc_nano.a(lib_a-mlock.o)
                                                  /opt/gcc-arm-none-eabi/bin/../lib/gcc/arm-none-eabi/8.3.1/../../../../arm-none-eabi/lib/thumb/v6-m/nofp/libc_nano.a(lib_a-nano-mallocr.o)
                                                  /opt/gcc-arm-none-eabi/bin/../lib/gcc/arm-none-eabi/8.3.1/../../../../arm-none-eabi/lib/thumb/v6-m/nofp/libc_nano.a(lib_a-nano-freer.o)
__malloc_sbrk_start                               /opt/gcc-arm-none-eabi/bin/../lib/gcc/arm-none-eabi/8.3.1/../../../../arm-none-eabi/lib/thumb/v6-m/nofp/libc_nano.a(lib_a-nano-mallocr.o)
__malloc_unlock                                   /opt/gcc-arm-none-eabi/bin/../lib/gcc/arm-none-eabi/8.3.1/../../../../arm-none-eabi/lib/thumb/v6-m/nofp/libc_nano.a(lib_a-mlock.o)
                                                  /opt/gcc-arm-none-eabi/bin/../lib/gcc/arm-none-eabi/8.3.1/../../../../arm-none-eabi/lib/thumb/v6-m/nofp/libc_nano.a(lib_a-nano-mallocr.o)
                                                  /opt/gcc-arm-none-eabi/bin/../lib/gcc/arm-none-eabi/8.3.1/../../../../arm-none-eabi/lib/thumb/v6-m/nofp/libc_nano.a(lib_a-nano-freer.o)
__preinit_array_end                               /opt/gcc-arm-none-eabi/bin/../lib/gcc/arm-none-eabi/8.3.1/../../../../arm-none-eabi/lib/thumb/v6-m/nofp/libc_nano.a(lib_a-init.o)
__preinit_array_start                             /opt/gcc-arm-none-eabi/bin/../lib/gcc/arm-none-eabi/8.3.1/../../../../arm-none-eabi/lib/thumb/v6-m/nofp/libc_nano.a(lib_a-init.o)
__register_frame_info                             /opt/gcc-arm-none-eabi/bin/../lib/gcc/arm-none-eabi/8.3.1/thumb/v6-m/nofp/crtbegin.o
__retarget_lock_acquire                           /opt/gcc-arm-none-eabi/bin/../lib/gcc/arm-none-eabi/8.3.1/../../../../arm-none-eabi/lib/thumb/v6-m/nofp/libc_nano.a(lib_a-lock.o)
__retarget_lock_acquire_recursive                 /opt/gcc-arm-none-eabi/bin/../lib/gcc/arm-none-eabi/8.3.1/../../../../arm-none-eabi/lib/thumb/v6-m/nofp/libc_nano.a(lib_a-lock.o)
                                                  /opt/gcc-arm-none-eabi/bin/../lib/gcc/arm-none-eabi/8.3.1/../../../../arm-none-eabi/lib/thumb/v6-m/nofp/libc_nano.a(lib_a-mlock.o)
__retarget_lock_close                             /opt/gcc-arm-none-eabi/bin/../lib/gcc/arm-none-eabi/8.3.1/../../../../arm-none-eabi/lib/thumb/v6-m/nofp/libc_nano.a(lib_a-lock.o)
__retarget_lock_close_recursive                   /opt/gcc-arm-none-eabi/bin/../lib/gcc/arm-none-eabi/8.3.1/../../../../arm-none-eabi/lib/thumb/v6-m/nofp/libc_nano.a(lib_a-lock.o)
__retarget_lock_init                              /opt/gcc-arm-none-eabi/bin/../lib/gcc/arm-none-eabi/8.3.1/../../../../arm-none-eabi/lib/thumb/v6-m/nofp/libc_nano.a(lib_a-lock.o)
__retarget_lock_init_recursive                    /opt/gcc-arm-none-eabi/bin/../lib/gcc/arm-none-eabi/8.3.1/../../../../arm-none-eabi/lib/thumb/v6-m/nofp/libc_nano.a(lib_a-lock.o)
__retarget_lock_release                           /opt/gcc-arm-none-eabi/bin/../lib/gcc/arm-none-eabi/8.3.1/../../../../arm-none-eabi/lib/thumb/v6-m/nofp/libc_nano.a(lib_a-lock.o)
__retarget_lock_release_recursive                 /opt/gcc-arm-none-eabi/bin/../lib/gcc/arm-none-eabi/8.3.1/../../../../arm-none-eabi/lib/thumb/v6-m/nofp/libc_nano.a(lib_a-lock.o)
                                                  /opt/gcc-arm-none-eabi/bin/../lib/gcc/arm-none-eabi/8.3.1/../../../../arm-none-eabi/lib/thumb/v6-m/nofp/libc_nano.a(lib_a-mlock.o)
__retarget_lock_try_acquire                       /opt/gcc-arm-none-eabi/bin/../lib/gcc/arm-none-eabi/8.3.1/../../../../arm-none-eabi/lib/thumb/v6-m/nofp/libc_nano.a(lib_a-lock.o)
__retarget_lock_try_acquire_recursive             /opt/gcc-arm-none-eabi/bin/../lib/gcc/arm-none-eabi/8.3.1/../../../../arm-none-eabi/lib/thumb/v6-m/nofp/libc_nano.a(lib_a-lock.o)
__sf_fake_stderr                                  /opt/gcc-arm-none-eabi/bin/../lib/gcc/arm-none-eabi/8.3.1/../../../../arm-none-eabi/lib/thumb/v6-m/nofp/libc_nano.a(lib_a-impure.o)
__sf_fake_stdin                                   /opt/gcc-arm-none-eabi/bin/../lib/gcc/arm-none-eabi/8.3.1/../../../../arm-none-eabi/lib/thumb/v6-m/nofp/libc_nano.a(lib_a-impure.o)
__sf_fake_stdout                                  /opt/gcc-arm-none-eabi/bin/../lib/gcc/arm-none-eabi/8.3.1/../../../../arm-none-eabi/lib/thumb/v6-m/nofp/libc_nano.a(lib_a-impure.o)
__ssprint_r                                       /opt/gcc-arm-none-eabi/bin/../lib/gcc/arm-none-eabi/8.3.1/../../../../arm-none-eabi/lib/thumb/v6-m/nofp/libc_nano.a(lib_a-nano-svfprintf.o)
__ssputs_r                                        /opt/gcc-arm-none-eabi/bin/../lib/gcc/arm-none-eabi/8.3.1/../../../../arm-none-eabi/lib/thumb/v6-m/nofp/libc_nano.a(lib_a-nano-svfprintf.o)
__stack                                           /opt/gcc-arm-none-eabi/bin/../lib/gcc/arm-none-eabi/8.3.1/../../../../arm-none-eabi/lib/thumb/v6-m/nofp/crt0.o
__udivsi3                                         /opt/gcc-arm-none-eabi/bin/../lib/gcc/arm-none-eabi/8.3.1/thumb/v6-m/nofp/libgcc.a(_udivsi3.o)
_atoi_r                                           /opt/gcc-arm-none-eabi/bin/../lib/gcc/arm-none-eabi/8.3.1/../../../../arm-none-eabi/lib/thumb/v6-m/nofp/libc_nano.a(lib_a-atoi.o)
_ctype_                                           /opt/gcc-arm-none-eabi/bin/../lib/gcc/arm-none-eabi/8.3.1/../../../../arm-none-eabi/lib/thumb/v6-m/nofp/libc_nano.a(lib_a-ctype_.o)
                                                  /opt/gcc-arm-none-eabi/bin/../lib/gcc/arm-none-eabi/8.3.1/../../../../arm-none-eabi/lib/thumb/v6-m/nofp/libc_nano.a(lib_a-strtol.o)
_ebss                                             build/startup_stm32f091xc.o
_edata                                            build/startup_stm32f091xc.o
_estack                                           build/startup_stm32f091xc.o
_exit                                             /opt/gcc-arm-none-eabi/bin/../lib/gcc/arm-none-eabi/8.3.1/../../../../arm-none-eabi/lib/thumb/v6-m/nofp/libnosys.a(_exit.o)
                                                  /opt/gcc-arm-none-eabi/bin/../lib/gcc/arm-none-eabi/8.3.1/../../../../arm-none-eabi/lib/thumb/v6-m/nofp/libc_nano.a(lib_a-exit.o)
_fini                                             /opt/gcc-arm-none-eabi/bin/../lib/gcc/arm-none-eabi/8.3.1/thumb/v6-m/nofp/crti.o
_free_r                                           /opt/gcc-arm-none-eabi/bin/../lib/gcc/arm-none-eabi/8.3.1/../../../../arm-none-eabi/lib/thumb/v6-m/nofp/libc_nano.a(lib_a-nano-freer.o)
                                                  /opt/gcc-arm-none-eabi/bin/../lib/gcc/arm-none-eabi/8.3.1/../../../../arm-none-eabi/lib/thumb/v6-m/nofp/libc_nano.a(lib_a-reent.o)
                                                  /opt/gcc-arm-none-eabi/bin/../lib/gcc/arm-none-eabi/8.3.1/../../../../arm-none-eabi/lib/thumb/v6-m/nofp/libc_nano.a(lib_a-nano-reallocr.o)
                                                  /opt/gcc-arm-none-eabi/bin/../lib/gcc/arm-none-eabi/8.3.1/../../../../arm-none-eabi/lib/thumb/v6-m/nofp/libc_nano.a(lib_a-nano-svfprintf.o)
_global_impure_ptr                                /opt/gcc-arm-none-eabi/bin/../lib/gcc/arm-none-eabi/8.3.1/../../../../arm-none-eabi/lib/thumb/v6-m/nofp/libc_nano.a(lib_a-impure.o)
                                                  /opt/gcc-arm-none-eabi/bin/../lib/gcc/arm-none-eabi/8.3.1/../../../../arm-none-eabi/lib/thumb/v6-m/nofp/libc_nano.a(lib_a-exit.o)
_impure_ptr                                       /opt/gcc-arm-none-eabi/bin/../lib/gcc/arm-none-eabi/8.3.1/../../../../arm-none-eabi/lib/thumb/v6-m/nofp/libc_nano.a(lib_a-impure.o)
                                                  /opt/gcc-arm-none-eabi/bin/../lib/gcc/arm-none-eabi/8.3.1/../../../../arm-none-eabi/lib/thumb/v6-m/nofp/libc_nano.a(lib_a-reent.o)
                                                  /opt/gcc-arm-none-eabi/bin/../lib/gcc/arm-none-eabi/8.3.1/../../../../arm-none-eabi/lib/thumb/v6-m/nofp/libc_nano.a(lib_a-vsnprintf.o)
                                                  /opt/gcc-arm-none-eabi/bin/../lib/gcc/arm-none-eabi/8.3.1/../../../../arm-none-eabi/lib/thumb/v6-m/nofp/libc_nano.a(lib_a-strtol.o)
                                                  /opt/gcc-arm-none-eabi/bin/../lib/gcc/arm-none-eabi/8.3.1/../../../../arm-none-eabi/lib/thumb/v6-m/nofp/libc_nano.a(lib_a-snprintf.o)
_init                                             /opt/gcc-arm-none-eabi/bin/../lib/gcc/arm-none-eabi/8.3.1/thumb/v6-m/nofp/crti.o
                                                  /opt/gcc-arm-none-eabi/bin/../lib/gcc/arm-none-eabi/8.3.1/../../../../arm-none-eabi/lib/thumb/v6-m/nofp/libc_nano.a(lib_a-init.o)
_mainCRTStartup                                   /opt/gcc-arm-none-eabi/bin/../lib/gcc/arm-none-eabi/8.3.1/../../../../arm-none-eabi/lib/thumb/v6-m/nofp/crt0.o
_malloc_r                                         /opt/gcc-arm-none-eabi/bin/../lib/gcc/arm-none-eabi/8.3.1/../../../../arm-none-eabi/lib/thumb/v6-m/nofp/libc_nano.a(lib_a-nano-mallocr.o)
                                                  /opt/gcc-arm-none-eabi/bin/../lib/gcc/arm-none-eabi/8.3.1/../../../../arm-none-eabi/lib/thumb/v6-m/nofp/libc_nano.a(lib_a-nano-reallocr.o)
                                                  /opt/gcc-arm-none-eabi/bin/../lib/gcc/arm-none-eabi/8.3.1/../../../../arm-none-eabi/lib/thumb/v6-m/nofp/libc_nano.a(lib_a-nano-svfprintf.o)
_malloc_usable_size_r                             /opt/gcc-arm-none-eabi/bin/../lib/gcc/arm-none-eabi/8.3.1/../../../../arm-none-eabi/lib/thumb/v6-m/nofp/libc_nano.a(lib_a-nano-msizer.o)
                                                  /opt/gcc-arm-none-eabi/bin/../lib/gcc/arm-none-eabi/8.3.1/../../../../arm-none-eabi/lib/thumb/v6-m/nofp/libc_nano.a(lib_a-nano-reallocr.o)
_printf_common                                    /opt/gcc-arm-none-eabi/bin/../lib/gcc/arm-none-eabi/8.3.1/../../../../arm-none-eabi/lib/thumb/v6-m/nofp/libc_nano.a(lib_a-nano-vfprintf_i.o)
_printf_float                                     /opt/gcc-arm-none-eabi/bin/../lib/gcc/arm-none-eabi/8.3.1/../../../../arm-none-eabi/lib/thumb/v6-m/nofp/libc_nano.a(lib_a-nano-svfprintf.o)
_printf_i                                         /opt/gcc-arm-none-eabi/bin/../lib/gcc/arm-none-eabi/8.3.1/../../../../arm-none-eabi/lib/thumb/v6-m/nofp/libc_nano.a(lib_a-nano-vfprintf_i.o)
                                                  /opt/gcc-arm-none-eabi/bin/../lib/gcc/arm-none-eabi/8.3.1/../../../../arm-none-eabi/lib/thumb/v6-m/nofp/libc_nano.a(lib_a-nano-svfprintf.o)
_realloc_r                                        /opt/gcc-arm-none-eabi/bin/../lib/gcc/arm-none-eabi/8.3.1/../../../../arm-none-eabi/lib/thumb/v6-m/nofp/libc_nano.a(lib_a-nano-reallocr.o)
                                                  /opt/gcc-arm-none-eabi/bin/../lib/gcc/arm-none-eabi/8.3.1/../../../../arm-none-eabi/lib/thumb/v6-m/nofp/libc_nano.a(lib_a-nano-svfprintf.o)
_reclaim_reent                                    /opt/gcc-arm-none-eabi/bin/../lib/gcc/arm-none-eabi/8.3.1/../../../../arm-none-eabi/lib/thumb/v6-m/nofp/libc_nano.a(lib_a-reent.o)
_sbrk                                             /opt/gcc-arm-none-eabi/bin/../lib/gcc/arm-none-eabi/8.3.1/../../../../arm-none-eabi/lib/thumb/v6-m/nofp/libnosys.a(sbrk.o)
                                                  /opt/gcc-arm-none-eabi/bin/../lib/gcc/arm-none-eabi/8.3.1/../../../../arm-none-eabi/lib/thumb/v6-m/nofp/libc_nano.a(lib_a-sbrkr.o)
_sbrk_r                                           /opt/gcc-arm-none-eabi/bin/../lib/gcc/arm-none-eabi/8.3.1/../../../../arm-none-eabi/lib/thumb/v6-m/nofp/libc_nano.a(lib_a-sbrkr.o)
                                                  /opt/gcc-arm-none-eabi/bin/../lib/gcc/arm-none-eabi/8.3.1/../../../../arm-none-eabi/lib/thumb/v6-m/nofp/libc_nano.a(lib_a-nano-mallocr.o)
_sbss                                             build/startup_stm32f091xc.o
_sdata                                            build/startup_stm32f091xc.o
_sidata                                           build/startup_stm32f091xc.o
_sniprintf_r                                      /opt/gcc-arm-none-eabi/bin/../lib/gcc/arm-none-eabi/8.3.1/../../../../arm-none-eabi/lib/thumb/v6-m/nofp/libc_nano.a(lib_a-snprintf.o)
_snprintf_r                                       /opt/gcc-arm-none-eabi/bin/../lib/gcc/arm-none-eabi/8.3.1/../../../../arm-none-eabi/lib/thumb/v6-m/nofp/libc_nano.a(lib_a-snprintf.o)
_start                                            /opt/gcc-arm-none-eabi/bin/../lib/gcc/arm-none-eabi/8.3.1/../../../../arm-none-eabi/lib/thumb/v6-m/nofp/crt0.o
_strtol_r                                         /opt/gcc-arm-none-eabi/bin/../lib/gcc/arm-none-eabi/8.3.1/../../../../arm-none-eabi/lib/thumb/v6-m/nofp/libc_nano.a(lib_a-strtol.o)
                                                  /opt/gcc-arm-none-eabi/bin/../lib/gcc/arm-none-eabi/8.3.1/../../../../arm-none-eabi/lib/thumb/v6-m/nofp/libc_nano.a(lib_a-atoi.o)
_svfiprintf_r                                     /opt/gcc-arm-none-eabi/bin/../lib/gcc/arm-none-eabi/8.3.1/../../../../arm-none-eabi/lib/thumb/v6-m/nofp/libc_nano.a(lib_a-nano-svfprintf.o)
_svfprintf_r                                      /opt/gcc-arm-none-eabi/bin/../lib/gcc/arm-none-eabi/8.3.1/../../../../arm-none-eabi/lib/thumb/v6-m/nofp/libc_nano.a(lib_a-nano-svfprintf.o)
                                                  /opt/gcc-arm-none-eabi/bin/../lib/gcc/arm-none-eabi/8.3.1/../../../../arm-none-eabi/lib/thumb/v6-m/nofp/libc_nano.a(lib_a-vsnprintf.o)
                                                  /opt/gcc-arm-none-eabi/bin/../lib/gcc/arm-none-eabi/8.3.1/../../../../arm-none-eabi/lib/thumb/v6-m/nofp/libc_nano.a(lib_a-snprintf.o)
_vsniprintf_r                                     /opt/gcc-arm-none-eabi/bin/../lib/gcc/arm-none-eabi/8.3.1/../../../../arm-none-eabi/lib/thumb/v6-m/nofp/libc_nano.a(lib_a-vsnprintf.o)
_vsnprintf_r                                      /opt/gcc-arm-none-eabi/bin/../lib/gcc/arm-none-eabi/8.3.1/../../../../arm-none-eabi/lib/thumb/v6-m/nofp/libc_nano.a(lib_a-vsnprintf.o)
atexit                                            /opt/gcc-arm-none-eabi/bin/../lib/gcc/arm-none-eabi/8.3.1/../../../../arm-none-eabi/lib/thumb/v6-m/nofp/crt0.o
atoi                                              /opt/gcc-arm-none-eabi/bin/../lib/gcc/arm-none-eabi/8.3.1/../../../../arm-none-eabi/lib/thumb/v6-m/nofp/libc_nano.a(lib_a-atoi.o)
                                                  build/user_cmd.o
check_init_posibility                             build/modbus_device.o
checksum                                          build/main.o
cleanup_glue                                      /opt/gcc-arm-none-eabi/bin/../lib/gcc/arm-none-eabi/8.3.1/../../../../arm-none-eabi/lib/thumb/v6-m/nofp/libc_nano.a(lib_a-reent.o)
clear_output                                      build/modbus_device.o
crc                                               build/main.o
crc_calc_page                                     build/main.o
deinit_output                                     build/modbus_device.o
device                                            build/modbus_device.o
dma_usart_idle_init                               build/dma_usart_idle.o
                                                  build/main.o
dma_usart_idle_reinit                             build/dma_usart_idle.o
                                                  build/modbus_device.o
drv_adum_enable_output_config                     build/modbus_device.o
end                                               /opt/gcc-arm-none-eabi/bin/../lib/gcc/arm-none-eabi/8.3.1/../../../../arm-none-eabi/lib/thumb/v6-m/nofp/libnosys.a(sbrk.o)
errno                                             /opt/gcc-arm-none-eabi/bin/../lib/gcc/arm-none-eabi/8.3.1/../../../../arm-none-eabi/lib/thumb/v6-m/nofp/libc_nano.a(lib_a-reent.o)
                                                  /opt/gcc-arm-none-eabi/bin/../lib/gcc/arm-none-eabi/8.3.1/../../../../arm-none-eabi/lib/thumb/v6-m/nofp/libc_nano.a(lib_a-sbrkr.o)
error_strings                                     build/errors.o
errors                                            build/errors.o
errors_buffer                                     build/errors.o
                                                  build/ext_mem.o
errors_init                                       build/errors.o
                                                  build/main.o
errors_is_error                                   build/errors.o
errors_is_update                                  build/errors.o
                                                  build/main.o
errors_log_errors                                 build/errors.o
                                                  build/user_cmd.o
errors_on_error                                   build/errors.o
                                                  build/modbus_device.o
                                                  build/modbus.o
                                                  build/dma_usart_idle.o
errors_size                                       build/errors.o
                                                  build/ext_mem.o
errors_update_clear                               build/errors.o
                                                  build/main.o
exit                                              /opt/gcc-arm-none-eabi/bin/../lib/gcc/arm-none-eabi/8.3.1/../../../../arm-none-eabi/lib/thumb/v6-m/nofp/libc_nano.a(lib_a-exit.o)
                                                  /opt/gcc-arm-none-eabi/bin/../lib/gcc/arm-none-eabi/8.3.1/../../../../arm-none-eabi/lib/thumb/v6-m/nofp/crt0.o
ext_mem_get_update_flag                           build/ext_mem.o
ext_mem_init                                      build/ext_mem.o
ext_mem_load                                      build/ext_mem.o
                                                  build/modbus_device.o
ext_mem_read_errors                               build/ext_mem.o
                                                  build/main.o
ext_mem_set_update_flag                           build/ext_mem.o
ext_mem_store                                     build/ext_mem.o
                                                  build/modbus_device.o
ext_mem_store_errors                              build/ext_mem.o
                                                  build/main.o
ext_mem_store_time                                build/ext_mem.o
                                                  build/main.o
g_pfnVectors                                      build/startup_stm32f091xc.o
get_tim                                           build/modbus_device.o
hardware_init_hook                                /opt/gcc-arm-none-eabi/bin/../lib/gcc/arm-none-eabi/8.3.1/../../../../arm-none-eabi/lib/thumb/v6-m/nofp/crt0.o
hcrc                                              build/main.o
hdma_usart2_rx                                    build/main.o
                                                  build/stm32f0xx_hal_msp.o
                                                  build/stm32f0xx_it.o
hdma_usart2_tx                                    build/main.o
                                                  build/stm32f0xx_hal_msp.o
                                                  build/stm32f0xx_it.o
hdma_usart4_rx                                    build/main.o
                                                  build/stm32f0xx_hal_msp.o
                                                  build/stm32f0xx_it.o
hdma_usart4_tx                                    build/main.o
                                                  build/stm32f0xx_hal_msp.o
                                                  build/stm32f0xx_it.o
help_msg                                          build/user_cmd.o
hi2c1                                             build/main.o
                                                  build/ext_mem.o
htim6                                             build/stm32f0xx_hal_timebase_tim.o
                                                  build/stm32f0xx_it.o
htim7                                             build/modbus_device.o
huart2                                            build/main.o
                                                  build/log.o
                                                  build/dma_usart_idle.o
                                                  build/stm32f0xx_it.o
huart4                                            build/main.o
                                                  build/modbus_device.o
                                                  build/modbus.o
                                                  build/dma_usart_idle.o
                                                  build/stm32f0xx_it.o
init_discrete_output                              build/modbus_device.o
int_ext_pins_init                                 build/main.o
is_usart4_sending                                 build/main.o
                                                  build/modbus.o
                                                  build/dma_usart_idle.o
logSemaphore                                      build/log.o
log_log                                           build/log.o
                                                  build/main.o
log_out                                           build/log.o
                                                  build/user_cmd.o
                                                  build/errors.o
                                                  build/modbus_device.o
logger                                            build/log.o
main                                              build/main.o
                                                  build/startup_stm32f091xc.o
                                                  /opt/gcc-arm-none-eabi/bin/../lib/gcc/arm-none-eabi/8.3.1/../../../../arm-none-eabi/lib/thumb/v6-m/nofp/crt0.o
mbd_addr                                          build/modbus_device.o
                                                  build/modbus.o
mbd_can_init                                      build/modbus_device.o
                                                  build/main.o
mbd_common_params                                 build/modbus_device.o
                                                  build/ext_mem.o
mbd_discrete_output                               build/modbus_device.o
mbd_exit_init_mode                                build/modbus_device.o
                                                  build/main.o
mbd_ext_init                                      build/modbus_device.o
                                                  build/main.o
mbd_holding_reg                                   build/modbus_device.o
                                                  build/modbus.o
mbd_inc_crc_err_rq                                build/modbus_device.o
                                                  build/modbus.o
mbd_inc_handled_rq                                build/modbus_device.o
                                                  build/modbus.o
mbd_inc_total_rq                                  build/modbus_device.o
                                                  build/modbus.o
mbd_init                                          build/modbus_device.o
                                                  build/modbus.o
mbd_int_init                                      build/modbus_device.o
                                                  build/main.o
mbd_is_init                                       build/modbus_device.o
                                                  build/modbus.o
                                                  build/main.o
mbd_log_config                                    build/modbus_device.o
                                                  build/user_cmd.o
mbd_log_status                                    build/modbus_device.o
                                                  build/user_cmd.o
mbd_module_id                                     build/modbus_device.o
                                                  build/ext_mem.o
mbd_output_load                                   build/modbus_device.o
                                                  build/ext_mem.o
